{
  "_format": "hh-sol-artifact-1",
  "contractName": "ResourceMarket",
  "sourceName": "contracts/ResourceMarket.sol",
  "abi": [
    {
      "inputs": [
        {
          "internalType": "address",
          "name": "_pixel",
          "type": "address"
        },
        {
          "internalType": "address",
          "name": "_resources",
          "type": "address"
        }
      ],
      "stateMutability": "nonpayable",
      "type": "constructor"
    },
    {
      "inputs": [],
      "name": "DUAL_POTIONS",
      "outputs": [
        {
          "internalType": "uint256",
          "name": "",
          "type": "uint256"
        }
      ],
      "stateMutability": "view",
      "type": "function"
    },
    {
      "inputs": [],
      "name": "FOOD",
      "outputs": [
        {
          "internalType": "uint256",
          "name": "",
          "type": "uint256"
        }
      ],
      "stateMutability": "view",
      "type": "function"
    },
    {
      "inputs": [],
      "name": "HEALTH_POTIONS",
      "outputs": [
        {
          "internalType": "uint256",
          "name": "",
          "type": "uint256"
        }
      ],
      "stateMutability": "view",
      "type": "function"
    },
    {
      "inputs": [],
      "name": "SKELETON_BONES",
      "outputs": [
        {
          "internalType": "uint256",
          "name": "",
          "type": "uint256"
        }
      ],
      "stateMutability": "view",
      "type": "function"
    },
    {
      "inputs": [],
      "name": "STAMINA_POTIONS",
      "outputs": [
        {
          "internalType": "uint256",
          "name": "",
          "type": "uint256"
        }
      ],
      "stateMutability": "view",
      "type": "function"
    },
    {
      "inputs": [],
      "name": "STONE",
      "outputs": [
        {
          "internalType": "uint256",
          "name": "",
          "type": "uint256"
        }
      ],
      "stateMutability": "view",
      "type": "function"
    },
    {
      "inputs": [],
      "name": "WOOD",
      "outputs": [
        {
          "internalType": "uint256",
          "name": "",
          "type": "uint256"
        }
      ],
      "stateMutability": "view",
      "type": "function"
    },
    {
      "inputs": [
        {
          "internalType": "uint256",
          "name": "index",
          "type": "uint256"
        },
        {
          "internalType": "uint256",
          "name": "_itemId",
          "type": "uint256"
        },
        {
          "internalType": "uint256",
          "name": "amount",
          "type": "uint256"
        }
      ],
      "name": "buyItemFromMerchant",
      "outputs": [],
      "stateMutability": "nonpayable",
      "type": "function"
    },
    {
      "inputs": [
        {
          "internalType": "uint256",
          "name": "",
          "type": "uint256"
        }
      ],
      "name": "buyOrders",
      "outputs": [
        {
          "internalType": "uint256",
          "name": "item",
          "type": "uint256"
        },
        {
          "internalType": "uint256",
          "name": "amountToBuy",
          "type": "uint256"
        },
        {
          "internalType": "uint256",
          "name": "pricePerItem",
          "type": "uint256"
        },
        {
          "internalType": "address",
          "name": "merchant",
          "type": "address"
        }
      ],
      "stateMutability": "view",
      "type": "function"
    },
    {
      "inputs": [
        {
          "internalType": "uint256",
          "name": "_itemId",
          "type": "uint256"
        },
        {
          "internalType": "uint256",
          "name": "amount",
          "type": "uint256"
        },
        {
          "internalType": "uint256",
          "name": "pricePerItem",
          "type": "uint256"
        }
      ],
      "name": "createBuyOrder",
      "outputs": [],
      "stateMutability": "nonpayable",
      "type": "function"
    },
    {
      "inputs": [
        {
          "internalType": "uint256",
          "name": "_itemId",
          "type": "uint256"
        },
        {
          "internalType": "uint256",
          "name": "amount",
          "type": "uint256"
        },
        {
          "internalType": "uint256",
          "name": "pricePerItem",
          "type": "uint256"
        }
      ],
      "name": "createSellOrder",
      "outputs": [],
      "stateMutability": "nonpayable",
      "type": "function"
    },
    {
      "inputs": [
        {
          "internalType": "uint256",
          "name": "_itemId",
          "type": "uint256"
        }
      ],
      "name": "getMaxPriceBuyOrder",
      "outputs": [
        {
          "internalType": "uint256",
          "name": "",
          "type": "uint256"
        }
      ],
      "stateMutability": "view",
      "type": "function"
    },
    {
      "inputs": [
        {
          "internalType": "uint256",
          "name": "_itemId",
          "type": "uint256"
        }
      ],
      "name": "getMinPriceSellOrder",
      "outputs": [
        {
          "internalType": "uint256",
          "name": "",
          "type": "uint256"
        }
      ],
      "stateMutability": "view",
      "type": "function"
    },
    {
      "inputs": [
        {
          "internalType": "address",
          "name": "",
          "type": "address"
        },
        {
          "internalType": "address",
          "name": "",
          "type": "address"
        },
        {
          "internalType": "uint256[]",
          "name": "",
          "type": "uint256[]"
        },
        {
          "internalType": "uint256[]",
          "name": "",
          "type": "uint256[]"
        },
        {
          "internalType": "bytes",
          "name": "",
          "type": "bytes"
        }
      ],
      "name": "onERC1155BatchReceived",
      "outputs": [
        {
          "internalType": "bytes4",
          "name": "",
          "type": "bytes4"
        }
      ],
      "stateMutability": "nonpayable",
      "type": "function"
    },
    {
      "inputs": [
        {
          "internalType": "address",
          "name": "",
          "type": "address"
        },
        {
          "internalType": "address",
          "name": "",
          "type": "address"
        },
        {
          "internalType": "uint256",
          "name": "",
          "type": "uint256"
        },
        {
          "internalType": "uint256",
          "name": "",
          "type": "uint256"
        },
        {
          "internalType": "bytes",
          "name": "",
          "type": "bytes"
        }
      ],
      "name": "onERC1155Received",
      "outputs": [
        {
          "internalType": "bytes4",
          "name": "",
          "type": "bytes4"
        }
      ],
      "stateMutability": "nonpayable",
      "type": "function"
    },
    {
      "inputs": [],
      "name": "owner",
      "outputs": [
        {
          "internalType": "address",
          "name": "",
          "type": "address"
        }
      ],
      "stateMutability": "view",
      "type": "function"
    },
    {
      "inputs": [],
      "name": "pixel",
      "outputs": [
        {
          "internalType": "contract IERC20",
          "name": "",
          "type": "address"
        }
      ],
      "stateMutability": "view",
      "type": "function"
    },
    {
      "inputs": [
        {
          "internalType": "address",
          "name": "",
          "type": "address"
        }
      ],
      "name": "pixelForBuyOrder",
      "outputs": [
        {
          "internalType": "uint256",
          "name": "",
          "type": "uint256"
        }
      ],
      "stateMutability": "view",
      "type": "function"
    },
    {
      "inputs": [],
      "name": "resources",
      "outputs": [
        {
          "internalType": "contract Resources",
          "name": "",
          "type": "address"
        }
      ],
      "stateMutability": "view",
      "type": "function"
    },
    {
      "inputs": [
        {
          "internalType": "uint256",
          "name": "index",
          "type": "uint256"
        },
        {
          "internalType": "uint256",
          "name": "_itemId",
          "type": "uint256"
        },
        {
          "internalType": "uint256",
          "name": "amount",
          "type": "uint256"
        }
      ],
      "name": "sellItemToMerchant",
      "outputs": [],
      "stateMutability": "nonpayable",
      "type": "function"
    },
    {
      "inputs": [
        {
          "internalType": "uint256",
          "name": "",
          "type": "uint256"
        }
      ],
      "name": "sellOrders",
      "outputs": [
        {
          "internalType": "uint256",
          "name": "item",
          "type": "uint256"
        },
        {
          "internalType": "uint256",
          "name": "amountToSell",
          "type": "uint256"
        },
        {
          "internalType": "uint256",
          "name": "pricePerItem",
          "type": "uint256"
        },
        {
          "internalType": "address",
          "name": "merchant",
          "type": "address"
        }
      ],
      "stateMutability": "view",
      "type": "function"
    },
    {
      "inputs": [
        {
          "internalType": "bytes4",
          "name": "interfaceId",
          "type": "bytes4"
        }
      ],
      "name": "supportsInterface",
      "outputs": [
        {
          "internalType": "bool",
          "name": "",
          "type": "bool"
        }
      ],
      "stateMutability": "view",
      "type": "function"
    }
  ],
  "bytecode": "0x60806040523480156200001157600080fd5b506040516200241c3803806200241c833981810160405281019062000037919062000118565b81600160006101000a81548173ffffffffffffffffffffffffffffffffffffffff021916908373ffffffffffffffffffffffffffffffffffffffff16021790555080600260006101000a81548173ffffffffffffffffffffffffffffffffffffffff021916908373ffffffffffffffffffffffffffffffffffffffff160217905550336000806101000a81548173ffffffffffffffffffffffffffffffffffffffff021916908373ffffffffffffffffffffffffffffffffffffffff1602179055505050620001a7565b60008151905062000112816200018d565b92915050565b600080604083850312156200012c57600080fd5b60006200013c8582860162000101565b92505060206200014f8582860162000101565b9150509250929050565b600062000166826200016d565b9050919050565b600073ffffffffffffffffffffffffffffffffffffffff82169050919050565b620001988162000159565b8114620001a457600080fd5b50565b61226580620001b76000396000f3fe608060405234801561001057600080fd5b50600436106101425760003560e01c8063717d79da116100b8578063b8959fba1161007c578063b8959fba14610381578063bc197c811461039f578063c663bc82146103cf578063ed79d5c8146103eb578063f03906f51461041b578063f23a6e611461043957610142565b8063717d79da146102d95780637d19ccc3146103095780638cd295c2146103275780638da5cb5b1461034557806392f3f06b1461036357610142565b80633a219c291161010a5780633a219c29146102145780634a8393f31461023057806351a583d2146102635780635653e3ac1461027f57806369f9901e1461029d5780636fabf2ca146102bb57610142565b806301ffc9a71461014757806303bb8398146101775780631c2eeddc146101935780632d677595146101c357806335cea288146101e1575b600080fd5b610161600480360381019061015c9190611b55565b610469565b60405161016e9190611d8c565b60405180910390f35b610191600480360381019061018c9190611ba7565b6104e3565b005b6101ad60048036038101906101a89190611b7e565b6106c1565b6040516101ba9190611e38565b60405180910390f35b6101cb6106d8565b6040516101d89190611e38565b60405180910390f35b6101fb60048036038101906101f69190611b7e565b6106dd565b60405161020b9493929190611e53565b60405180910390f35b61022e60048036038101906102299190611ba7565b61073d565b005b61024a60048036038101906102459190611b7e565b6108a4565b60405161025a9493929190611e53565b60405180910390f35b61027d60048036038101906102789190611ba7565b610904565b005b610287610e17565b6040516102949190611e38565b60405180910390f35b6102a5610e1c565b6040516102b29190611e38565b60405180910390f35b6102c3610e21565b6040516102d09190611e38565b60405180910390f35b6102f360048036038101906102ee91906119b5565b610e26565b6040516103009190611e38565b60405180910390f35b610311610e3e565b60405161031e9190611e38565b60405180910390f35b61032f610e43565b60405161033c9190611dc2565b60405180910390f35b61034d610e69565b60405161035a9190611cb9565b60405180910390f35b61036b610e8d565b6040516103789190611e38565b60405180910390f35b610389610e92565b6040516103969190611e38565b60405180910390f35b6103b960048036038101906103b491906119de565b610e97565b6040516103c69190611da7565b60405180910390f35b6103e960048036038101906103e49190611ba7565b610eac565b005b61040560048036038101906104009190611b7e565b6113c1565b6040516104129190611e38565b60405180910390f35b6104236113d8565b6040516104309190611ddd565b60405180910390f35b610453600480360381019061044e9190611a9d565b6113fe565b6040516104609190611da7565b60405180910390f35b60007f4e2312e0000000000000000000000000000000000000000000000000000000007bffffffffffffffffffffffffffffffffffffffffffffffffffffffff1916827bffffffffffffffffffffffffffffffffffffffffffffffffffffffff191614806104dc57506104db82611413565b5b9050919050565b600160009054906101000a900473ffffffffffffffffffffffffffffffffffffffff1673ffffffffffffffffffffffffffffffffffffffff166323b872dd3330848661052f9190611f3c565b6040518463ffffffff1660e01b815260040161054d93929190611cd4565b602060405180830381600087803b15801561056757600080fd5b505af115801561057b573d6000803e3d6000fd5b505050506040513d601f19601f8201168201806040525081019061059f9190611b2c565b5080826105ac9190611f3c565b600360003373ffffffffffffffffffffffffffffffffffffffff1673ffffffffffffffffffffffffffffffffffffffff1681526020019081526020016000205050600060405180608001604052808581526020018481526020018381526020013373ffffffffffffffffffffffffffffffffffffffff168152509050600481908060018154018082558091505060019003906000526020600020906004020160009091909190915060008201518160000155602082015181600101556040820151816002015560608201518160030160006101000a81548173ffffffffffffffffffffffffffffffffffffffff021916908373ffffffffffffffffffffffffffffffffffffffff160217905550505050505050565b6000806106cd8361147d565b905080915050919050565b600481565b600481815481106106ed57600080fd5b90600052602060002090600402016000915090508060000154908060010154908060020154908060030160009054906101000a900473ffffffffffffffffffffffffffffffffffffffff16905084565b600260009054906101000a900473ffffffffffffffffffffffffffffffffffffffff1673ffffffffffffffffffffffffffffffffffffffff1663f242432a333086866040518563ffffffff1660e01b815260040161079e9493929190611d0b565b600060405180830381600087803b1580156107b857600080fd5b505af11580156107cc573d6000803e3d6000fd5b50505050600060405180608001604052808581526020018481526020018381526020013373ffffffffffffffffffffffffffffffffffffffff168152509050600581908060018154018082558091505060019003906000526020600020906004020160009091909190915060008201518160000155602082015181600101556040820151816002015560608201518160030160006101000a81548173ffffffffffffffffffffffffffffffffffffffff021916908373ffffffffffffffffffffffffffffffffffffffff160217905550505050505050565b600581815481106108b457600080fd5b90600052602060002090600402016000915090508060000154908060010154908060020154908060030160009054906101000a900473ffffffffffffffffffffffffffffffffffffffff16905084565b816004848154811061093f577f4e487b7100000000000000000000000000000000000000000000000000000000600052603260045260246000fd5b90600052602060002090600402016000015414610991576040517f08c379a000000000000000000000000000000000000000000000000000000000815260040161098890611e18565b60405180910390fd5b600081600485815481106109ce577f4e487b7100000000000000000000000000000000000000000000000000000000600052603260045260246000fd5b9060005260206000209060040201600201546109ea9190611f3c565b9050600160009054906101000a900473ffffffffffffffffffffffffffffffffffffffff1673ffffffffffffffffffffffffffffffffffffffff1663a9059cbb33836040518363ffffffff1660e01b8152600401610a49929190611d63565b602060405180830381600087803b158015610a6357600080fd5b505af1158015610a77573d6000803e3d6000fd5b505050506040513d601f19601f82011682018060405250810190610a9b9190611b2c565b50600260009054906101000a900473ffffffffffffffffffffffffffffffffffffffff1673ffffffffffffffffffffffffffffffffffffffff1663f242432a3360048781548110610b15577f4e487b7100000000000000000000000000000000000000000000000000000000600052603260045260246000fd5b906000526020600020906004020160030160009054906101000a900473ffffffffffffffffffffffffffffffffffffffff1686866040518563ffffffff1660e01b8152600401610b689493929190611d0b565b600060405180830381600087803b158015610b8257600080fd5b505af1158015610b96573d6000803e3d6000fd5b505050508160048581548110610bd5577f4e487b7100000000000000000000000000000000000000000000000000000000600052603260045260246000fd5b90600052602060002090600402016001016000828254610bf59190611f96565b92505081905550600060048581548110610c38577f4e487b7100000000000000000000000000000000000000000000000000000000600052603260045260246000fd5b9060005260206000209060040201600101541415610e115760006001600480549050610c649190611f96565b905060048181548110610ca0577f4e487b7100000000000000000000000000000000000000000000000000000000600052603260045260246000fd5b90600052602060002090600402016004600081548110610ce9577f4e487b7100000000000000000000000000000000000000000000000000000000600052603260045260246000fd5b90600052602060002090600402016000820154816000015560018201548160010155600282015481600201556003820160009054906101000a900473ffffffffffffffffffffffffffffffffffffffff168160030160006101000a81548173ffffffffffffffffffffffffffffffffffffffff021916908373ffffffffffffffffffffffffffffffffffffffff1602179055509050506004805480610db7577f4e487b7100000000000000000000000000000000000000000000000000000000600052603160045260246000fd5b6001900381819060005260206000209060040201600080820160009055600182016000905560028201600090556003820160006101000a81549073ffffffffffffffffffffffffffffffffffffffff021916905550509055505b50505050565b600081565b600181565b600581565b60036020528060005260406000206000915090505481565b600281565b600160009054906101000a900473ffffffffffffffffffffffffffffffffffffffff1681565b60008054906101000a900473ffffffffffffffffffffffffffffffffffffffff1681565b600681565b600381565b600063bc197c8160e01b905095945050505050565b8160058481548110610ee7577f4e487b7100000000000000000000000000000000000000000000000000000000600052603260045260246000fd5b90600052602060002090600402016000015414610f39576040517f08c379a0000000000000000000000000000000000000000000000000000000008152600401610f3090611df8565b60405180910390fd5b60008160058581548110610f76577f4e487b7100000000000000000000000000000000000000000000000000000000600052603260045260246000fd5b906000526020600020906004020160020154610f929190611f3c565b9050600160009054906101000a900473ffffffffffffffffffffffffffffffffffffffff1673ffffffffffffffffffffffffffffffffffffffff166323b872dd336005878154811061100d577f4e487b7100000000000000000000000000000000000000000000000000000000600052603260045260246000fd5b906000526020600020906004020160030160009054906101000a900473ffffffffffffffffffffffffffffffffffffffff16846040518463ffffffff1660e01b815260040161105e93929190611cd4565b602060405180830381600087803b15801561107857600080fd5b505af115801561108c573d6000803e3d6000fd5b505050506040513d601f19601f820116820180604052508101906110b09190611b2c565b50600260009054906101000a900473ffffffffffffffffffffffffffffffffffffffff1673ffffffffffffffffffffffffffffffffffffffff1663f242432a303386866040518563ffffffff1660e01b81526004016111129493929190611d0b565b600060405180830381600087803b15801561112c57600080fd5b505af1158015611140573d6000803e3d6000fd5b50505050816005858154811061117f577f4e487b7100000000000000000000000000000000000000000000000000000000600052603260045260246000fd5b9060005260206000209060040201600101600082825461119f9190611f96565b925050819055506000600585815481106111e2577f4e487b7100000000000000000000000000000000000000000000000000000000600052603260045260246000fd5b90600052602060002090600402016001015414156113bb576000600160058054905061120e9190611f96565b90506005818154811061124a577f4e487b7100000000000000000000000000000000000000000000000000000000600052603260045260246000fd5b90600052602060002090600402016005600081548110611293577f4e487b7100000000000000000000000000000000000000000000000000000000600052603260045260246000fd5b90600052602060002090600402016000820154816000015560018201548160010155600282015481600201556003820160009054906101000a900473ffffffffffffffffffffffffffffffffffffffff168160030160006101000a81548173ffffffffffffffffffffffffffffffffffffffff021916908373ffffffffffffffffffffffffffffffffffffffff1602179055509050506005805480611361577f4e487b7100000000000000000000000000000000000000000000000000000000600052603160045260246000fd5b6001900381819060005260206000209060040201600080820160009055600182016000905560028201600090556003820160006101000a81549073ffffffffffffffffffffffffffffffffffffffff021916905550509055505b50505050565b6000806113cd83611632565b905080915050919050565b600260009054906101000a900473ffffffffffffffffffffffffffffffffffffffff1681565b600063f23a6e6160e01b905095945050505050565b60007f01ffc9a7000000000000000000000000000000000000000000000000000000007bffffffffffffffffffffffffffffffffffffffffffffffffffffffff1916827bffffffffffffffffffffffffffffffffffffffffffffffffffffffff1916149050919050565b60006114876117e7565b600080600090505b6004805490508110156116275784600482815481106114d7577f4e487b7100000000000000000000000000000000000000000000000000000000600052603260045260246000fd5b90600052602060002090600402016000015414156116145782604001516004828154811061152e577f4e487b7100000000000000000000000000000000000000000000000000000000600052603260045260246000fd5b90600052602060002090600402016002015411156116135760048181548110611580577f4e487b7100000000000000000000000000000000000000000000000000000000600052603260045260246000fd5b90600052602060002090600402016040518060800160405290816000820154815260200160018201548152602001600282015481526020016003820160009054906101000a900473ffffffffffffffffffffffffffffffffffffffff1673ffffffffffffffffffffffffffffffffffffffff1673ffffffffffffffffffffffffffffffffffffffff168152505092508091505b5b808061161f906120c6565b91505061148f565b508092505050919050565b600061163c611825565b600080600090505b6005805490508110156117dc57846005828154811061168c577f4e487b7100000000000000000000000000000000000000000000000000000000600052603260045260246000fd5b90600052602060002090600402016000015414156117c9578260400151600582815481106116e3577f4e487b7100000000000000000000000000000000000000000000000000000000600052603260045260246000fd5b90600052602060002090600402016002015410156117c85760058181548110611735577f4e487b7100000000000000000000000000000000000000000000000000000000600052603260045260246000fd5b90600052602060002090600402016040518060800160405290816000820154815260200160018201548152602001600282015481526020016003820160009054906101000a900473ffffffffffffffffffffffffffffffffffffffff1673ffffffffffffffffffffffffffffffffffffffff1673ffffffffffffffffffffffffffffffffffffffff168152505092508091505b5b80806117d4906120c6565b915050611644565b508092505050919050565b6040518060800160405280600081526020016000815260200160008152602001600073ffffffffffffffffffffffffffffffffffffffff1681525090565b6040518060800160405280600081526020016000815260200160008152602001600073ffffffffffffffffffffffffffffffffffffffff1681525090565b600061187661187184611ebd565b611e98565b9050808382526020820190508285602086028201111561189557600080fd5b60005b858110156118c557816118ab88826119a0565b845260208401935060208301925050600181019050611898565b5050509392505050565b60006118e26118dd84611ee9565b611e98565b9050828152602081018484840111156118fa57600080fd5b611905848285612086565b509392505050565b60008135905061191c816121d3565b92915050565b600082601f83011261193357600080fd5b8135611943848260208601611863565b91505092915050565b60008151905061195b816121ea565b92915050565b60008135905061197081612201565b92915050565b600082601f83011261198757600080fd5b81356119978482602086016118cf565b91505092915050565b6000813590506119af81612218565b92915050565b6000602082840312156119c757600080fd5b60006119d58482850161190d565b91505092915050565b600080600080600060a086880312156119f657600080fd5b6000611a048882890161190d565b9550506020611a158882890161190d565b945050604086013567ffffffffffffffff811115611a3257600080fd5b611a3e88828901611922565b935050606086013567ffffffffffffffff811115611a5b57600080fd5b611a6788828901611922565b925050608086013567ffffffffffffffff811115611a8457600080fd5b611a9088828901611976565b9150509295509295909350565b600080600080600060a08688031215611ab557600080fd5b6000611ac38882890161190d565b9550506020611ad48882890161190d565b9450506040611ae5888289016119a0565b9350506060611af6888289016119a0565b925050608086013567ffffffffffffffff811115611b1357600080fd5b611b1f88828901611976565b9150509295509295909350565b600060208284031215611b3e57600080fd5b6000611b4c8482850161194c565b91505092915050565b600060208284031215611b6757600080fd5b6000611b7584828501611961565b91505092915050565b600060208284031215611b9057600080fd5b6000611b9e848285016119a0565b91505092915050565b600080600060608486031215611bbc57600080fd5b6000611bca868287016119a0565b9350506020611bdb868287016119a0565b9250506040611bec868287016119a0565b9150509250925092565b611bff81611fca565b82525050565b611c0e81611fdc565b82525050565b611c1d81611fe8565b82525050565b611c2c8161203e565b82525050565b611c3b81612062565b82525050565b6000611c4e601183611f2b565b9150611c598261217e565b602082019050919050565b6000611c71601083611f2b565b9150611c7c826121a7565b602082019050919050565b6000611c94600083611f1a565b9150611c9f826121d0565b600082019050919050565b611cb381612034565b82525050565b6000602082019050611cce6000830184611bf6565b92915050565b6000606082019050611ce96000830186611bf6565b611cf66020830185611bf6565b611d036040830184611caa565b949350505050565b600060a082019050611d206000830187611bf6565b611d2d6020830186611bf6565b611d3a6040830185611caa565b611d476060830184611caa565b8181036080830152611d5881611c87565b905095945050505050565b6000604082019050611d786000830185611bf6565b611d856020830184611caa565b9392505050565b6000602082019050611da16000830184611c05565b92915050565b6000602082019050611dbc6000830184611c14565b92915050565b6000602082019050611dd76000830184611c23565b92915050565b6000602082019050611df26000830184611c32565b92915050565b60006020820190508181036000830152611e1181611c41565b9050919050565b60006020820190508181036000830152611e3181611c64565b9050919050565b6000602082019050611e4d6000830184611caa565b92915050565b6000608082019050611e686000830187611caa565b611e756020830186611caa565b611e826040830185611caa565b611e8f6060830184611bf6565b95945050505050565b6000611ea2611eb3565b9050611eae8282612095565b919050565b6000604051905090565b600067ffffffffffffffff821115611ed857611ed761213e565b5b602082029050602081019050919050565b600067ffffffffffffffff821115611f0457611f0361213e565b5b611f0d8261216d565b9050602081019050919050565b600082825260208201905092915050565b600082825260208201905092915050565b6000611f4782612034565b9150611f5283612034565b9250817fffffffffffffffffffffffffffffffffffffffffffffffffffffffffffffffff0483118215151615611f8b57611f8a61210f565b5b828202905092915050565b6000611fa182612034565b9150611fac83612034565b925082821015611fbf57611fbe61210f565b5b828203905092915050565b6000611fd582612014565b9050919050565b60008115159050919050565b60007fffffffff0000000000000000000000000000000000000000000000000000000082169050919050565b600073ffffffffffffffffffffffffffffffffffffffff82169050919050565b6000819050919050565b600061204982612050565b9050919050565b600061205b82612014565b9050919050565b600061206d82612074565b9050919050565b600061207f82612014565b9050919050565b82818337600083830152505050565b61209e8261216d565b810181811067ffffffffffffffff821117156120bd576120bc61213e565b5b80604052505050565b60006120d182612034565b91507fffffffffffffffffffffffffffffffffffffffffffffffffffffffffffffffff8214156121045761210361210f565b5b600182019050919050565b7f4e487b7100000000000000000000000000000000000000000000000000000000600052601160045260246000fd5b7f4e487b7100000000000000000000000000000000000000000000000000000000600052604160045260246000fd5b6000601f19601f8301169050919050565b7f4e6f742073656c6c696e6720746861742e000000000000000000000000000000600082015250565b7f4e6f7420627579696e6720746861742e00000000000000000000000000000000600082015250565b50565b6121dc81611fca565b81146121e757600080fd5b50565b6121f381611fdc565b81146121fe57600080fd5b50565b61220a81611fe8565b811461221557600080fd5b50565b61222181612034565b811461222c57600080fd5b5056fea2646970667358221220c43031dd72e699ea1f195c05da5151570784aae162efc72cde4d22a119cc554d64736f6c63430008040033",
  "linkReferences": {},
  "deployedLinkReferences": {}
}