{
  "_format": "hh-sol-artifact-1",
  "contractName": "PixelPlot",
  "sourceName": "contracts/PixelPlot.sol",
  "abi": [
    {
      "inputs": [],
      "stateMutability": "nonpayable",
      "type": "constructor"
    },
    {
      "anonymous": false,
      "inputs": [
        {
          "indexed": true,
          "internalType": "address",
          "name": "owner",
          "type": "address"
        },
        {
          "indexed": true,
          "internalType": "address",
          "name": "approved",
          "type": "address"
        },
        {
          "indexed": true,
          "internalType": "uint256",
          "name": "tokenId",
          "type": "uint256"
        }
      ],
      "name": "Approval",
      "type": "event"
    },
    {
      "anonymous": false,
      "inputs": [
        {
          "indexed": true,
          "internalType": "address",
          "name": "owner",
          "type": "address"
        },
        {
          "indexed": true,
          "internalType": "address",
          "name": "operator",
          "type": "address"
        },
        {
          "indexed": false,
          "internalType": "bool",
          "name": "approved",
          "type": "bool"
        }
      ],
      "name": "ApprovalForAll",
      "type": "event"
    },
    {
      "anonymous": false,
      "inputs": [
        {
          "indexed": true,
          "internalType": "address",
          "name": "previousOwner",
          "type": "address"
        },
        {
          "indexed": true,
          "internalType": "address",
          "name": "newOwner",
          "type": "address"
        }
      ],
      "name": "OwnershipTransferred",
      "type": "event"
    },
    {
      "anonymous": false,
      "inputs": [
        {
          "indexed": true,
          "internalType": "address",
          "name": "from",
          "type": "address"
        },
        {
          "indexed": true,
          "internalType": "address",
          "name": "to",
          "type": "address"
        },
        {
          "indexed": true,
          "internalType": "uint256",
          "name": "tokenId",
          "type": "uint256"
        }
      ],
      "name": "Transfer",
      "type": "event"
    },
    {
      "inputs": [
        {
          "internalType": "address",
          "name": "from",
          "type": "address"
        },
        {
          "internalType": "address",
          "name": "to",
          "type": "address"
        },
        {
          "internalType": "uint256",
          "name": "tokenId",
          "type": "uint256"
        }
      ],
      "name": "_transfer",
      "outputs": [],
      "stateMutability": "nonpayable",
      "type": "function"
    },
    {
      "inputs": [
        {
          "internalType": "address",
          "name": "from",
          "type": "address"
        },
        {
          "internalType": "address",
          "name": "to",
          "type": "address"
        },
        {
          "internalType": "uint256",
          "name": "tokenId",
          "type": "uint256"
        }
      ],
      "name": "_transferFromContract",
      "outputs": [],
      "stateMutability": "nonpayable",
      "type": "function"
    },
    {
      "inputs": [
        {
          "internalType": "address",
          "name": "to",
          "type": "address"
        },
        {
          "internalType": "uint256",
          "name": "tokenId",
          "type": "uint256"
        }
      ],
      "name": "approve",
      "outputs": [],
      "stateMutability": "nonpayable",
      "type": "function"
    },
    {
      "inputs": [],
      "name": "authority",
      "outputs": [
        {
          "internalType": "address",
          "name": "",
          "type": "address"
        }
      ],
      "stateMutability": "view",
      "type": "function"
    },
    {
      "inputs": [
        {
          "internalType": "address",
          "name": "owner",
          "type": "address"
        }
      ],
      "name": "balanceOf",
      "outputs": [
        {
          "internalType": "uint256",
          "name": "",
          "type": "uint256"
        }
      ],
      "stateMutability": "view",
      "type": "function"
    },
    {
      "inputs": [
        {
          "internalType": "address",
          "name": "_contract",
          "type": "address"
        }
      ],
      "name": "contractAuthorized",
      "outputs": [],
      "stateMutability": "nonpayable",
      "type": "function"
    },
    {
      "inputs": [
        {
          "internalType": "uint256",
          "name": "tokenId",
          "type": "uint256"
        }
      ],
      "name": "getApproved",
      "outputs": [
        {
          "internalType": "address",
          "name": "",
          "type": "address"
        }
      ],
      "stateMutability": "view",
      "type": "function"
    },
    {
      "inputs": [
        {
          "internalType": "uint256",
          "name": "id",
          "type": "uint256"
        }
      ],
      "name": "getCoords",
      "outputs": [
        {
          "internalType": "uint256[2][2]",
          "name": "",
          "type": "uint256[2][2]"
        }
      ],
      "stateMutability": "view",
      "type": "function"
    },
    {
      "inputs": [
        {
          "internalType": "address",
          "name": "owner",
          "type": "address"
        },
        {
          "internalType": "address",
          "name": "operator",
          "type": "address"
        }
      ],
      "name": "isApprovedForAll",
      "outputs": [
        {
          "internalType": "bool",
          "name": "",
          "type": "bool"
        }
      ],
      "stateMutability": "view",
      "type": "function"
    },
    {
      "inputs": [
        {
          "internalType": "uint256",
          "name": "to",
          "type": "uint256"
        }
      ],
      "name": "jeongLi",
      "outputs": [],
      "stateMutability": "nonpayable",
      "type": "function"
    },
    {
      "inputs": [],
      "name": "mintAll",
      "outputs": [],
      "stateMutability": "nonpayable",
      "type": "function"
    },
    {
      "inputs": [],
      "name": "name",
      "outputs": [
        {
          "internalType": "string",
          "name": "",
          "type": "string"
        }
      ],
      "stateMutability": "view",
      "type": "function"
    },
    {
      "inputs": [],
      "name": "nextOwnerToExplicitlySet",
      "outputs": [
        {
          "internalType": "uint256",
          "name": "",
          "type": "uint256"
        }
      ],
      "stateMutability": "view",
      "type": "function"
    },
    {
      "inputs": [],
      "name": "owner",
      "outputs": [
        {
          "internalType": "address",
          "name": "",
          "type": "address"
        }
      ],
      "stateMutability": "view",
      "type": "function"
    },
    {
      "inputs": [
        {
          "internalType": "uint256",
          "name": "tokenId",
          "type": "uint256"
        }
      ],
      "name": "ownerOf",
      "outputs": [
        {
          "internalType": "address",
          "name": "",
          "type": "address"
        }
      ],
      "stateMutability": "view",
      "type": "function"
    },
    {
      "inputs": [
        {
          "internalType": "uint256",
          "name": "",
          "type": "uint256"
        }
      ],
      "name": "plots",
      "outputs": [
        {
          "internalType": "address",
          "name": "owner",
          "type": "address"
        },
        {
          "internalType": "bool",
          "name": "forSale",
          "type": "bool"
        }
      ],
      "stateMutability": "view",
      "type": "function"
    },
    {
      "inputs": [],
      "name": "renounceOwnership",
      "outputs": [],
      "stateMutability": "nonpayable",
      "type": "function"
    },
    {
      "inputs": [
        {
          "internalType": "address",
          "name": "from",
          "type": "address"
        },
        {
          "internalType": "address",
          "name": "to",
          "type": "address"
        },
        {
          "internalType": "uint256",
          "name": "tokenId",
          "type": "uint256"
        }
      ],
      "name": "safeTransferFrom",
      "outputs": [],
      "stateMutability": "nonpayable",
      "type": "function"
    },
    {
      "inputs": [
        {
          "internalType": "address",
          "name": "from",
          "type": "address"
        },
        {
          "internalType": "address",
          "name": "to",
          "type": "address"
        },
        {
          "internalType": "uint256",
          "name": "tokenId",
          "type": "uint256"
        },
        {
          "internalType": "bytes",
          "name": "_data",
          "type": "bytes"
        }
      ],
      "name": "safeTransferFrom",
      "outputs": [],
      "stateMutability": "nonpayable",
      "type": "function"
    },
    {
      "inputs": [
        {
          "internalType": "address",
          "name": "operator",
          "type": "address"
        },
        {
          "internalType": "bool",
          "name": "approved",
          "type": "bool"
        }
      ],
      "name": "setApprovalForAll",
      "outputs": [],
      "stateMutability": "nonpayable",
      "type": "function"
    },
    {
      "inputs": [
        {
          "internalType": "bytes4",
          "name": "interfaceId",
          "type": "bytes4"
        }
      ],
      "name": "supportsInterface",
      "outputs": [
        {
          "internalType": "bool",
          "name": "",
          "type": "bool"
        }
      ],
      "stateMutability": "view",
      "type": "function"
    },
    {
      "inputs": [],
      "name": "symbol",
      "outputs": [
        {
          "internalType": "string",
          "name": "",
          "type": "string"
        }
      ],
      "stateMutability": "view",
      "type": "function"
    },
    {
      "inputs": [
        {
          "internalType": "uint256",
          "name": "index",
          "type": "uint256"
        }
      ],
      "name": "tokenByIndex",
      "outputs": [
        {
          "internalType": "uint256",
          "name": "",
          "type": "uint256"
        }
      ],
      "stateMutability": "view",
      "type": "function"
    },
    {
      "inputs": [
        {
          "internalType": "address",
          "name": "owner",
          "type": "address"
        },
        {
          "internalType": "uint256",
          "name": "index",
          "type": "uint256"
        }
      ],
      "name": "tokenOfOwnerByIndex",
      "outputs": [
        {
          "internalType": "uint256",
          "name": "",
          "type": "uint256"
        }
      ],
      "stateMutability": "view",
      "type": "function"
    },
    {
      "inputs": [
        {
          "internalType": "uint256",
          "name": "tokenId",
          "type": "uint256"
        }
      ],
      "name": "tokenURI",
      "outputs": [
        {
          "internalType": "string",
          "name": "",
          "type": "string"
        }
      ],
      "stateMutability": "view",
      "type": "function"
    },
    {
      "inputs": [],
      "name": "totalSupply",
      "outputs": [
        {
          "internalType": "uint256",
          "name": "",
          "type": "uint256"
        }
      ],
      "stateMutability": "view",
      "type": "function"
    },
    {
      "inputs": [
        {
          "internalType": "address",
          "name": "from",
          "type": "address"
        },
        {
          "internalType": "address",
          "name": "to",
          "type": "address"
        },
        {
          "internalType": "uint256",
          "name": "tokenId",
          "type": "uint256"
        }
      ],
      "name": "transferFrom",
      "outputs": [],
      "stateMutability": "nonpayable",
      "type": "function"
    },
    {
      "inputs": [
        {
          "internalType": "address",
          "name": "newOwner",
          "type": "address"
        }
      ],
      "name": "transferOwnership",
      "outputs": [],
      "stateMutability": "nonpayable",
      "type": "function"
    }
  ],
  "bytecode": "0x60c060405260006001556000600a553480156200001b57600080fd5b506040518060400160405280600a81526020017f506978656c20506c6f74000000000000000000000000000000000000000000008152506040518060400160405280600481526020017f504c4f540000000000000000000000000000000000000000000000000000000081525061271080620000ac620000a06200019660201b60201c565b6200019e60201b60201c565b60008111620000f2576040517f08c379a0000000000000000000000000000000000000000000000000000000008152600401620000e9906200050d565b60405180910390fd5b6000821162000138576040517f08c379a00000000000000000000000000000000000000000000000000000000081526004016200012f90620004eb565b60405180910390fd5b836002908051906020019062000150929190620003a8565b50826003908051906020019062000169929190620003a8565b508160a0818152505080608081815250505050505062000190601e6200026260201b60201c565b62000727565b600033905090565b60008060009054906101000a900473ffffffffffffffffffffffffffffffffffffffff169050816000806101000a81548173ffffffffffffffffffffffffffffffffffffffff021916908373ffffffffffffffffffffffffffffffffffffffff1602179055508173ffffffffffffffffffffffffffffffffffffffff168173ffffffffffffffffffffffffffffffffffffffff167f8be0079c531659141344cd1fd0a4f28419497f9722a3daafe3b4186f6b6457e060405160405180910390a35050565b6000806000600190505b838311620003a25760405180604001604052808381526020016000815250600b6000858152602001908152602001600020600101600060028110620002da577f4e487b7100000000000000000000000000000000000000000000000000000000600052603260045260246000fd5b60020201906002620002ee92919062000439565b5060405180604001604052806001815260200182815250600b600085815260200190815260200160002060010160016002811062000355577f4e487b7100000000000000000000000000000000000000000000000000000000600052603260045260246000fd5b600202019060026200036992919062000439565b5060018262000379919062000540565b91506001816200038a919062000540565b905082806200039990620005dd565b9350506200026c565b50505050565b828054620003b690620005a7565b90600052602060002090601f016020900481019282620003da576000855562000426565b82601f10620003f557805160ff191683800117855562000426565b8280016001018555821562000426579182015b828111156200042557825182559160200191906001019062000408565b5b5090506200043591906200047e565b5090565b82600281019282156200046b579160200282015b828111156200046a5782518255916020019190600101906200044d565b5b5090506200047a91906200047e565b5090565b5b80821115620004995760008160009055506001016200047f565b5090565b6000620004ac6027836200052f565b9150620004b98262000689565b604082019050919050565b6000620004d3602e836200052f565b9150620004e082620006d8565b604082019050919050565b6000602082019050818103600083015262000506816200049d565b9050919050565b600060208201905081810360008301526200052881620004c4565b9050919050565b600082825260208201905092915050565b60006200054d826200059d565b91506200055a836200059d565b9250827fffffffffffffffffffffffffffffffffffffffffffffffffffffffffffffffff038211156200059257620005916200062b565b5b828201905092915050565b6000819050919050565b60006002820490506001821680620005c057607f821691505b60208210811415620005d757620005d66200065a565b5b50919050565b6000620005ea826200059d565b91507fffffffffffffffffffffffffffffffffffffffffffffffffffffffffffffffff82141562000620576200061f6200062b565b5b600182019050919050565b7f4e487b7100000000000000000000000000000000000000000000000000000000600052601160045260246000fd5b7f4e487b7100000000000000000000000000000000000000000000000000000000600052602260045260246000fd5b7f455243373231413a206d61782062617463682073697a65206d7573742062652060008201527f6e6f6e7a65726f00000000000000000000000000000000000000000000000000602082015250565b7f455243373231413a20636f6c6c656374696f6e206d757374206861766520612060008201527f6e6f6e7a65726f20737570706c79000000000000000000000000000000000000602082015250565b60805160a051614606620007586000396000818161210d0152818161213601526127e20152600050506146066000f3fe608060405234801561001057600080fd5b50600436106101c45760003560e01c806361bf49ee116100f9578063a22cb46511610097578063c87b56dd11610071578063c87b56dd146104f0578063d7224ba014610520578063e985e9c51461053e578063f2fde38b1461056e576101c4565b8063a22cb4651461049a578063b88d4fde146104b6578063bf7e214f146104d2576101c4565b8063715018a6116100d3578063715018a6146104385780638da5cb5b1461044257806395d89b4114610460578063a0aa7d6f1461047e576101c4565b806361bf49ee146103a75780636352211e146103d857806370a0823114610408576101c4565b80632ca5185a1161016657806342842e0e1161014057806342842e0e146103355780634f6ccce714610351578063595882b314610381578063600c39221461038b576101c4565b80632ca5185a146102cd5780632f745c59146102e957806330e0789e14610319576101c4565b8063081812fc116101a2578063081812fc14610247578063095ea7b31461027757806318160ddd1461029357806323b872dd146102b1576101c4565b806301ffc9a7146101c957806306e43197146101f957806306fdde0314610229575b600080fd5b6101e360048036038101906101de9190613055565b61058a565b6040516101f091906136a4565b60405180910390f35b610213600480360381019061020e91906130a7565b6106d4565b6040516102209190613689565b60405180910390f35b61023161076d565b60405161023e91906136bf565b60405180910390f35b610261600480360381019061025c91906130a7565b6107ff565b60405161026e91906135f9565b60405180910390f35b610291600480360381019061028c9190613019565b610884565b005b61029b61099d565b6040516102a891906139e1565b60405180910390f35b6102cb60048036038101906102c69190612f13565b6109a7565b005b6102e760048036038101906102e29190612f13565b6109b7565b005b61030360048036038101906102fe9190613019565b610dbf565b60405161031091906139e1565b60405180910390f35b610333600480360381019061032e9190612f13565b610fd8565b005b61034f600480360381019061034a9190612f13565b6115e3565b005b61036b600480360381019061036691906130a7565b611603565b60405161037891906139e1565b60405180910390f35b610389611656565b005b6103a560048036038101906103a09190612eae565b611663565b005b6103c160048036038101906103bc91906130a7565b611712565b6040516103cf929190613660565b60405180910390f35b6103f260048036038101906103ed91906130a7565b611763565b6040516103ff91906135f9565b60405180910390f35b610422600480360381019061041d9190612eae565b611779565b60405161042f91906139e1565b60405180910390f35b610440611862565b005b61044a6118ea565b60405161045791906135f9565b60405180910390f35b610468611913565b60405161047591906136bf565b60405180910390f35b610498600480360381019061049391906130a7565b6119a5565b005b6104b460048036038101906104af9190612fdd565b611add565b005b6104d060048036038101906104cb9190612f62565b611c5e565b005b6104da611cba565b6040516104e791906135f9565b60405180910390f35b61050a600480360381019061050591906130a7565b611ce0565b60405161051791906136bf565b60405180910390f35b610528611df5565b60405161053591906139e1565b60405180910390f35b61055860048036038101906105539190612ed7565b611dfb565b60405161056591906136a4565b60405180910390f35b61058860048036038101906105839190612eae565b611e8f565b005b60007f80ac58cd000000000000000000000000000000000000000000000000000000007bffffffffffffffffffffffffffffffffffffffffffffffffffffffff1916827bffffffffffffffffffffffffffffffffffffffffffffffffffffffff1916148061065557507f5b5e139f000000000000000000000000000000000000000000000000000000007bffffffffffffffffffffffffffffffffffffffffffffffffffffffff1916827bffffffffffffffffffffffffffffffffffffffffffffffffffffffff1916145b806106bd57507f780e9d63000000000000000000000000000000000000000000000000000000007bffffffffffffffffffffffffffffffffffffffffffffffffffffffff1916827bffffffffffffffffffffffffffffffffffffffffffffffffffffffff1916145b806106cd57506106cc82611f87565b5b9050919050565b6106dc612cee565b600b6000838152602001908152602001600020600101600280602002604051908101604052809291906000905b828210156107625783826002020160028060200260405190810160405280929190826002801561074e576020028201915b81548152602001906001019080831161073a575b505050505081526020019060010190610709565b505050509050919050565b60606002805461077c90613d20565b80601f01602080910402602001604051908101604052809291908181526020018280546107a890613d20565b80156107f55780601f106107ca576101008083540402835291602001916107f5565b820191906000526020600020905b8154815290600101906020018083116107d857829003601f168201915b5050505050905090565b600061080a82611ff1565b610849576040517f08c379a0000000000000000000000000000000000000000000000000000000008152600401610840906139a1565b60405180910390fd5b6007600083815260200190815260200160002060009054906101000a900473ffffffffffffffffffffffffffffffffffffffff169050919050565b600061088f82611763565b90508073ffffffffffffffffffffffffffffffffffffffff168373ffffffffffffffffffffffffffffffffffffffff161415610900576040517f08c379a00000000000000000000000000000000000000000000000000000000081526004016108f7906138e1565b60405180910390fd5b8073ffffffffffffffffffffffffffffffffffffffff1661091f611fff565b73ffffffffffffffffffffffffffffffffffffffff16148061094e575061094d81610948611fff565b611dfb565b5b61098d576040517f08c379a0000000000000000000000000000000000000000000000000000000008152600401610984906137e1565b60405180910390fd5b610998838383612007565b505050565b6000600154905090565b6109b2838383610fd8565b505050565b8273ffffffffffffffffffffffffffffffffffffffff166109d782611763565b73ffffffffffffffffffffffffffffffffffffffff1614610a2d576040517f08c379a0000000000000000000000000000000000000000000000000000000008152600401610a2490613741565b60405180910390fd5b600960019054906101000a900473ffffffffffffffffffffffffffffffffffffffff1673ffffffffffffffffffffffffffffffffffffffff168373ffffffffffffffffffffffffffffffffffffffff1614610abd576040517f08c379a0000000000000000000000000000000000000000000000000000000008152600401610ab4906138c1565b60405180910390fd5b600073ffffffffffffffffffffffffffffffffffffffff168273ffffffffffffffffffffffffffffffffffffffff161415610b2d576040517f08c379a0000000000000000000000000000000000000000000000000000000008152600401610b24906137c1565b60405180910390fd5b60405180606001604052808373ffffffffffffffffffffffffffffffffffffffff1681526020014267ffffffffffffffff168152602001600015158152506005600083815260200190815260200160002060008201518160000160006101000a81548173ffffffffffffffffffffffffffffffffffffffff021916908373ffffffffffffffffffffffffffffffffffffffff16021790555060208201518160000160146101000a81548167ffffffffffffffff021916908367ffffffffffffffff160217905550604082015181600001601c6101000a81548160ff0219169083151502179055509050506001600660008473ffffffffffffffffffffffffffffffffffffffff1673ffffffffffffffffffffffffffffffffffffffff16815260200190815260200160002060000160008282829054906101000a90046fffffffffffffffffffffffffffffffff16610c859190613aef565b92506101000a8154816fffffffffffffffffffffffffffffffff02191690836fffffffffffffffffffffffffffffffff1602179055506001600660008573ffffffffffffffffffffffffffffffffffffffff1673ffffffffffffffffffffffffffffffffffffffff16815260200190815260200160002060000160008282829054906101000a90046fffffffffffffffffffffffffffffffff16610d299190613bbc565b92506101000a8154816fffffffffffffffffffffffffffffffff02191690836fffffffffffffffffffffffffffffffff160217905550808273ffffffffffffffffffffffffffffffffffffffff168473ffffffffffffffffffffffffffffffffffffffff167fddf252ad1be2c89b69c2b068fc378daa952ba7f163c4a11628f55a4df523b3ef60405160405180910390a4505050565b6000610dca83611779565b8210610e0b576040517f08c379a0000000000000000000000000000000000000000000000000000000008152600401610e02906136e1565b60405180910390fd5b6000610e1561099d565b905060008060005b83811015610f96576000600560008381526020019081526020016000206040518060600160405290816000820160009054906101000a900473ffffffffffffffffffffffffffffffffffffffff1673ffffffffffffffffffffffffffffffffffffffff1673ffffffffffffffffffffffffffffffffffffffff1681526020016000820160149054906101000a900467ffffffffffffffff1667ffffffffffffffff1667ffffffffffffffff16815260200160008201601c9054906101000a900460ff1615151515815250509050600073ffffffffffffffffffffffffffffffffffffffff16816000015173ffffffffffffffffffffffffffffffffffffffff1614610f2a57806000015192505b8773ffffffffffffffffffffffffffffffffffffffff168373ffffffffffffffffffffffffffffffffffffffff161415610f825786841415610f73578195505050505050610fd2565b8380610f7e90613d83565b9450505b508080610f8e90613d83565b915050610e1d565b506040517f08c379a0000000000000000000000000000000000000000000000000000000008152600401610fc990613961565b60405180910390fd5b92915050565b6000610fe3826120b9565b90506000816000015173ffffffffffffffffffffffffffffffffffffffff1661100a611fff565b73ffffffffffffffffffffffffffffffffffffffff161480611066575061102f611fff565b73ffffffffffffffffffffffffffffffffffffffff1661104e846107ff565b73ffffffffffffffffffffffffffffffffffffffff16145b806110825750611081826000015161107c611fff565b611dfb565b5b9050806110c4576040517f08c379a00000000000000000000000000000000000000000000000000000000081526004016110bb906138a1565b60405180910390fd5b8473ffffffffffffffffffffffffffffffffffffffff16826000015173ffffffffffffffffffffffffffffffffffffffff1614611136576040517f08c379a000000000000000000000000000000000000000000000000000000000815260040161112d90613821565b60405180910390fd5b600073ffffffffffffffffffffffffffffffffffffffff168473ffffffffffffffffffffffffffffffffffffffff1614156111a6576040517f08c379a000000000000000000000000000000000000000000000000000000000815260040161119d906137a1565b60405180910390fd5b6111b385858560016122d7565b6111c36000848460000151612007565b6001600660008773ffffffffffffffffffffffffffffffffffffffff1673ffffffffffffffffffffffffffffffffffffffff16815260200190815260200160002060000160008282829054906101000a90046fffffffffffffffffffffffffffffffff166112319190613bbc565b92506101000a8154816fffffffffffffffffffffffffffffffff02191690836fffffffffffffffffffffffffffffffff1602179055506001600660008673ffffffffffffffffffffffffffffffffffffffff1673ffffffffffffffffffffffffffffffffffffffff16815260200190815260200160002060000160008282829054906101000a90046fffffffffffffffffffffffffffffffff166112d59190613aef565b92506101000a8154816fffffffffffffffffffffffffffffffff02191690836fffffffffffffffffffffffffffffffff16021790555060405180606001604052808573ffffffffffffffffffffffffffffffffffffffff1681526020014267ffffffffffffffff168152602001600015158152506005600085815260200190815260200160002060008201518160000160006101000a81548173ffffffffffffffffffffffffffffffffffffffff021916908373ffffffffffffffffffffffffffffffffffffffff16021790555060208201518160000160146101000a81548167ffffffffffffffff021916908367ffffffffffffffff160217905550604082015181600001601c6101000a81548160ff02191690831515021790555090505060006001846114049190613b35565b9050600073ffffffffffffffffffffffffffffffffffffffff166005600083815260200190815260200160002060000160009054906101000a900473ffffffffffffffffffffffffffffffffffffffff1673ffffffffffffffffffffffffffffffffffffffff1614156115735761147a81611ff1565b15611572576040518060600160405280846000015173ffffffffffffffffffffffffffffffffffffffff168152602001846020015167ffffffffffffffff168152602001600015158152506005600083815260200190815260200160002060008201518160000160006101000a81548173ffffffffffffffffffffffffffffffffffffffff021916908373ffffffffffffffffffffffffffffffffffffffff16021790555060208201518160000160146101000a81548167ffffffffffffffff021916908367ffffffffffffffff160217905550604082015181600001601c6101000a81548160ff0219169083151502179055509050505b5b838573ffffffffffffffffffffffffffffffffffffffff168773ffffffffffffffffffffffffffffffffffffffff167fddf252ad1be2c89b69c2b068fc378daa952ba7f163c4a11628f55a4df523b3ef60405160405180910390a46115db86868660016122dd565b505050505050565b6115fe83838360405180602001604052806000815250611c5e565b505050565b600061160d61099d565b821061164e576040517f08c379a000000000000000000000000000000000000000000000000000000000815260040161164590613781565b60405180910390fd5b819050919050565b6116613360646122e3565b565b600960009054906101000a900460ff16156116b3576040517f08c379a00000000000000000000000000000000000000000000000000000000081526004016116aa90613701565b60405180910390fd5b80600960016101000a81548173ffffffffffffffffffffffffffffffffffffffff021916908373ffffffffffffffffffffffffffffffffffffffff1602179055506001600960006101000a81548160ff02191690831515021790555050565b600b6020528060005260406000206000915090508060000160009054906101000a900473ffffffffffffffffffffffffffffffffffffffff16908060050160009054906101000a900460ff16905082565b600061176e826120b9565b600001519050919050565b60008073ffffffffffffffffffffffffffffffffffffffff168273ffffffffffffffffffffffffffffffffffffffff1614156117ea576040517f08c379a00000000000000000000000000000000000000000000000000000000081526004016117e190613801565b60405180910390fd5b600660008373ffffffffffffffffffffffffffffffffffffffff1673ffffffffffffffffffffffffffffffffffffffff16815260200190815260200160002060000160009054906101000a90046fffffffffffffffffffffffffffffffff166fffffffffffffffffffffffffffffffff169050919050565b61186a611fff565b73ffffffffffffffffffffffffffffffffffffffff166118886118ea565b73ffffffffffffffffffffffffffffffffffffffff16146118de576040517f08c379a00000000000000000000000000000000000000000000000000000000081526004016118d590613841565b60405180910390fd5b6118e86000612301565b565b60008060009054906101000a900473ffffffffffffffffffffffffffffffffffffffff16905090565b60606003805461192290613d20565b80601f016020809104026020016040519081016040528092919081815260200182805461194e90613d20565b801561199b5780601f106119705761010080835404028352916020019161199b565b820191906000526020600020905b81548152906001019060200180831161197e57829003601f168201915b5050505050905090565b6000806000600190505b838311611ad75760405180604001604052808381526020016000815250600b6000858152602001908152602001600020600101600060028110611a1b577f4e487b7100000000000000000000000000000000000000000000000000000000600052603260045260246000fd5b60020201906002611a2d929190612d1b565b5060405180604001604052806001815260200182815250600b6000858152602001908152602001600020600101600160028110611a93577f4e487b7100000000000000000000000000000000000000000000000000000000600052603260045260246000fd5b60020201906002611aa5929190612d1b565b50600182611ab39190613b35565b9150600181611ac29190613b35565b90508280611acf90613d83565b9350506119af565b50505050565b611ae5611fff565b73ffffffffffffffffffffffffffffffffffffffff168273ffffffffffffffffffffffffffffffffffffffff161415611b53576040517f08c379a0000000000000000000000000000000000000000000000000000000008152600401611b4a90613881565b60405180910390fd5b8060086000611b60611fff565b73ffffffffffffffffffffffffffffffffffffffff1673ffffffffffffffffffffffffffffffffffffffff16815260200190815260200160002060008473ffffffffffffffffffffffffffffffffffffffff1673ffffffffffffffffffffffffffffffffffffffff16815260200190815260200160002060006101000a81548160ff0219169083151502179055508173ffffffffffffffffffffffffffffffffffffffff16611c0d611fff565b73ffffffffffffffffffffffffffffffffffffffff167f17307eab39ab6107e8899845ad3d59bd9653f200f220920489ca2b5937696c3183604051611c5291906136a4565b60405180910390a35050565b611c69848484610fd8565b611c75848484846123c5565b611cb4576040517f08c379a0000000000000000000000000000000000000000000000000000000008152600401611cab90613901565b60405180910390fd5b50505050565b600960019054906101000a900473ffffffffffffffffffffffffffffffffffffffff1681565b6060611ceb82611ff1565b611d2a576040517f08c379a0000000000000000000000000000000000000000000000000000000008152600401611d2190613861565b60405180910390fd5b6001151560056000848152602001908152602001600020600001601c9054906101000a900460ff1615151415611d97576040518060400160405280600481526020017f44656164000000000000000000000000000000000000000000000000000000008152509050611df0565b6000611da161255c565b90506000815111611dc15760405180602001604052806000815250611dec565b80611dcb84612573565b604051602001611ddc9291906135d5565b6040516020818303038152906040525b9150505b919050565b600a5481565b6000600860008473ffffffffffffffffffffffffffffffffffffffff1673ffffffffffffffffffffffffffffffffffffffff16815260200190815260200160002060008373ffffffffffffffffffffffffffffffffffffffff1673ffffffffffffffffffffffffffffffffffffffff16815260200190815260200160002060009054906101000a900460ff16905092915050565b611e97611fff565b73ffffffffffffffffffffffffffffffffffffffff16611eb56118ea565b73ffffffffffffffffffffffffffffffffffffffff1614611f0b576040517f08c379a0000000000000000000000000000000000000000000000000000000008152600401611f0290613841565b60405180910390fd5b600073ffffffffffffffffffffffffffffffffffffffff168173ffffffffffffffffffffffffffffffffffffffff161415611f7b576040517f08c379a0000000000000000000000000000000000000000000000000000000008152600401611f7290613721565b60405180910390fd5b611f8481612301565b50565b60007f01ffc9a7000000000000000000000000000000000000000000000000000000007bffffffffffffffffffffffffffffffffffffffffffffffffffffffff1916827bffffffffffffffffffffffffffffffffffffffffffffffffffffffff1916149050919050565b600060015482109050919050565b600033905090565b826007600084815260200190815260200160002060006101000a81548173ffffffffffffffffffffffffffffffffffffffff021916908373ffffffffffffffffffffffffffffffffffffffff160217905550818373ffffffffffffffffffffffffffffffffffffffff168273ffffffffffffffffffffffffffffffffffffffff167f8c5be1e5ebec7d5bd14f71427d1e84f3dd0314c0f7b2291e5b200ac8c7c3b92560405160405180910390a4505050565b6120c1612d5b565b6120ca82611ff1565b612109576040517f08c379a000000000000000000000000000000000000000000000000000000000815260040161210090613761565b60405180910390fd5b60007f0000000000000000000000000000000000000000000000000000000000000000831061216d5760017f0000000000000000000000000000000000000000000000000000000000000000846121609190613bf0565b61216a9190613b35565b90505b60008390505b818110612296576000600560008381526020019081526020016000206040518060600160405290816000820160009054906101000a900473ffffffffffffffffffffffffffffffffffffffff1673ffffffffffffffffffffffffffffffffffffffff1673ffffffffffffffffffffffffffffffffffffffff1681526020016000820160149054906101000a900467ffffffffffffffff1667ffffffffffffffff1667ffffffffffffffff16815260200160008201601c9054906101000a900460ff1615151515815250509050600073ffffffffffffffffffffffffffffffffffffffff16816000015173ffffffffffffffffffffffffffffffffffffffff1614612282578093505050506122d2565b50808061228e90613cf6565b915050612173565b506040517f08c379a00000000000000000000000000000000000000000000000000000000081526004016122c990613981565b60405180910390fd5b919050565b50505050565b50505050565b6122fd828260405180602001604052806000815250612720565b5050565b60008060009054906101000a900473ffffffffffffffffffffffffffffffffffffffff169050816000806101000a81548173ffffffffffffffffffffffffffffffffffffffff021916908373ffffffffffffffffffffffffffffffffffffffff1602179055508173ffffffffffffffffffffffffffffffffffffffff168173ffffffffffffffffffffffffffffffffffffffff167f8be0079c531659141344cd1fd0a4f28419497f9722a3daafe3b4186f6b6457e060405160405180910390a35050565b60006123e68473ffffffffffffffffffffffffffffffffffffffff16612ccb565b1561254f578373ffffffffffffffffffffffffffffffffffffffff1663150b7a0261240f611fff565b8786866040518563ffffffff1660e01b81526004016124319493929190613614565b602060405180830381600087803b15801561244b57600080fd5b505af192505050801561247c57506040513d601f19601f82011682018060405250810190612479919061307e565b60015b6124ff573d80600081146124ac576040519150601f19603f3d011682016040523d82523d6000602084013e6124b1565b606091505b506000815114156124f7576040517f08c379a00000000000000000000000000000000000000000000000000000000081526004016124ee90613901565b60405180910390fd5b805181602001fd5b63150b7a0260e01b7bffffffffffffffffffffffffffffffffffffffffffffffffffffffff1916817bffffffffffffffffffffffffffffffffffffffffffffffffffffffff191614915050612554565b600190505b949350505050565b606060405180602001604052806000815250905090565b606060008214156125bb576040518060400160405280600181526020017f3000000000000000000000000000000000000000000000000000000000000000815250905061271b565b600082905060005b600082146125ed5780806125d690613d83565b915050600a826125e69190613b8b565b91506125c3565b60008167ffffffffffffffff81111561262f577f4e487b7100000000000000000000000000000000000000000000000000000000600052604160045260246000fd5b6040519080825280601f01601f1916602001820160405280156126615781602001600182028036833780820191505090505b5090505b600085146127145760018261267a9190613bf0565b9150600a856126899190613dcc565b60306126959190613b35565b60f81b8183815181106126d1577f4e487b7100000000000000000000000000000000000000000000000000000000600052603260045260246000fd5b60200101907effffffffffffffffffffffffffffffffffffffffffffffffffffffffffffff1916908160001a905350600a8561270d9190613b8b565b9450612665565b8093505050505b919050565b60006001549050600073ffffffffffffffffffffffffffffffffffffffff168473ffffffffffffffffffffffffffffffffffffffff161415612797576040517f08c379a000000000000000000000000000000000000000000000000000000000815260040161278e90613941565b60405180910390fd5b6127a081611ff1565b156127e0576040517f08c379a00000000000000000000000000000000000000000000000000000000081526004016127d790613921565b60405180910390fd5b7f0000000000000000000000000000000000000000000000000000000000000000831115612843576040517f08c379a000000000000000000000000000000000000000000000000000000000815260040161283a906139c1565b60405180910390fd5b61285060008583866122d7565b6000600660008673ffffffffffffffffffffffffffffffffffffffff1673ffffffffffffffffffffffffffffffffffffffff1681526020019081526020016000206040518060600160405290816000820160009054906101000a90046fffffffffffffffffffffffffffffffff166fffffffffffffffffffffffffffffffff166fffffffffffffffffffffffffffffffff1681526020016000820160109054906101000a90046fffffffffffffffffffffffffffffffff166fffffffffffffffffffffffffffffffff166fffffffffffffffffffffffffffffffff1681526020016001820160009054906101000a90046fffffffffffffffffffffffffffffffff166fffffffffffffffffffffffffffffffff166fffffffffffffffffffffffffffffffff1681525050905060405180606001604052808583600001516129979190613aef565b6fffffffffffffffffffffffffffffffff1681526020018583602001516129be9190613aef565b6fffffffffffffffffffffffffffffffff16815260200160006fffffffffffffffffffffffffffffffff16815250600660008773ffffffffffffffffffffffffffffffffffffffff1673ffffffffffffffffffffffffffffffffffffffff16815260200190815260200160002060008201518160000160006101000a8154816fffffffffffffffffffffffffffffffff02191690836fffffffffffffffffffffffffffffffff16021790555060208201518160000160106101000a8154816fffffffffffffffffffffffffffffffff02191690836fffffffffffffffffffffffffffffffff16021790555060408201518160010160006101000a8154816fffffffffffffffffffffffffffffffff02191690836fffffffffffffffffffffffffffffffff16021790555090505060405180606001604052808673ffffffffffffffffffffffffffffffffffffffff1681526020014267ffffffffffffffff168152602001600015158152506005600084815260200190815260200160002060008201518160000160006101000a81548173ffffffffffffffffffffffffffffffffffffffff021916908373ffffffffffffffffffffffffffffffffffffffff16021790555060208201518160000160146101000a81548167ffffffffffffffff021916908367ffffffffffffffff160217905550604082015181600001601c6101000a81548160ff021916908315150217905550905050600082905060005b85811015612cae57818773ffffffffffffffffffffffffffffffffffffffff16600073ffffffffffffffffffffffffffffffffffffffff167fddf252ad1be2c89b69c2b068fc378daa952ba7f163c4a11628f55a4df523b3ef60405160405180910390a4612c4e60008884886123c5565b612c8d576040517f08c379a0000000000000000000000000000000000000000000000000000000008152600401612c8490613901565b60405180910390fd5b8180612c9890613d83565b9250508080612ca690613d83565b915050612bdd565b5080600181905550612cc360008785886122dd565b505050505050565b6000808273ffffffffffffffffffffffffffffffffffffffff163b119050919050565b60405180604001604052806002905b612d05612d9e565b815260200190600190039081612cfd5790505090565b8260028101928215612d4a579160200282015b82811115612d49578251825591602001919060010190612d2e565b5b509050612d579190612dc0565b5090565b6040518060600160405280600073ffffffffffffffffffffffffffffffffffffffff168152602001600067ffffffffffffffff1681526020016000151581525090565b6040518060400160405280600290602082028036833780820191505090505090565b5b80821115612dd9576000816000905550600101612dc1565b5090565b6000612df0612deb84613a21565b6139fc565b905082815260208101848484011115612e0857600080fd5b612e13848285613cb4565b509392505050565b600081359050612e2a81614574565b92915050565b600081359050612e3f8161458b565b92915050565b600081359050612e54816145a2565b92915050565b600081519050612e69816145a2565b92915050565b600082601f830112612e8057600080fd5b8135612e90848260208601612ddd565b91505092915050565b600081359050612ea8816145b9565b92915050565b600060208284031215612ec057600080fd5b6000612ece84828501612e1b565b91505092915050565b60008060408385031215612eea57600080fd5b6000612ef885828601612e1b565b9250506020612f0985828601612e1b565b9150509250929050565b600080600060608486031215612f2857600080fd5b6000612f3686828701612e1b565b9350506020612f4786828701612e1b565b9250506040612f5886828701612e99565b9150509250925092565b60008060008060808587031215612f7857600080fd5b6000612f8687828801612e1b565b9450506020612f9787828801612e1b565b9350506040612fa887828801612e99565b925050606085013567ffffffffffffffff811115612fc557600080fd5b612fd187828801612e6f565b91505092959194509250565b60008060408385031215612ff057600080fd5b6000612ffe85828601612e1b565b925050602061300f85828601612e30565b9150509250929050565b6000806040838503121561302c57600080fd5b600061303a85828601612e1b565b925050602061304b85828601612e99565b9150509250929050565b60006020828403121561306757600080fd5b600061307584828501612e45565b91505092915050565b60006020828403121561309057600080fd5b600061309e84828501612e5a565b91505092915050565b6000602082840312156130b957600080fd5b60006130c784828501612e99565b91505092915050565b60006130dc8383613166565b60408301905092915050565b60006130f483836135b7565b60208301905092915050565b61310981613c24565b82525050565b61311881613a66565b6131228184613aac565b925061312d82613a52565b8060005b8381101561315e57815161314587826130d0565b965061315083613a92565b925050600181019050613131565b505050505050565b61316f81613a71565b6131798184613ab7565b925061318482613a5c565b8060005b838110156131b557815161319c87826130e8565b96506131a783613a9f565b925050600181019050613188565b505050505050565b6131c681613c36565b82525050565b60006131d782613a7c565b6131e18185613ac2565b93506131f1818560208601613cc3565b6131fa81613eb9565b840191505092915050565b600061321082613a87565b61321a8185613ad3565b935061322a818560208601613cc3565b61323381613eb9565b840191505092915050565b600061324982613a87565b6132538185613ae4565b9350613263818560208601613cc3565b80840191505092915050565b600061327c602283613ad3565b915061328782613eca565b604082019050919050565b600061329f600c83613ad3565b91506132aa82613f19565b602082019050919050565b60006132c2602683613ad3565b91506132cd82613f42565b604082019050919050565b60006132e5602583613ad3565b91506132f082613f91565b604082019050919050565b6000613308602a83613ad3565b915061331382613fe0565b604082019050919050565b600061332b602383613ad3565b91506133368261402f565b604082019050919050565b600061334e602583613ad3565b91506133598261407e565b604082019050919050565b6000613371602483613ad3565b915061337c826140cd565b604082019050919050565b6000613394603983613ad3565b915061339f8261411c565b604082019050919050565b60006133b7602b83613ad3565b91506133c28261416b565b604082019050919050565b60006133da602683613ad3565b91506133e5826141ba565b604082019050919050565b60006133fd602083613ad3565b915061340882614209565b602082019050919050565b6000613420602f83613ad3565b915061342b82614232565b604082019050919050565b6000613443601a83613ad3565b915061344e82614281565b602082019050919050565b6000613466603283613ad3565b9150613471826142aa565b604082019050919050565b6000613489600f83613ad3565b9150613494826142f9565b602082019050919050565b60006134ac602283613ad3565b91506134b782614322565b604082019050919050565b60006134cf603383613ad3565b91506134da82614371565b604082019050919050565b60006134f2601d83613ad3565b91506134fd826143c0565b602082019050919050565b6000613515602183613ad3565b9150613520826143e9565b604082019050919050565b6000613538602e83613ad3565b915061354382614438565b604082019050919050565b600061355b602f83613ad3565b915061356682614487565b604082019050919050565b600061357e602d83613ad3565b9150613589826144d6565b604082019050919050565b60006135a1602283613ad3565b91506135ac82614525565b604082019050919050565b6135c081613caa565b82525050565b6135cf81613caa565b82525050565b60006135e1828561323e565b91506135ed828461323e565b91508190509392505050565b600060208201905061360e6000830184613100565b92915050565b60006080820190506136296000830187613100565b6136366020830186613100565b61364360408301856135c6565b818103606083015261365581846131cc565b905095945050505050565b60006040820190506136756000830185613100565b61368260208301846131bd565b9392505050565b600060808201905061369e600083018461310f565b92915050565b60006020820190506136b960008301846131bd565b92915050565b600060208201905081810360008301526136d98184613205565b905092915050565b600060208201905081810360008301526136fa8161326f565b9050919050565b6000602082019050818103600083015261371a81613292565b9050919050565b6000602082019050818103600083015261373a816132b5565b9050919050565b6000602082019050818103600083015261375a816132d8565b9050919050565b6000602082019050818103600083015261377a816132fb565b9050919050565b6000602082019050818103600083015261379a8161331e565b9050919050565b600060208201905081810360008301526137ba81613341565b9050919050565b600060208201905081810360008301526137da81613364565b9050919050565b600060208201905081810360008301526137fa81613387565b9050919050565b6000602082019050818103600083015261381a816133aa565b9050919050565b6000602082019050818103600083015261383a816133cd565b9050919050565b6000602082019050818103600083015261385a816133f0565b9050919050565b6000602082019050818103600083015261387a81613413565b9050919050565b6000602082019050818103600083015261389a81613436565b9050919050565b600060208201905081810360008301526138ba81613459565b9050919050565b600060208201905081810360008301526138da8161347c565b9050919050565b600060208201905081810360008301526138fa8161349f565b9050919050565b6000602082019050818103600083015261391a816134c2565b9050919050565b6000602082019050818103600083015261393a816134e5565b9050919050565b6000602082019050818103600083015261395a81613508565b9050919050565b6000602082019050818103600083015261397a8161352b565b9050919050565b6000602082019050818103600083015261399a8161354e565b9050919050565b600060208201905081810360008301526139ba81613571565b9050919050565b600060208201905081810360008301526139da81613594565b9050919050565b60006020820190506139f660008301846135c6565b92915050565b6000613a06613a17565b9050613a128282613d52565b919050565b6000604051905090565b600067ffffffffffffffff821115613a3c57613a3b613e8a565b5b613a4582613eb9565b9050602081019050919050565b6000819050919050565b6000819050919050565b600060029050919050565b600060029050919050565b600081519050919050565b600081519050919050565b6000602082019050919050565b6000602082019050919050565b600081905092915050565b600081905092915050565b600082825260208201905092915050565b600082825260208201905092915050565b600081905092915050565b6000613afa82613c6e565b9150613b0583613c6e565b9250826fffffffffffffffffffffffffffffffff03821115613b2a57613b29613dfd565b5b828201905092915050565b6000613b4082613caa565b9150613b4b83613caa565b9250827fffffffffffffffffffffffffffffffffffffffffffffffffffffffffffffffff03821115613b8057613b7f613dfd565b5b828201905092915050565b6000613b9682613caa565b9150613ba183613caa565b925082613bb157613bb0613e2c565b5b828204905092915050565b6000613bc782613c6e565b9150613bd283613c6e565b925082821015613be557613be4613dfd565b5b828203905092915050565b6000613bfb82613caa565b9150613c0683613caa565b925082821015613c1957613c18613dfd565b5b828203905092915050565b6000613c2f82613c8a565b9050919050565b60008115159050919050565b60007fffffffff0000000000000000000000000000000000000000000000000000000082169050919050565b60006fffffffffffffffffffffffffffffffff82169050919050565b600073ffffffffffffffffffffffffffffffffffffffff82169050919050565b6000819050919050565b82818337600083830152505050565b60005b83811015613ce1578082015181840152602081019050613cc6565b83811115613cf0576000848401525b50505050565b6000613d0182613caa565b91506000821415613d1557613d14613dfd565b5b600182039050919050565b60006002820490506001821680613d3857607f821691505b60208210811415613d4c57613d4b613e5b565b5b50919050565b613d5b82613eb9565b810181811067ffffffffffffffff82111715613d7a57613d79613e8a565b5b80604052505050565b6000613d8e82613caa565b91507fffffffffffffffffffffffffffffffffffffffffffffffffffffffffffffffff821415613dc157613dc0613dfd565b5b600182019050919050565b6000613dd782613caa565b9150613de283613caa565b925082613df257613df1613e2c565b5b828206905092915050565b7f4e487b7100000000000000000000000000000000000000000000000000000000600052601160045260246000fd5b7f4e487b7100000000000000000000000000000000000000000000000000000000600052601260045260246000fd5b7f4e487b7100000000000000000000000000000000000000000000000000000000600052602260045260246000fd5b7f4e487b7100000000000000000000000000000000000000000000000000000000600052604160045260246000fd5b6000601f19601f8301169050919050565b7f455243373231413a206f776e657220696e646578206f7574206f6620626f756e60008201527f6473000000000000000000000000000000000000000000000000000000000000602082015250565b7f416c7265616479207365742e0000000000000000000000000000000000000000600082015250565b7f4f776e61626c653a206e6577206f776e657220697320746865207a65726f206160008201527f6464726573730000000000000000000000000000000000000000000000000000602082015250565b7f4552433732313a207472616e736665722066726f6d20696e636f72726563742060008201527f6f776e6572000000000000000000000000000000000000000000000000000000602082015250565b7f455243373231413a206f776e657220717565727920666f72206e6f6e6578697360008201527f74656e7420746f6b656e00000000000000000000000000000000000000000000602082015250565b7f455243373231413a20676c6f62616c20696e646578206f7574206f6620626f7560008201527f6e64730000000000000000000000000000000000000000000000000000000000602082015250565b7f455243373231413a207472616e7366657220746f20746865207a65726f20616460008201527f6472657373000000000000000000000000000000000000000000000000000000602082015250565b7f4552433732313a207472616e7366657220746f20746865207a65726f2061646460008201527f7265737300000000000000000000000000000000000000000000000000000000602082015250565b7f455243373231413a20617070726f76652063616c6c6572206973206e6f74206f60008201527f776e6572206e6f7220617070726f76656420666f7220616c6c00000000000000602082015250565b7f455243373231413a2062616c616e636520717565727920666f7220746865207a60008201527f65726f2061646472657373000000000000000000000000000000000000000000602082015250565b7f455243373231413a207472616e736665722066726f6d20696e636f727265637460008201527f206f776e65720000000000000000000000000000000000000000000000000000602082015250565b7f4f776e61626c653a2063616c6c6572206973206e6f7420746865206f776e6572600082015250565b7f4552433732314d657461646174613a2055524920717565727920666f72206e6f60008201527f6e6578697374656e7420746f6b656e0000000000000000000000000000000000602082015250565b7f455243373231413a20617070726f766520746f2063616c6c6572000000000000600082015250565b7f455243373231413a207472616e736665722063616c6c6572206973206e6f742060008201527f6f776e6572206e6f7220617070726f7665640000000000000000000000000000602082015250565b7f57726f6e6720636f6e74726163742e0000000000000000000000000000000000600082015250565b7f455243373231413a20617070726f76616c20746f2063757272656e74206f776e60008201527f6572000000000000000000000000000000000000000000000000000000000000602082015250565b7f455243373231413a207472616e7366657220746f206e6f6e204552433732315260008201527f6563656976657220696d706c656d656e74657200000000000000000000000000602082015250565b7f455243373231413a20746f6b656e20616c7265616479206d696e746564000000600082015250565b7f455243373231413a206d696e7420746f20746865207a65726f2061646472657360008201527f7300000000000000000000000000000000000000000000000000000000000000602082015250565b7f455243373231413a20756e61626c6520746f2067657420746f6b656e206f662060008201527f6f776e657220627920696e646578000000000000000000000000000000000000602082015250565b7f455243373231413a20756e61626c6520746f2064657465726d696e652074686560008201527f206f776e6572206f6620746f6b656e0000000000000000000000000000000000602082015250565b7f455243373231413a20617070726f76656420717565727920666f72206e6f6e6560008201527f78697374656e7420746f6b656e00000000000000000000000000000000000000602082015250565b7f455243373231413a207175616e7469747920746f206d696e7420746f6f20686960008201527f6768000000000000000000000000000000000000000000000000000000000000602082015250565b61457d81613c24565b811461458857600080fd5b50565b61459481613c36565b811461459f57600080fd5b50565b6145ab81613c42565b81146145b657600080fd5b50565b6145c281613caa565b81146145cd57600080fd5b5056fea2646970667358221220287bb3f132bff9d1ed8bd5290ed70453b76881a43c50f19396e8032a361abbe764736f6c63430008040033",
  "linkReferences": {},
  "deployedLinkReferences": {}
}