{
  "_format": "hh-sol-artifact-1",
  "contractName": "DungeonKey",
  "sourceName": "contracts/DungeonKey.sol",
  "abi": [
    {
      "inputs": [],
      "stateMutability": "nonpayable",
      "type": "constructor"
    },
    {
      "anonymous": false,
      "inputs": [
        {
          "indexed": true,
          "internalType": "address",
          "name": "account",
          "type": "address"
        },
        {
          "indexed": true,
          "internalType": "address",
          "name": "operator",
          "type": "address"
        },
        {
          "indexed": false,
          "internalType": "bool",
          "name": "approved",
          "type": "bool"
        }
      ],
      "name": "ApprovalForAll",
      "type": "event"
    },
    {
      "anonymous": false,
      "inputs": [
        {
          "indexed": false,
          "internalType": "uint256",
          "name": "highestBid",
          "type": "uint256"
        },
        {
          "indexed": false,
          "internalType": "uint256",
          "name": "finishTime",
          "type": "uint256"
        }
      ],
      "name": "AuctionFinished",
      "type": "event"
    },
    {
      "anonymous": false,
      "inputs": [
        {
          "indexed": false,
          "internalType": "uint256",
          "name": "keyId",
          "type": "uint256"
        },
        {
          "indexed": false,
          "internalType": "uint256",
          "name": "amount",
          "type": "uint256"
        },
        {
          "indexed": false,
          "internalType": "uint256",
          "name": "startBid",
          "type": "uint256"
        },
        {
          "indexed": false,
          "internalType": "uint256",
          "name": "durationDays",
          "type": "uint256"
        }
      ],
      "name": "AuctionStarted",
      "type": "event"
    },
    {
      "anonymous": false,
      "inputs": [
        {
          "indexed": false,
          "internalType": "uint256",
          "name": "highestBid",
          "type": "uint256"
        }
      ],
      "name": "NewHighestBid",
      "type": "event"
    },
    {
      "anonymous": false,
      "inputs": [
        {
          "indexed": false,
          "internalType": "string",
          "name": "name",
          "type": "string"
        },
        {
          "indexed": false,
          "internalType": "uint256",
          "name": "amount",
          "type": "uint256"
        },
        {
          "indexed": false,
          "internalType": "uint256",
          "name": "timestamp",
          "type": "uint256"
        }
      ],
      "name": "NewKeySet",
      "type": "event"
    },
    {
      "anonymous": false,
      "inputs": [
        {
          "indexed": true,
          "internalType": "address",
          "name": "previousOwner",
          "type": "address"
        },
        {
          "indexed": true,
          "internalType": "address",
          "name": "newOwner",
          "type": "address"
        }
      ],
      "name": "OwnershipTransferred",
      "type": "event"
    },
    {
      "anonymous": false,
      "inputs": [
        {
          "indexed": true,
          "internalType": "address",
          "name": "operator",
          "type": "address"
        },
        {
          "indexed": true,
          "internalType": "address",
          "name": "from",
          "type": "address"
        },
        {
          "indexed": true,
          "internalType": "address",
          "name": "to",
          "type": "address"
        },
        {
          "indexed": false,
          "internalType": "uint256[]",
          "name": "ids",
          "type": "uint256[]"
        },
        {
          "indexed": false,
          "internalType": "uint256[]",
          "name": "values",
          "type": "uint256[]"
        }
      ],
      "name": "TransferBatch",
      "type": "event"
    },
    {
      "anonymous": false,
      "inputs": [
        {
          "indexed": true,
          "internalType": "address",
          "name": "operator",
          "type": "address"
        },
        {
          "indexed": true,
          "internalType": "address",
          "name": "from",
          "type": "address"
        },
        {
          "indexed": true,
          "internalType": "address",
          "name": "to",
          "type": "address"
        },
        {
          "indexed": false,
          "internalType": "uint256",
          "name": "id",
          "type": "uint256"
        },
        {
          "indexed": false,
          "internalType": "uint256",
          "name": "value",
          "type": "uint256"
        }
      ],
      "name": "TransferSingle",
      "type": "event"
    },
    {
      "anonymous": false,
      "inputs": [
        {
          "indexed": false,
          "internalType": "string",
          "name": "value",
          "type": "string"
        },
        {
          "indexed": true,
          "internalType": "uint256",
          "name": "id",
          "type": "uint256"
        }
      ],
      "name": "URI",
      "type": "event"
    },
    {
      "inputs": [],
      "name": "auction",
      "outputs": [
        {
          "internalType": "uint256",
          "name": "highestBid",
          "type": "uint256"
        },
        {
          "internalType": "address",
          "name": "highestBidder",
          "type": "address"
        },
        {
          "internalType": "uint256",
          "name": "startBid",
          "type": "uint256"
        },
        {
          "internalType": "uint256",
          "name": "startTime",
          "type": "uint256"
        },
        {
          "internalType": "uint256",
          "name": "finishTime",
          "type": "uint256"
        },
        {
          "internalType": "uint256",
          "name": "keyId",
          "type": "uint256"
        }
      ],
      "stateMutability": "view",
      "type": "function"
    },
    {
      "inputs": [
        {
          "internalType": "address",
          "name": "account",
          "type": "address"
        },
        {
          "internalType": "uint256",
          "name": "id",
          "type": "uint256"
        }
      ],
      "name": "balanceOf",
      "outputs": [
        {
          "internalType": "uint256",
          "name": "",
          "type": "uint256"
        }
      ],
      "stateMutability": "view",
      "type": "function"
    },
    {
      "inputs": [
        {
          "internalType": "address[]",
          "name": "accounts",
          "type": "address[]"
        },
        {
          "internalType": "uint256[]",
          "name": "ids",
          "type": "uint256[]"
        }
      ],
      "name": "balanceOfBatch",
      "outputs": [
        {
          "internalType": "uint256[]",
          "name": "",
          "type": "uint256[]"
        }
      ],
      "stateMutability": "view",
      "type": "function"
    },
    {
      "inputs": [
        {
          "internalType": "uint256",
          "name": "amountPixel",
          "type": "uint256"
        }
      ],
      "name": "bidOnAuction",
      "outputs": [],
      "stateMutability": "nonpayable",
      "type": "function"
    },
    {
      "inputs": [
        {
          "internalType": "uint256",
          "name": "basePrice",
          "type": "uint256"
        },
        {
          "internalType": "uint256",
          "name": "duration",
          "type": "uint256"
        },
        {
          "internalType": "uint256",
          "name": "keySetId",
          "type": "uint256"
        },
        {
          "internalType": "uint256",
          "name": "amount",
          "type": "uint256"
        }
      ],
      "name": "dungeonKeyAuction",
      "outputs": [],
      "stateMutability": "nonpayable",
      "type": "function"
    },
    {
      "inputs": [
        {
          "internalType": "uint256",
          "name": "",
          "type": "uint256"
        }
      ],
      "name": "dungeonKeys",
      "outputs": [
        {
          "internalType": "string",
          "name": "",
          "type": "string"
        }
      ],
      "stateMutability": "view",
      "type": "function"
    },
    {
      "inputs": [],
      "name": "forceAuctionEnd",
      "outputs": [],
      "stateMutability": "nonpayable",
      "type": "function"
    },
    {
      "inputs": [
        {
          "internalType": "address",
          "name": "account",
          "type": "address"
        },
        {
          "internalType": "address",
          "name": "operator",
          "type": "address"
        }
      ],
      "name": "isApprovedForAll",
      "outputs": [
        {
          "internalType": "bool",
          "name": "",
          "type": "bool"
        }
      ],
      "stateMutability": "view",
      "type": "function"
    },
    {
      "inputs": [
        {
          "internalType": "uint256",
          "name": "amount",
          "type": "uint256"
        },
        {
          "internalType": "string",
          "name": "name",
          "type": "string"
        }
      ],
      "name": "mintNewKeySet",
      "outputs": [],
      "stateMutability": "nonpayable",
      "type": "function"
    },
    {
      "inputs": [],
      "name": "owner",
      "outputs": [
        {
          "internalType": "address",
          "name": "",
          "type": "address"
        }
      ],
      "stateMutability": "view",
      "type": "function"
    },
    {
      "inputs": [],
      "name": "pixel",
      "outputs": [
        {
          "internalType": "contract IERC20",
          "name": "",
          "type": "address"
        }
      ],
      "stateMutability": "view",
      "type": "function"
    },
    {
      "inputs": [],
      "name": "renounceOwnership",
      "outputs": [],
      "stateMutability": "nonpayable",
      "type": "function"
    },
    {
      "inputs": [
        {
          "internalType": "address",
          "name": "from",
          "type": "address"
        },
        {
          "internalType": "address",
          "name": "to",
          "type": "address"
        },
        {
          "internalType": "uint256[]",
          "name": "ids",
          "type": "uint256[]"
        },
        {
          "internalType": "uint256[]",
          "name": "amounts",
          "type": "uint256[]"
        },
        {
          "internalType": "bytes",
          "name": "data",
          "type": "bytes"
        }
      ],
      "name": "safeBatchTransferFrom",
      "outputs": [],
      "stateMutability": "nonpayable",
      "type": "function"
    },
    {
      "inputs": [
        {
          "internalType": "address",
          "name": "from",
          "type": "address"
        },
        {
          "internalType": "address",
          "name": "to",
          "type": "address"
        },
        {
          "internalType": "uint256",
          "name": "id",
          "type": "uint256"
        },
        {
          "internalType": "uint256",
          "name": "amount",
          "type": "uint256"
        },
        {
          "internalType": "bytes",
          "name": "data",
          "type": "bytes"
        }
      ],
      "name": "safeTransferFrom",
      "outputs": [],
      "stateMutability": "nonpayable",
      "type": "function"
    },
    {
      "inputs": [
        {
          "internalType": "address",
          "name": "operator",
          "type": "address"
        },
        {
          "internalType": "bool",
          "name": "approved",
          "type": "bool"
        }
      ],
      "name": "setApprovalForAll",
      "outputs": [],
      "stateMutability": "nonpayable",
      "type": "function"
    },
    {
      "inputs": [
        {
          "internalType": "bytes4",
          "name": "interfaceId",
          "type": "bytes4"
        }
      ],
      "name": "supportsInterface",
      "outputs": [
        {
          "internalType": "bool",
          "name": "",
          "type": "bool"
        }
      ],
      "stateMutability": "view",
      "type": "function"
    },
    {
      "inputs": [
        {
          "internalType": "address",
          "name": "newOwner",
          "type": "address"
        }
      ],
      "name": "transferOwnership",
      "outputs": [],
      "stateMutability": "nonpayable",
      "type": "function"
    },
    {
      "inputs": [
        {
          "internalType": "uint256",
          "name": "",
          "type": "uint256"
        }
      ],
      "name": "uri",
      "outputs": [
        {
          "internalType": "string",
          "name": "",
          "type": "string"
        }
      ],
      "stateMutability": "view",
      "type": "function"
    },
    {
      "inputs": [],
      "name": "withdrawPixel",
      "outputs": [],
      "stateMutability": "nonpayable",
      "type": "function"
    }
  ],
  "bytecode": "0x60806040523480156200001157600080fd5b506040518060400160405280600c81526020017f44756e67656f6e204b657973000000000000000000000000000000000000000081525062000059816200008060201b60201c565b506200007a6200006e6200009c60201b60201c565b620000a460201b60201c565b6200027f565b8060029080519060200190620000989291906200016a565b5050565b600033905090565b6000600360009054906101000a900473ffffffffffffffffffffffffffffffffffffffff16905081600360006101000a81548173ffffffffffffffffffffffffffffffffffffffff021916908373ffffffffffffffffffffffffffffffffffffffff1602179055508173ffffffffffffffffffffffffffffffffffffffff168173ffffffffffffffffffffffffffffffffffffffff167f8be0079c531659141344cd1fd0a4f28419497f9722a3daafe3b4186f6b6457e060405160405180910390a35050565b82805462000178906200021a565b90600052602060002090601f0160209004810192826200019c5760008555620001e8565b82601f10620001b757805160ff1916838001178555620001e8565b82800160010185558215620001e8579182015b82811115620001e7578251825591602001919060010190620001ca565b5b509050620001f79190620001fb565b5090565b5b8082111562000216576000816000905550600101620001fc565b5090565b600060028204905060018216806200023357607f821691505b602082108114156200024a576200024962000250565b5b50919050565b7f4e487b7100000000000000000000000000000000000000000000000000000000600052602260045260246000fd5b613a17806200028f6000396000f3fe608060405234801561001057600080fd5b50600436106101205760003560e01c80636fbe0eeb116100ad578063a22cb46511610071578063a22cb465146102d2578063da9612c0146102ee578063e985e9c51461031e578063f242432a1461034e578063f2fde38b1461036a57610120565b80636fbe0eeb1461024d578063715018a6146102695780637d9f6db5146102735780638cd295c2146102965780638da5cb5b146102b457610120565b806326b7aeea116100f457806326b7aeea146101d15780632eb2c2d6146101ed5780634e1273f4146102095780635dfb13f0146102395780635f1558811461024357610120565b8062fdd58e1461012557806301ffc9a7146101555780630d665ce5146101855780630e89341c146101a1575b600080fd5b61013f600480360381019061013a919061270c565b610386565b60405161014c9190612fd5565b60405180910390f35b61016f600480360381019061016a91906127dd565b61044f565b60405161017c9190612d9f565b60405180910390f35b61019f600480360381019061019a9190612858565b610531565b005b6101bb60048036038101906101b6919061282f565b61064d565b6040516101c89190612dd5565b60405180910390f35b6101eb60048036038101906101e6919061282f565b6106e1565b005b61020760048036038101906102029190612582565b610845565b005b610223600480360381019061021e9190612748565b6108e6565b6040516102309190612d46565b60405180910390f35b610241610a97565b005b61024b610b66565b005b610267600480360381019061026291906128ac565b610c6a565b005b610271610e37565b005b61027b610ebf565b60405161028d96959493929190612ff0565b60405180910390f35b61029e610f09565b6040516102ab9190612dba565b60405180910390f35b6102bc610f2f565b6040516102c99190612c09565b60405180910390f35b6102ec60048036038101906102e791906126d0565b610f59565b005b6103086004803603810190610303919061282f565b610f6f565b6040516103159190612dd5565b60405180910390f35b61033860048036038101906103339190612546565b61100f565b6040516103459190612d9f565b60405180910390f35b61036860048036038101906103639190612641565b6110a3565b005b610384600480360381019061037f919061251d565b611144565b005b60008073ffffffffffffffffffffffffffffffffffffffff168373ffffffffffffffffffffffffffffffffffffffff1614156103f7576040517f08c379a00000000000000000000000000000000000000000000000000000000081526004016103ee90612e75565b60405180910390fd5b60008083815260200190815260200160002060008473ffffffffffffffffffffffffffffffffffffffff1673ffffffffffffffffffffffffffffffffffffffff16815260200190815260200160002054905092915050565b60007fd9b67a26000000000000000000000000000000000000000000000000000000007bffffffffffffffffffffffffffffffffffffffffffffffffffffffff1916827bffffffffffffffffffffffffffffffffffffffffffffffffffffffff1916148061051a57507f0e89341c000000000000000000000000000000000000000000000000000000007bffffffffffffffffffffffffffffffffffffffffffffffffffffffff1916827bffffffffffffffffffffffffffffffffffffffffffffffffffffffff1916145b8061052a57506105298261123c565b5b9050919050565b6105396112a6565b73ffffffffffffffffffffffffffffffffffffffff16610557610f2f565b73ffffffffffffffffffffffffffffffffffffffff16146105ad576040517f08c379a00000000000000000000000000000000000000000000000000000000081526004016105a490612f35565b60405180910390fd5b6105ca3360055484604051806020016040528060008152506112ae565b80600c6000600554815260200190815260200160002090805190602001906105f3929190612200565b50600160056000828254610607919061320f565b925050819055507f7fa7673abd21a99573b0bf2ade45d2996d918d4bd7295c2e3958145abdde3f0f81834260405161064193929190612df7565b60405180910390a15050565b60606002805461065c90613399565b80601f016020809104026020016040519081016040528092919081815260200182805461068890613399565b80156106d55780601f106106aa576101008083540402835291602001916106d5565b820191906000526020600020905b8154815290600101906020018083116106b857829003601f168201915b50505050509050919050565b60066004015442106106f257600080fd5b600660000154811161070357600080fd5b61070b611444565b33600660010160006101000a81548173ffffffffffffffffffffffffffffffffffffffff021916908373ffffffffffffffffffffffffffffffffffffffff16021790555080600660000181905550600460009054906101000a900473ffffffffffffffffffffffffffffffffffffffff1673ffffffffffffffffffffffffffffffffffffffff166323b872dd3330846040518463ffffffff1660e01b81526004016107b893929190612c8c565b602060405180830381600087803b1580156107d257600080fd5b505af11580156107e6573d6000803e3d6000fd5b505050506040513d601f19601f8201168201806040525081019061080a91906127b4565b507f23f3acabb13c556e1821b6fa118f248735eef764d93d3fe9c9682ad9ab95ef918160405161083a9190612fd5565b60405180910390a150565b61084d6112a6565b73ffffffffffffffffffffffffffffffffffffffff168573ffffffffffffffffffffffffffffffffffffffff16148061089357506108928561088d6112a6565b61100f565b5b6108d2576040517f08c379a00000000000000000000000000000000000000000000000000000000081526004016108c990612ef5565b60405180910390fd5b6108df858585858561152c565b5050505050565b6060815183511461092c576040517f08c379a000000000000000000000000000000000000000000000000000000000815260040161092390612f75565b60405180910390fd5b6000835167ffffffffffffffff81111561096f577f4e487b7100000000000000000000000000000000000000000000000000000000600052604160045260246000fd5b60405190808252806020026020018201604052801561099d5781602001602082028036833780820191505090505b50905060005b8451811015610a8c57610a368582815181106109e8577f4e487b7100000000000000000000000000000000000000000000000000000000600052603260045260246000fd5b6020026020010151858381518110610a29577f4e487b7100000000000000000000000000000000000000000000000000000000600052603260045260246000fd5b6020026020010151610386565b828281518110610a6f577f4e487b7100000000000000000000000000000000000000000000000000000000600052603260045260246000fd5b60200260200101818152505080610a85906133fc565b90506109a3565b508091505092915050565b6006600401544210610aa857600080fd5b600460009054906101000a900473ffffffffffffffffffffffffffffffffffffffff1673ffffffffffffffffffffffffffffffffffffffff1663a9059cbb610aee610f2f565b6006600001546040518363ffffffff1660e01b8152600401610b11929190612d1d565b602060405180830381600087803b158015610b2b57600080fd5b505af1158015610b3f573d6000803e3d6000fd5b505050506040513d601f19601f82011682018060405250810190610b6391906127b4565b50565b610b6e6112a6565b73ffffffffffffffffffffffffffffffffffffffff16610b8c610f2f565b73ffffffffffffffffffffffffffffffffffffffff1614610be2576040517f08c379a0000000000000000000000000000000000000000000000000000000008152600401610bd990612f35565b60405180910390fd5b60006006600401819055506000610bfe30600660050154610386565b9050610c21303360066005015484604051806020016040528060008152506110a3565b610c29610a97565b7fa26f614dfadbd6fab0e2c34abdab71ad292b06a4b47d63fda8dc3ccb85cb520960066000015442604051610c5f929190613051565b60405180910390a150565b610c726112a6565b73ffffffffffffffffffffffffffffffffffffffff16610c90610f2f565b73ffffffffffffffffffffffffffffffffffffffff1614610ce6576040517f08c379a0000000000000000000000000000000000000000000000000000000008152600401610cdd90612f35565b60405180910390fd5b6006600401544210610cf757600080fd5b60006040518060c00160405280600081526020013373ffffffffffffffffffffffffffffffffffffffff1681526020018681526020014281526020016201518086610d429190613265565b42610d4d919061320f565b81526020018481525090508060066000820151816000015560208201518160010160006101000a81548173ffffffffffffffffffffffffffffffffffffffff021916908373ffffffffffffffffffffffffffffffffffffffff16021790555060408201518160020155606082015181600301556080820151816004015560a08201518160050155905050610df333308585604051806020016040528060008152506110a3565b7fa832766a05f1bd0298b0268308621777cfe1e4eea23afe7c06beea79bc6ddd2d83838787604051610e28949392919061307a565b60405180910390a15050505050565b610e3f6112a6565b73ffffffffffffffffffffffffffffffffffffffff16610e5d610f2f565b73ffffffffffffffffffffffffffffffffffffffff1614610eb3576040517f08c379a0000000000000000000000000000000000000000000000000000000008152600401610eaa90612f35565b60405180910390fd5b610ebd600061188c565b565b60068060000154908060010160009054906101000a900473ffffffffffffffffffffffffffffffffffffffff16908060020154908060030154908060040154908060050154905086565b600460009054906101000a900473ffffffffffffffffffffffffffffffffffffffff1681565b6000600360009054906101000a900473ffffffffffffffffffffffffffffffffffffffff16905090565b610f6b610f646112a6565b8383611952565b5050565b600c6020528060005260406000206000915090508054610f8e90613399565b80601f0160208091040260200160405190810160405280929190818152602001828054610fba90613399565b80156110075780601f10610fdc57610100808354040283529160200191611007565b820191906000526020600020905b815481529060010190602001808311610fea57829003601f168201915b505050505081565b6000600160008473ffffffffffffffffffffffffffffffffffffffff1673ffffffffffffffffffffffffffffffffffffffff16815260200190815260200160002060008373ffffffffffffffffffffffffffffffffffffffff1673ffffffffffffffffffffffffffffffffffffffff16815260200190815260200160002060009054906101000a900460ff16905092915050565b6110ab6112a6565b73ffffffffffffffffffffffffffffffffffffffff168573ffffffffffffffffffffffffffffffffffffffff1614806110f157506110f0856110eb6112a6565b61100f565b5b611130576040517f08c379a000000000000000000000000000000000000000000000000000000000815260040161112790612eb5565b60405180910390fd5b61113d8585858585611abf565b5050505050565b61114c6112a6565b73ffffffffffffffffffffffffffffffffffffffff1661116a610f2f565b73ffffffffffffffffffffffffffffffffffffffff16146111c0576040517f08c379a00000000000000000000000000000000000000000000000000000000081526004016111b790612f35565b60405180910390fd5b600073ffffffffffffffffffffffffffffffffffffffff168173ffffffffffffffffffffffffffffffffffffffff161415611230576040517f08c379a000000000000000000000000000000000000000000000000000000000815260040161122790612e95565b60405180910390fd5b6112398161188c565b50565b60007f01ffc9a7000000000000000000000000000000000000000000000000000000007bffffffffffffffffffffffffffffffffffffffffffffffffffffffff1916827bffffffffffffffffffffffffffffffffffffffffffffffffffffffff1916149050919050565b600033905090565b600073ffffffffffffffffffffffffffffffffffffffff168473ffffffffffffffffffffffffffffffffffffffff16141561131e576040517f08c379a000000000000000000000000000000000000000000000000000000000815260040161131590612fb5565b60405180910390fd5b60006113286112a6565b90506113498160008761133a88611d41565b61134388611d41565b87611e07565b8260008086815260200190815260200160002060008773ffffffffffffffffffffffffffffffffffffffff1673ffffffffffffffffffffffffffffffffffffffff16815260200190815260200160002060008282546113a8919061320f565b925050819055508473ffffffffffffffffffffffffffffffffffffffff16600073ffffffffffffffffffffffffffffffffffffffff168273ffffffffffffffffffffffffffffffffffffffff167fc3d58168c5ae7397731d063d5bbf3d657854427343f4c083240f7aacaa2d0f628787604051611426929190613051565b60405180910390a461143d81600087878787611e0f565b5050505050565b6000600660010160009054906101000a900473ffffffffffffffffffffffffffffffffffffffff16905060006006600001549050600460009054906101000a900473ffffffffffffffffffffffffffffffffffffffff1673ffffffffffffffffffffffffffffffffffffffff1663a9059cbb83836040518363ffffffff1660e01b81526004016114d5929190612d1d565b602060405180830381600087803b1580156114ef57600080fd5b505af1158015611503573d6000803e3d6000fd5b505050506040513d601f19601f8201168201806040525081019061152791906127b4565b505050565b8151835114611570576040517f08c379a000000000000000000000000000000000000000000000000000000000815260040161156790612f95565b60405180910390fd5b600073ffffffffffffffffffffffffffffffffffffffff168473ffffffffffffffffffffffffffffffffffffffff1614156115e0576040517f08c379a00000000000000000000000000000000000000000000000000000000081526004016115d790612ed5565b60405180910390fd5b60006115ea6112a6565b90506115fa818787878787611e07565b60005b84518110156117f7576000858281518110611641577f4e487b7100000000000000000000000000000000000000000000000000000000600052603260045260246000fd5b602002602001015190506000858381518110611686577f4e487b7100000000000000000000000000000000000000000000000000000000600052603260045260246000fd5b60200260200101519050600080600084815260200190815260200160002060008b73ffffffffffffffffffffffffffffffffffffffff1673ffffffffffffffffffffffffffffffffffffffff16815260200190815260200160002054905081811015611727576040517f08c379a000000000000000000000000000000000000000000000000000000000815260040161171e90612f15565b60405180910390fd5b81810360008085815260200190815260200160002060008c73ffffffffffffffffffffffffffffffffffffffff1673ffffffffffffffffffffffffffffffffffffffff168152602001908152602001600020819055508160008085815260200190815260200160002060008b73ffffffffffffffffffffffffffffffffffffffff1673ffffffffffffffffffffffffffffffffffffffff16815260200190815260200160002060008282546117dc919061320f565b92505081905550505050806117f0906133fc565b90506115fd565b508473ffffffffffffffffffffffffffffffffffffffff168673ffffffffffffffffffffffffffffffffffffffff168273ffffffffffffffffffffffffffffffffffffffff167f4a39dc06d4c0dbc64b70af90fd698a233a518aa5d07e595d983b8c0526c8f7fb878760405161186e929190612d68565b60405180910390a4611884818787878787611ff6565b505050505050565b6000600360009054906101000a900473ffffffffffffffffffffffffffffffffffffffff16905081600360006101000a81548173ffffffffffffffffffffffffffffffffffffffff021916908373ffffffffffffffffffffffffffffffffffffffff1602179055508173ffffffffffffffffffffffffffffffffffffffff168173ffffffffffffffffffffffffffffffffffffffff167f8be0079c531659141344cd1fd0a4f28419497f9722a3daafe3b4186f6b6457e060405160405180910390a35050565b8173ffffffffffffffffffffffffffffffffffffffff168373ffffffffffffffffffffffffffffffffffffffff1614156119c1576040517f08c379a00000000000000000000000000000000000000000000000000000000081526004016119b890612f55565b60405180910390fd5b80600160008573ffffffffffffffffffffffffffffffffffffffff1673ffffffffffffffffffffffffffffffffffffffff16815260200190815260200160002060008473ffffffffffffffffffffffffffffffffffffffff1673ffffffffffffffffffffffffffffffffffffffff16815260200190815260200160002060006101000a81548160ff0219169083151502179055508173ffffffffffffffffffffffffffffffffffffffff168373ffffffffffffffffffffffffffffffffffffffff167f17307eab39ab6107e8899845ad3d59bd9653f200f220920489ca2b5937696c3183604051611ab29190612d9f565b60405180910390a3505050565b600073ffffffffffffffffffffffffffffffffffffffff168473ffffffffffffffffffffffffffffffffffffffff161415611b2f576040517f08c379a0000000000000000000000000000000000000000000000000000000008152600401611b2690612ed5565b60405180910390fd5b6000611b396112a6565b9050611b59818787611b4a88611d41565b611b5388611d41565b87611e07565b600080600086815260200190815260200160002060008873ffffffffffffffffffffffffffffffffffffffff1673ffffffffffffffffffffffffffffffffffffffff16815260200190815260200160002054905083811015611bf0576040517f08c379a0000000000000000000000000000000000000000000000000000000008152600401611be790612f15565b60405180910390fd5b83810360008087815260200190815260200160002060008973ffffffffffffffffffffffffffffffffffffffff1673ffffffffffffffffffffffffffffffffffffffff168152602001908152602001600020819055508360008087815260200190815260200160002060008873ffffffffffffffffffffffffffffffffffffffff1673ffffffffffffffffffffffffffffffffffffffff1681526020019081526020016000206000828254611ca5919061320f565b925050819055508573ffffffffffffffffffffffffffffffffffffffff168773ffffffffffffffffffffffffffffffffffffffff168373ffffffffffffffffffffffffffffffffffffffff167fc3d58168c5ae7397731d063d5bbf3d657854427343f4c083240f7aacaa2d0f628888604051611d22929190613051565b60405180910390a4611d38828888888888611e0f565b50505050505050565b60606000600167ffffffffffffffff811115611d86577f4e487b7100000000000000000000000000000000000000000000000000000000600052604160045260246000fd5b604051908082528060200260200182016040528015611db45781602001602082028036833780820191505090505b5090508281600081518110611df2577f4e487b7100000000000000000000000000000000000000000000000000000000600052603260045260246000fd5b60200260200101818152505080915050919050565b505050505050565b611e2e8473ffffffffffffffffffffffffffffffffffffffff166121dd565b15611fee578373ffffffffffffffffffffffffffffffffffffffff1663f23a6e6187878686866040518663ffffffff1660e01b8152600401611e74959493929190612cc3565b602060405180830381600087803b158015611e8e57600080fd5b505af1925050508015611ebf57506040513d601f19601f82011682018060405250810190611ebc9190612806565b60015b611f6557611ecb6134d2565b806308c379a01415611f285750611ee06138ef565b80611eeb5750611f2a565b806040517f08c379a0000000000000000000000000000000000000000000000000000000008152600401611f1f9190612dd5565b60405180910390fd5b505b6040517f08c379a0000000000000000000000000000000000000000000000000000000008152600401611f5c90612e35565b60405180910390fd5b63f23a6e6160e01b7bffffffffffffffffffffffffffffffffffffffffffffffffffffffff1916817bffffffffffffffffffffffffffffffffffffffffffffffffffffffff191614611fec576040517f08c379a0000000000000000000000000000000000000000000000000000000008152600401611fe390612e55565b60405180910390fd5b505b505050505050565b6120158473ffffffffffffffffffffffffffffffffffffffff166121dd565b156121d5578373ffffffffffffffffffffffffffffffffffffffff1663bc197c8187878686866040518663ffffffff1660e01b815260040161205b959493929190612c24565b602060405180830381600087803b15801561207557600080fd5b505af19250505080156120a657506040513d601f19601f820116820180604052508101906120a39190612806565b60015b61214c576120b26134d2565b806308c379a0141561210f57506120c76138ef565b806120d25750612111565b806040517f08c379a00000000000000000000000000000000000000000000000000000000081526004016121069190612dd5565b60405180910390fd5b505b6040517f08c379a000000000000000000000000000000000000000000000000000000000815260040161214390612e35565b60405180910390fd5b63bc197c8160e01b7bffffffffffffffffffffffffffffffffffffffffffffffffffffffff1916817bffffffffffffffffffffffffffffffffffffffffffffffffffffffff1916146121d3576040517f08c379a00000000000000000000000000000000000000000000000000000000081526004016121ca90612e55565b60405180910390fd5b505b505050505050565b6000808273ffffffffffffffffffffffffffffffffffffffff163b119050919050565b82805461220c90613399565b90600052602060002090601f01602090048101928261222e5760008555612275565b82601f1061224757805160ff1916838001178555612275565b82800160010185558215612275579182015b82811115612274578251825591602001919060010190612259565b5b5090506122829190612286565b5090565b5b8082111561229f576000816000905550600101612287565b5090565b60006122b66122b1846130e4565b6130bf565b905080838252602082019050828560208602820111156122d557600080fd5b60005b8581101561230557816122eb88826123f7565b8452602084019350602083019250506001810190506122d8565b5050509392505050565b600061232261231d84613110565b6130bf565b9050808382526020820190508285602086028201111561234157600080fd5b60005b8581101561237157816123578882612508565b845260208401935060208301925050600181019050612344565b5050509392505050565b600061238e6123898461313c565b6130bf565b9050828152602081018484840111156123a657600080fd5b6123b1848285613357565b509392505050565b60006123cc6123c78461316d565b6130bf565b9050828152602081018484840111156123e457600080fd5b6123ef848285613357565b509392505050565b60008135905061240681613985565b92915050565b600082601f83011261241d57600080fd5b813561242d8482602086016122a3565b91505092915050565b600082601f83011261244757600080fd5b813561245784826020860161230f565b91505092915050565b60008135905061246f8161399c565b92915050565b6000815190506124848161399c565b92915050565b600081359050612499816139b3565b92915050565b6000815190506124ae816139b3565b92915050565b600082601f8301126124c557600080fd5b81356124d584826020860161237b565b91505092915050565b600082601f8301126124ef57600080fd5b81356124ff8482602086016123b9565b91505092915050565b600081359050612517816139ca565b92915050565b60006020828403121561252f57600080fd5b600061253d848285016123f7565b91505092915050565b6000806040838503121561255957600080fd5b6000612567858286016123f7565b9250506020612578858286016123f7565b9150509250929050565b600080600080600060a0868803121561259a57600080fd5b60006125a8888289016123f7565b95505060206125b9888289016123f7565b945050604086013567ffffffffffffffff8111156125d657600080fd5b6125e288828901612436565b935050606086013567ffffffffffffffff8111156125ff57600080fd5b61260b88828901612436565b925050608086013567ffffffffffffffff81111561262857600080fd5b612634888289016124b4565b9150509295509295909350565b600080600080600060a0868803121561265957600080fd5b6000612667888289016123f7565b9550506020612678888289016123f7565b945050604061268988828901612508565b935050606061269a88828901612508565b925050608086013567ffffffffffffffff8111156126b757600080fd5b6126c3888289016124b4565b9150509295509295909350565b600080604083850312156126e357600080fd5b60006126f1858286016123f7565b925050602061270285828601612460565b9150509250929050565b6000806040838503121561271f57600080fd5b600061272d858286016123f7565b925050602061273e85828601612508565b9150509250929050565b6000806040838503121561275b57600080fd5b600083013567ffffffffffffffff81111561277557600080fd5b6127818582860161240c565b925050602083013567ffffffffffffffff81111561279e57600080fd5b6127aa85828601612436565b9150509250929050565b6000602082840312156127c657600080fd5b60006127d484828501612475565b91505092915050565b6000602082840312156127ef57600080fd5b60006127fd8482850161248a565b91505092915050565b60006020828403121561281857600080fd5b60006128268482850161249f565b91505092915050565b60006020828403121561284157600080fd5b600061284f84828501612508565b91505092915050565b6000806040838503121561286b57600080fd5b600061287985828601612508565b925050602083013567ffffffffffffffff81111561289657600080fd5b6128a2858286016124de565b9150509250929050565b600080600080608085870312156128c257600080fd5b60006128d087828801612508565b94505060206128e187828801612508565b93505060406128f287828801612508565b925050606061290387828801612508565b91505092959194509250565b600061291b8383612beb565b60208301905092915050565b612930816132bf565b82525050565b6000612941826131ae565b61294b81856131dc565b93506129568361319e565b8060005b8381101561298757815161296e888261290f565b9750612979836131cf565b92505060018101905061295a565b5085935050505092915050565b61299d816132d1565b82525050565b60006129ae826131b9565b6129b881856131ed565b93506129c8818560208601613366565b6129d1816134f4565b840191505092915050565b6129e581613333565b82525050565b60006129f6826131c4565b612a0081856131fe565b9350612a10818560208601613366565b612a19816134f4565b840191505092915050565b6000612a316034836131fe565b9150612a3c82613512565b604082019050919050565b6000612a546028836131fe565b9150612a5f82613561565b604082019050919050565b6000612a77602b836131fe565b9150612a82826135b0565b604082019050919050565b6000612a9a6026836131fe565b9150612aa5826135ff565b604082019050919050565b6000612abd6029836131fe565b9150612ac88261364e565b604082019050919050565b6000612ae06025836131fe565b9150612aeb8261369d565b604082019050919050565b6000612b036032836131fe565b9150612b0e826136ec565b604082019050919050565b6000612b26602a836131fe565b9150612b318261373b565b604082019050919050565b6000612b496020836131fe565b9150612b548261378a565b602082019050919050565b6000612b6c6029836131fe565b9150612b77826137b3565b604082019050919050565b6000612b8f6029836131fe565b9150612b9a82613802565b604082019050919050565b6000612bb26028836131fe565b9150612bbd82613851565b604082019050919050565b6000612bd56021836131fe565b9150612be0826138a0565b604082019050919050565b612bf481613329565b82525050565b612c0381613329565b82525050565b6000602082019050612c1e6000830184612927565b92915050565b600060a082019050612c396000830188612927565b612c466020830187612927565b8181036040830152612c588186612936565b90508181036060830152612c6c8185612936565b90508181036080830152612c8081846129a3565b90509695505050505050565b6000606082019050612ca16000830186612927565b612cae6020830185612927565b612cbb6040830184612bfa565b949350505050565b600060a082019050612cd86000830188612927565b612ce56020830187612927565b612cf26040830186612bfa565b612cff6060830185612bfa565b8181036080830152612d1181846129a3565b90509695505050505050565b6000604082019050612d326000830185612927565b612d3f6020830184612bfa565b9392505050565b60006020820190508181036000830152612d608184612936565b905092915050565b60006040820190508181036000830152612d828185612936565b90508181036020830152612d968184612936565b90509392505050565b6000602082019050612db46000830184612994565b92915050565b6000602082019050612dcf60008301846129dc565b92915050565b60006020820190508181036000830152612def81846129eb565b905092915050565b60006060820190508181036000830152612e1181866129eb565b9050612e206020830185612bfa565b612e2d6040830184612bfa565b949350505050565b60006020820190508181036000830152612e4e81612a24565b9050919050565b60006020820190508181036000830152612e6e81612a47565b9050919050565b60006020820190508181036000830152612e8e81612a6a565b9050919050565b60006020820190508181036000830152612eae81612a8d565b9050919050565b60006020820190508181036000830152612ece81612ab0565b9050919050565b60006020820190508181036000830152612eee81612ad3565b9050919050565b60006020820190508181036000830152612f0e81612af6565b9050919050565b60006020820190508181036000830152612f2e81612b19565b9050919050565b60006020820190508181036000830152612f4e81612b3c565b9050919050565b60006020820190508181036000830152612f6e81612b5f565b9050919050565b60006020820190508181036000830152612f8e81612b82565b9050919050565b60006020820190508181036000830152612fae81612ba5565b9050919050565b60006020820190508181036000830152612fce81612bc8565b9050919050565b6000602082019050612fea6000830184612bfa565b92915050565b600060c0820190506130056000830189612bfa565b6130126020830188612927565b61301f6040830187612bfa565b61302c6060830186612bfa565b6130396080830185612bfa565b61304660a0830184612bfa565b979650505050505050565b60006040820190506130666000830185612bfa565b6130736020830184612bfa565b9392505050565b600060808201905061308f6000830187612bfa565b61309c6020830186612bfa565b6130a96040830185612bfa565b6130b66060830184612bfa565b95945050505050565b60006130c96130da565b90506130d582826133cb565b919050565b6000604051905090565b600067ffffffffffffffff8211156130ff576130fe6134a3565b5b602082029050602081019050919050565b600067ffffffffffffffff82111561312b5761312a6134a3565b5b602082029050602081019050919050565b600067ffffffffffffffff821115613157576131566134a3565b5b613160826134f4565b9050602081019050919050565b600067ffffffffffffffff821115613188576131876134a3565b5b613191826134f4565b9050602081019050919050565b6000819050602082019050919050565b600081519050919050565b600081519050919050565b600081519050919050565b6000602082019050919050565b600082825260208201905092915050565b600082825260208201905092915050565b600082825260208201905092915050565b600061321a82613329565b915061322583613329565b9250827fffffffffffffffffffffffffffffffffffffffffffffffffffffffffffffffff0382111561325a57613259613445565b5b828201905092915050565b600061327082613329565b915061327b83613329565b9250817fffffffffffffffffffffffffffffffffffffffffffffffffffffffffffffffff04831182151516156132b4576132b3613445565b5b828202905092915050565b60006132ca82613309565b9050919050565b60008115159050919050565b60007fffffffff0000000000000000000000000000000000000000000000000000000082169050919050565b600073ffffffffffffffffffffffffffffffffffffffff82169050919050565b6000819050919050565b600061333e82613345565b9050919050565b600061335082613309565b9050919050565b82818337600083830152505050565b60005b83811015613384578082015181840152602081019050613369565b83811115613393576000848401525b50505050565b600060028204905060018216806133b157607f821691505b602082108114156133c5576133c4613474565b5b50919050565b6133d4826134f4565b810181811067ffffffffffffffff821117156133f3576133f26134a3565b5b80604052505050565b600061340782613329565b91507fffffffffffffffffffffffffffffffffffffffffffffffffffffffffffffffff82141561343a57613439613445565b5b600182019050919050565b7f4e487b7100000000000000000000000000000000000000000000000000000000600052601160045260246000fd5b7f4e487b7100000000000000000000000000000000000000000000000000000000600052602260045260246000fd5b7f4e487b7100000000000000000000000000000000000000000000000000000000600052604160045260246000fd5b600060033d11156134f15760046000803e6134ee600051613505565b90505b90565b6000601f19601f8301169050919050565b60008160e01c9050919050565b7f455243313135353a207472616e7366657220746f206e6f6e204552433131353560008201527f526563656976657220696d706c656d656e746572000000000000000000000000602082015250565b7f455243313135353a204552433131353552656365697665722072656a6563746560008201527f6420746f6b656e73000000000000000000000000000000000000000000000000602082015250565b7f455243313135353a2062616c616e636520717565727920666f7220746865207a60008201527f65726f2061646472657373000000000000000000000000000000000000000000602082015250565b7f4f776e61626c653a206e6577206f776e657220697320746865207a65726f206160008201527f6464726573730000000000000000000000000000000000000000000000000000602082015250565b7f455243313135353a2063616c6c6572206973206e6f74206f776e6572206e6f7260008201527f20617070726f7665640000000000000000000000000000000000000000000000602082015250565b7f455243313135353a207472616e7366657220746f20746865207a65726f20616460008201527f6472657373000000000000000000000000000000000000000000000000000000602082015250565b7f455243313135353a207472616e736665722063616c6c6572206973206e6f742060008201527f6f776e6572206e6f7220617070726f7665640000000000000000000000000000602082015250565b7f455243313135353a20696e73756666696369656e742062616c616e636520666f60008201527f72207472616e7366657200000000000000000000000000000000000000000000602082015250565b7f4f776e61626c653a2063616c6c6572206973206e6f7420746865206f776e6572600082015250565b7f455243313135353a2073657474696e6720617070726f76616c2073746174757360008201527f20666f722073656c660000000000000000000000000000000000000000000000602082015250565b7f455243313135353a206163636f756e747320616e6420696473206c656e67746860008201527f206d69736d617463680000000000000000000000000000000000000000000000602082015250565b7f455243313135353a2069647320616e6420616d6f756e7473206c656e6774682060008201527f6d69736d61746368000000000000000000000000000000000000000000000000602082015250565b7f455243313135353a206d696e7420746f20746865207a65726f2061646472657360008201527f7300000000000000000000000000000000000000000000000000000000000000602082015250565b600060443d10156138ff57613982565b6139076130da565b60043d036004823e80513d602482011167ffffffffffffffff8211171561392f575050613982565b808201805167ffffffffffffffff81111561394d5750505050613982565b80602083010160043d03850181111561396a575050505050613982565b613979826020018501866133cb565b82955050505050505b90565b61398e816132bf565b811461399957600080fd5b50565b6139a5816132d1565b81146139b057600080fd5b50565b6139bc816132dd565b81146139c757600080fd5b50565b6139d381613329565b81146139de57600080fd5b5056fea2646970667358221220c89c9af6a2c245604929d03969efbc71ac7d648619998f9ea2eab34eec34166c64736f6c63430008040033",
  "linkReferences": {},
  "deployedLinkReferences": {}
}