{
  "_format": "hh-sol-artifact-1",
  "contractName": "Pixel",
  "sourceName": "contracts/Pixel.sol",
  "abi": [
    {
      "inputs": [],
      "stateMutability": "nonpayable",
      "type": "constructor"
    },
    {
      "anonymous": false,
      "inputs": [
        {
          "indexed": true,
          "internalType": "address",
          "name": "owner",
          "type": "address"
        },
        {
          "indexed": true,
          "internalType": "address",
          "name": "spender",
          "type": "address"
        },
        {
          "indexed": false,
          "internalType": "uint256",
          "name": "value",
          "type": "uint256"
        }
      ],
      "name": "Approval",
      "type": "event"
    },
    {
      "anonymous": false,
      "inputs": [
        {
          "indexed": true,
          "internalType": "address",
          "name": "previousOwner",
          "type": "address"
        },
        {
          "indexed": true,
          "internalType": "address",
          "name": "newOwner",
          "type": "address"
        }
      ],
      "name": "OwnershipTransferred",
      "type": "event"
    },
    {
      "anonymous": false,
      "inputs": [
        {
          "indexed": true,
          "internalType": "address",
          "name": "from",
          "type": "address"
        },
        {
          "indexed": true,
          "internalType": "address",
          "name": "to",
          "type": "address"
        },
        {
          "indexed": false,
          "internalType": "uint256",
          "name": "value",
          "type": "uint256"
        }
      ],
      "name": "Transfer",
      "type": "event"
    },
    {
      "inputs": [
        {
          "internalType": "address",
          "name": "owner",
          "type": "address"
        },
        {
          "internalType": "address",
          "name": "spender",
          "type": "address"
        }
      ],
      "name": "allowance",
      "outputs": [
        {
          "internalType": "uint256",
          "name": "",
          "type": "uint256"
        }
      ],
      "stateMutability": "view",
      "type": "function"
    },
    {
      "inputs": [
        {
          "internalType": "address",
          "name": "spender",
          "type": "address"
        },
        {
          "internalType": "uint256",
          "name": "amount",
          "type": "uint256"
        }
      ],
      "name": "approve",
      "outputs": [
        {
          "internalType": "bool",
          "name": "",
          "type": "bool"
        }
      ],
      "stateMutability": "nonpayable",
      "type": "function"
    },
    {
      "inputs": [
        {
          "internalType": "address",
          "name": "addr",
          "type": "address"
        }
      ],
      "name": "authorize",
      "outputs": [],
      "stateMutability": "nonpayable",
      "type": "function"
    },
    {
      "inputs": [
        {
          "internalType": "address",
          "name": "account",
          "type": "address"
        }
      ],
      "name": "balanceOf",
      "outputs": [
        {
          "internalType": "uint256",
          "name": "",
          "type": "uint256"
        }
      ],
      "stateMutability": "view",
      "type": "function"
    },
    {
      "inputs": [
        {
          "internalType": "uint256",
          "name": "amount",
          "type": "uint256"
        }
      ],
      "name": "burn",
      "outputs": [],
      "stateMutability": "nonpayable",
      "type": "function"
    },
    {
      "inputs": [],
      "name": "decimals",
      "outputs": [
        {
          "internalType": "uint8",
          "name": "",
          "type": "uint8"
        }
      ],
      "stateMutability": "view",
      "type": "function"
    },
    {
      "inputs": [
        {
          "internalType": "address",
          "name": "spender",
          "type": "address"
        },
        {
          "internalType": "uint256",
          "name": "subtractedValue",
          "type": "uint256"
        }
      ],
      "name": "decreaseAllowance",
      "outputs": [
        {
          "internalType": "bool",
          "name": "",
          "type": "bool"
        }
      ],
      "stateMutability": "nonpayable",
      "type": "function"
    },
    {
      "inputs": [
        {
          "internalType": "address",
          "name": "spender",
          "type": "address"
        },
        {
          "internalType": "uint256",
          "name": "addedValue",
          "type": "uint256"
        }
      ],
      "name": "increaseAllowance",
      "outputs": [
        {
          "internalType": "bool",
          "name": "",
          "type": "bool"
        }
      ],
      "stateMutability": "nonpayable",
      "type": "function"
    },
    {
      "inputs": [],
      "name": "name",
      "outputs": [
        {
          "internalType": "string",
          "name": "",
          "type": "string"
        }
      ],
      "stateMutability": "view",
      "type": "function"
    },
    {
      "inputs": [],
      "name": "owner",
      "outputs": [
        {
          "internalType": "address",
          "name": "",
          "type": "address"
        }
      ],
      "stateMutability": "view",
      "type": "function"
    },
    {
      "inputs": [],
      "name": "renounceOwnership",
      "outputs": [],
      "stateMutability": "nonpayable",
      "type": "function"
    },
    {
      "inputs": [],
      "name": "symbol",
      "outputs": [
        {
          "internalType": "string",
          "name": "",
          "type": "string"
        }
      ],
      "stateMutability": "view",
      "type": "function"
    },
    {
      "inputs": [],
      "name": "totalSupply",
      "outputs": [
        {
          "internalType": "uint256",
          "name": "",
          "type": "uint256"
        }
      ],
      "stateMutability": "view",
      "type": "function"
    },
    {
      "inputs": [
        {
          "internalType": "address",
          "name": "to",
          "type": "address"
        },
        {
          "internalType": "uint256",
          "name": "amount",
          "type": "uint256"
        }
      ],
      "name": "transfer",
      "outputs": [
        {
          "internalType": "bool",
          "name": "",
          "type": "bool"
        }
      ],
      "stateMutability": "nonpayable",
      "type": "function"
    },
    {
      "inputs": [
        {
          "internalType": "address",
          "name": "from",
          "type": "address"
        },
        {
          "internalType": "address",
          "name": "to",
          "type": "address"
        },
        {
          "internalType": "uint256",
          "name": "amount",
          "type": "uint256"
        }
      ],
      "name": "transferFrom",
      "outputs": [
        {
          "internalType": "bool",
          "name": "",
          "type": "bool"
        }
      ],
      "stateMutability": "nonpayable",
      "type": "function"
    },
    {
      "inputs": [
        {
          "internalType": "address",
          "name": "newOwner",
          "type": "address"
        }
      ],
      "name": "transferOwnership",
      "outputs": [],
      "stateMutability": "nonpayable",
      "type": "function"
    },
    {
      "inputs": [
        {
          "internalType": "address",
          "name": "addr",
          "type": "address"
        }
      ],
      "name": "unAuthorize",
      "outputs": [],
      "stateMutability": "nonpayable",
      "type": "function"
    }
  ],
  "bytecode": "0x60806040523480156200001157600080fd5b506040518060400160405280600581526020017f506978656c0000000000000000000000000000000000000000000000000000008152506040518060400160405280600581526020017f504958454c0000000000000000000000000000000000000000000000000000008152508160039080519060200190620000969291906200039e565b508060049080519060200190620000af9291906200039e565b505050620000d2620000c66200014d60201b60201c565b6200015560201b60201c565b620000ef336a52b7d2dcc80cd2e40000006200021b60201b60201c565b6001600660003373ffffffffffffffffffffffffffffffffffffffff1673ffffffffffffffffffffffffffffffffffffffff16815260200190815260200160002060006101000a81548160ff021916908315150217905550620005fa565b600033905090565b6000600560009054906101000a900473ffffffffffffffffffffffffffffffffffffffff16905081600560006101000a81548173ffffffffffffffffffffffffffffffffffffffff021916908373ffffffffffffffffffffffffffffffffffffffff1602179055508173ffffffffffffffffffffffffffffffffffffffff168173ffffffffffffffffffffffffffffffffffffffff167f8be0079c531659141344cd1fd0a4f28419497f9722a3daafe3b4186f6b6457e060405160405180910390a35050565b600073ffffffffffffffffffffffffffffffffffffffff168273ffffffffffffffffffffffffffffffffffffffff1614156200028e576040517f08c379a0000000000000000000000000000000000000000000000000000000008152600401620002859062000486565b60405180910390fd5b620002a2600083836200039460201b60201c565b8060026000828254620002b69190620004d6565b92505081905550806000808473ffffffffffffffffffffffffffffffffffffffff1673ffffffffffffffffffffffffffffffffffffffff16815260200190815260200160002060008282546200030d9190620004d6565b925050819055508173ffffffffffffffffffffffffffffffffffffffff16600073ffffffffffffffffffffffffffffffffffffffff167fddf252ad1be2c89b69c2b068fc378daa952ba7f163c4a11628f55a4df523b3ef83604051620003749190620004a8565b60405180910390a362000390600083836200039960201b60201c565b5050565b505050565b505050565b828054620003ac906200053d565b90600052602060002090601f016020900481019282620003d057600085556200041c565b82601f10620003eb57805160ff19168380011785556200041c565b828001600101855582156200041c579182015b828111156200041b578251825591602001919060010190620003fe565b5b5090506200042b91906200042f565b5090565b5b808211156200044a57600081600090555060010162000430565b5090565b60006200045d601f83620004c5565b91506200046a82620005d1565b602082019050919050565b620004808162000533565b82525050565b60006020820190508181036000830152620004a1816200044e565b9050919050565b6000602082019050620004bf600083018462000475565b92915050565b600082825260208201905092915050565b6000620004e38262000533565b9150620004f08362000533565b9250827fffffffffffffffffffffffffffffffffffffffffffffffffffffffffffffffff0382111562000528576200052762000573565b5b828201905092915050565b6000819050919050565b600060028204905060018216806200055657607f821691505b602082108114156200056d576200056c620005a2565b5b50919050565b7f4e487b7100000000000000000000000000000000000000000000000000000000600052601160045260246000fd5b7f4e487b7100000000000000000000000000000000000000000000000000000000600052602260045260246000fd5b7f45524332303a206d696e7420746f20746865207a65726f206164647265737300600082015250565b611d42806200060a6000396000f3fe608060405234801561001057600080fd5b506004361061010b5760003560e01c806370a08231116100a2578063a457c2d711610071578063a457c2d7146102a8578063a9059cbb146102d8578063b6a5d7de14610308578063dd62ed3e14610324578063f2fde38b146103545761010b565b806370a0823114610232578063715018a6146102625780638da5cb5b1461026c57806395d89b411461028a5761010b565b8063313ce567116100de578063313ce567146101ac57806339509351146101ca5780633bbbc7c9146101fa57806342966c68146102165761010b565b806306fdde0314610110578063095ea7b31461012e57806318160ddd1461015e57806323b872dd1461017c575b600080fd5b610118610370565b604051610125919061163e565b60405180910390f35b610148600480360381019061014391906113ad565b610402565b6040516101559190611623565b60405180910390f35b610166610425565b60405161017391906117c0565b60405180910390f35b6101966004803603810190610191919061135e565b61042f565b6040516101a39190611623565b60405180910390f35b6101b461045e565b6040516101c191906117db565b60405180910390f35b6101e460048036038101906101df91906113ad565b610467565b6040516101f19190611623565b60405180910390f35b610214600480360381019061020f91906112f9565b610511565b005b610230600480360381019061022b91906113e9565b6105e8565b005b61024c600480360381019061024791906112f9565b610659565b60405161025991906117c0565b60405180910390f35b61026a6106a1565b005b610274610729565b6040516102819190611608565b60405180910390f35b610292610753565b60405161029f919061163e565b60405180910390f35b6102c260048036038101906102bd91906113ad565b6107e5565b6040516102cf9190611623565b60405180910390f35b6102f260048036038101906102ed91906113ad565b6108cf565b6040516102ff9190611623565b60405180910390f35b610322600480360381019061031d91906112f9565b6108f2565b005b61033e60048036038101906103399190611322565b6109c9565b60405161034b91906117c0565b60405180910390f35b61036e600480360381019061036991906112f9565b610a50565b005b60606003805461037f90611924565b80601f01602080910402602001604051908101604052809291908181526020018280546103ab90611924565b80156103f85780601f106103cd576101008083540402835291602001916103f8565b820191906000526020600020905b8154815290600101906020018083116103db57829003601f168201915b5050505050905090565b60008061040d610b48565b905061041a818585610b50565b600191505092915050565b6000600254905090565b60008061043a610b48565b9050610447858285610d1b565b610452858585610da7565b60019150509392505050565b60006012905090565b600080610472610b48565b9050610506818585600160008673ffffffffffffffffffffffffffffffffffffffff1673ffffffffffffffffffffffffffffffffffffffff16815260200190815260200160002060008973ffffffffffffffffffffffffffffffffffffffff1673ffffffffffffffffffffffffffffffffffffffff168152602001908152602001600020546105019190611812565b610b50565b600191505092915050565b610519610b48565b73ffffffffffffffffffffffffffffffffffffffff16610537610729565b73ffffffffffffffffffffffffffffffffffffffff161461058d576040517f08c379a000000000000000000000000000000000000000000000000000000000815260040161058490611720565b60405180910390fd5b6000600660008373ffffffffffffffffffffffffffffffffffffffff1673ffffffffffffffffffffffffffffffffffffffff16815260200190815260200160002060006101000a81548160ff02191690831515021790555050565b60011515600660003373ffffffffffffffffffffffffffffffffffffffff1673ffffffffffffffffffffffffffffffffffffffff16815260200190815260200160002060009054906101000a900460ff1615151461064557600080fd5b610656610650610b48565b82611028565b50565b60008060008373ffffffffffffffffffffffffffffffffffffffff1673ffffffffffffffffffffffffffffffffffffffff168152602001908152602001600020549050919050565b6106a9610b48565b73ffffffffffffffffffffffffffffffffffffffff166106c7610729565b73ffffffffffffffffffffffffffffffffffffffff161461071d576040517f08c379a000000000000000000000000000000000000000000000000000000000815260040161071490611720565b60405180910390fd5b61072760006111ff565b565b6000600560009054906101000a900473ffffffffffffffffffffffffffffffffffffffff16905090565b60606004805461076290611924565b80601f016020809104026020016040519081016040528092919081815260200182805461078e90611924565b80156107db5780601f106107b0576101008083540402835291602001916107db565b820191906000526020600020905b8154815290600101906020018083116107be57829003601f168201915b5050505050905090565b6000806107f0610b48565b90506000600160008373ffffffffffffffffffffffffffffffffffffffff1673ffffffffffffffffffffffffffffffffffffffff16815260200190815260200160002060008673ffffffffffffffffffffffffffffffffffffffff1673ffffffffffffffffffffffffffffffffffffffff168152602001908152602001600020549050838110156108b6576040517f08c379a00000000000000000000000000000000000000000000000000000000081526004016108ad906117a0565b60405180910390fd5b6108c38286868403610b50565b60019250505092915050565b6000806108da610b48565b90506108e7818585610da7565b600191505092915050565b6108fa610b48565b73ffffffffffffffffffffffffffffffffffffffff16610918610729565b73ffffffffffffffffffffffffffffffffffffffff161461096e576040517f08c379a000000000000000000000000000000000000000000000000000000000815260040161096590611720565b60405180910390fd5b6001600660008373ffffffffffffffffffffffffffffffffffffffff1673ffffffffffffffffffffffffffffffffffffffff16815260200190815260200160002060006101000a81548160ff02191690831515021790555050565b6000600160008473ffffffffffffffffffffffffffffffffffffffff1673ffffffffffffffffffffffffffffffffffffffff16815260200190815260200160002060008373ffffffffffffffffffffffffffffffffffffffff1673ffffffffffffffffffffffffffffffffffffffff16815260200190815260200160002054905092915050565b610a58610b48565b73ffffffffffffffffffffffffffffffffffffffff16610a76610729565b73ffffffffffffffffffffffffffffffffffffffff1614610acc576040517f08c379a0000000000000000000000000000000000000000000000000000000008152600401610ac390611720565b60405180910390fd5b600073ffffffffffffffffffffffffffffffffffffffff168173ffffffffffffffffffffffffffffffffffffffff161415610b3c576040517f08c379a0000000000000000000000000000000000000000000000000000000008152600401610b33906116a0565b60405180910390fd5b610b45816111ff565b50565b600033905090565b600073ffffffffffffffffffffffffffffffffffffffff168373ffffffffffffffffffffffffffffffffffffffff161415610bc0576040517f08c379a0000000000000000000000000000000000000000000000000000000008152600401610bb790611780565b60405180910390fd5b600073ffffffffffffffffffffffffffffffffffffffff168273ffffffffffffffffffffffffffffffffffffffff161415610c30576040517f08c379a0000000000000000000000000000000000000000000000000000000008152600401610c27906116c0565b60405180910390fd5b80600160008573ffffffffffffffffffffffffffffffffffffffff1673ffffffffffffffffffffffffffffffffffffffff16815260200190815260200160002060008473ffffffffffffffffffffffffffffffffffffffff1673ffffffffffffffffffffffffffffffffffffffff168152602001908152602001600020819055508173ffffffffffffffffffffffffffffffffffffffff168373ffffffffffffffffffffffffffffffffffffffff167f8c5be1e5ebec7d5bd14f71427d1e84f3dd0314c0f7b2291e5b200ac8c7c3b92583604051610d0e91906117c0565b60405180910390a3505050565b6000610d2784846109c9565b90507fffffffffffffffffffffffffffffffffffffffffffffffffffffffffffffffff8114610da15781811015610d93576040517f08c379a0000000000000000000000000000000000000000000000000000000008152600401610d8a906116e0565b60405180910390fd5b610da08484848403610b50565b5b50505050565b600073ffffffffffffffffffffffffffffffffffffffff168373ffffffffffffffffffffffffffffffffffffffff161415610e17576040517f08c379a0000000000000000000000000000000000000000000000000000000008152600401610e0e90611760565b60405180910390fd5b600073ffffffffffffffffffffffffffffffffffffffff168273ffffffffffffffffffffffffffffffffffffffff161415610e87576040517f08c379a0000000000000000000000000000000000000000000000000000000008152600401610e7e90611660565b60405180910390fd5b610e928383836112c5565b60008060008573ffffffffffffffffffffffffffffffffffffffff1673ffffffffffffffffffffffffffffffffffffffff16815260200190815260200160002054905081811015610f18576040517f08c379a0000000000000000000000000000000000000000000000000000000008152600401610f0f90611700565b60405180910390fd5b8181036000808673ffffffffffffffffffffffffffffffffffffffff1673ffffffffffffffffffffffffffffffffffffffff16815260200190815260200160002081905550816000808573ffffffffffffffffffffffffffffffffffffffff1673ffffffffffffffffffffffffffffffffffffffff1681526020019081526020016000206000828254610fab9190611812565b925050819055508273ffffffffffffffffffffffffffffffffffffffff168473ffffffffffffffffffffffffffffffffffffffff167fddf252ad1be2c89b69c2b068fc378daa952ba7f163c4a11628f55a4df523b3ef8460405161100f91906117c0565b60405180910390a36110228484846112ca565b50505050565b600073ffffffffffffffffffffffffffffffffffffffff168273ffffffffffffffffffffffffffffffffffffffff161415611098576040517f08c379a000000000000000000000000000000000000000000000000000000000815260040161108f90611740565b60405180910390fd5b6110a4826000836112c5565b60008060008473ffffffffffffffffffffffffffffffffffffffff1673ffffffffffffffffffffffffffffffffffffffff1681526020019081526020016000205490508181101561112a576040517f08c379a000000000000000000000000000000000000000000000000000000000815260040161112190611680565b60405180910390fd5b8181036000808573ffffffffffffffffffffffffffffffffffffffff1673ffffffffffffffffffffffffffffffffffffffff1681526020019081526020016000208190555081600260008282546111819190611868565b92505081905550600073ffffffffffffffffffffffffffffffffffffffff168373ffffffffffffffffffffffffffffffffffffffff167fddf252ad1be2c89b69c2b068fc378daa952ba7f163c4a11628f55a4df523b3ef846040516111e691906117c0565b60405180910390a36111fa836000846112ca565b505050565b6000600560009054906101000a900473ffffffffffffffffffffffffffffffffffffffff16905081600560006101000a81548173ffffffffffffffffffffffffffffffffffffffff021916908373ffffffffffffffffffffffffffffffffffffffff1602179055508173ffffffffffffffffffffffffffffffffffffffff168173ffffffffffffffffffffffffffffffffffffffff167f8be0079c531659141344cd1fd0a4f28419497f9722a3daafe3b4186f6b6457e060405160405180910390a35050565b505050565b505050565b6000813590506112de81611cde565b92915050565b6000813590506112f381611cf5565b92915050565b60006020828403121561130b57600080fd5b6000611319848285016112cf565b91505092915050565b6000806040838503121561133557600080fd5b6000611343858286016112cf565b9250506020611354858286016112cf565b9150509250929050565b60008060006060848603121561137357600080fd5b6000611381868287016112cf565b9350506020611392868287016112cf565b92505060406113a3868287016112e4565b9150509250925092565b600080604083850312156113c057600080fd5b60006113ce858286016112cf565b92505060206113df858286016112e4565b9150509250929050565b6000602082840312156113fb57600080fd5b6000611409848285016112e4565b91505092915050565b61141b8161189c565b82525050565b61142a816118ae565b82525050565b600061143b826117f6565b6114458185611801565b93506114558185602086016118f1565b61145e816119b4565b840191505092915050565b6000611476602383611801565b9150611481826119c5565b604082019050919050565b6000611499602283611801565b91506114a482611a14565b604082019050919050565b60006114bc602683611801565b91506114c782611a63565b604082019050919050565b60006114df602283611801565b91506114ea82611ab2565b604082019050919050565b6000611502601d83611801565b915061150d82611b01565b602082019050919050565b6000611525602683611801565b915061153082611b2a565b604082019050919050565b6000611548602083611801565b915061155382611b79565b602082019050919050565b600061156b602183611801565b915061157682611ba2565b604082019050919050565b600061158e602583611801565b915061159982611bf1565b604082019050919050565b60006115b1602483611801565b91506115bc82611c40565b604082019050919050565b60006115d4602583611801565b91506115df82611c8f565b604082019050919050565b6115f3816118da565b82525050565b611602816118e4565b82525050565b600060208201905061161d6000830184611412565b92915050565b60006020820190506116386000830184611421565b92915050565b600060208201905081810360008301526116588184611430565b905092915050565b6000602082019050818103600083015261167981611469565b9050919050565b600060208201905081810360008301526116998161148c565b9050919050565b600060208201905081810360008301526116b9816114af565b9050919050565b600060208201905081810360008301526116d9816114d2565b9050919050565b600060208201905081810360008301526116f9816114f5565b9050919050565b6000602082019050818103600083015261171981611518565b9050919050565b600060208201905081810360008301526117398161153b565b9050919050565b600060208201905081810360008301526117598161155e565b9050919050565b6000602082019050818103600083015261177981611581565b9050919050565b60006020820190508181036000830152611799816115a4565b9050919050565b600060208201905081810360008301526117b9816115c7565b9050919050565b60006020820190506117d560008301846115ea565b92915050565b60006020820190506117f060008301846115f9565b92915050565b600081519050919050565b600082825260208201905092915050565b600061181d826118da565b9150611828836118da565b9250827fffffffffffffffffffffffffffffffffffffffffffffffffffffffffffffffff0382111561185d5761185c611956565b5b828201905092915050565b6000611873826118da565b915061187e836118da565b92508282101561189157611890611956565b5b828203905092915050565b60006118a7826118ba565b9050919050565b60008115159050919050565b600073ffffffffffffffffffffffffffffffffffffffff82169050919050565b6000819050919050565b600060ff82169050919050565b60005b8381101561190f5780820151818401526020810190506118f4565b8381111561191e576000848401525b50505050565b6000600282049050600182168061193c57607f821691505b602082108114156119505761194f611985565b5b50919050565b7f4e487b7100000000000000000000000000000000000000000000000000000000600052601160045260246000fd5b7f4e487b7100000000000000000000000000000000000000000000000000000000600052602260045260246000fd5b6000601f19601f8301169050919050565b7f45524332303a207472616e7366657220746f20746865207a65726f206164647260008201527f6573730000000000000000000000000000000000000000000000000000000000602082015250565b7f45524332303a206275726e20616d6f756e7420657863656564732062616c616e60008201527f6365000000000000000000000000000000000000000000000000000000000000602082015250565b7f4f776e61626c653a206e6577206f776e657220697320746865207a65726f206160008201527f6464726573730000000000000000000000000000000000000000000000000000602082015250565b7f45524332303a20617070726f766520746f20746865207a65726f20616464726560008201527f7373000000000000000000000000000000000000000000000000000000000000602082015250565b7f45524332303a20696e73756666696369656e7420616c6c6f77616e6365000000600082015250565b7f45524332303a207472616e7366657220616d6f756e742065786365656473206260008201527f616c616e63650000000000000000000000000000000000000000000000000000602082015250565b7f4f776e61626c653a2063616c6c6572206973206e6f7420746865206f776e6572600082015250565b7f45524332303a206275726e2066726f6d20746865207a65726f2061646472657360008201527f7300000000000000000000000000000000000000000000000000000000000000602082015250565b7f45524332303a207472616e736665722066726f6d20746865207a65726f20616460008201527f6472657373000000000000000000000000000000000000000000000000000000602082015250565b7f45524332303a20617070726f76652066726f6d20746865207a65726f2061646460008201527f7265737300000000000000000000000000000000000000000000000000000000602082015250565b7f45524332303a2064656372656173656420616c6c6f77616e63652062656c6f7760008201527f207a65726f000000000000000000000000000000000000000000000000000000602082015250565b611ce78161189c565b8114611cf257600080fd5b50565b611cfe816118da565b8114611d0957600080fd5b5056fea2646970667358221220f6042dd799c389411b39c47d2cb49e1ddfef69f38e186bd96d0da44bc0ec7fe464736f6c63430008040033",
  "linkReferences": {},
  "deployedLinkReferences": {}
}