{
  "_format": "hh-sol-artifact-1",
  "contractName": "ERC721A",
  "sourceName": "contracts/ERC721A.sol",
  "abi": [
    {
      "inputs": [
        {
          "internalType": "string",
          "name": "name_",
          "type": "string"
        },
        {
          "internalType": "string",
          "name": "symbol_",
          "type": "string"
        },
        {
          "internalType": "uint256",
          "name": "maxBatchSize_",
          "type": "uint256"
        },
        {
          "internalType": "uint256",
          "name": "collectionSize_",
          "type": "uint256"
        }
      ],
      "stateMutability": "nonpayable",
      "type": "constructor"
    },
    {
      "anonymous": false,
      "inputs": [
        {
          "indexed": true,
          "internalType": "address",
          "name": "owner",
          "type": "address"
        },
        {
          "indexed": true,
          "internalType": "address",
          "name": "approved",
          "type": "address"
        },
        {
          "indexed": true,
          "internalType": "uint256",
          "name": "tokenId",
          "type": "uint256"
        }
      ],
      "name": "Approval",
      "type": "event"
    },
    {
      "anonymous": false,
      "inputs": [
        {
          "indexed": true,
          "internalType": "address",
          "name": "owner",
          "type": "address"
        },
        {
          "indexed": true,
          "internalType": "address",
          "name": "operator",
          "type": "address"
        },
        {
          "indexed": false,
          "internalType": "bool",
          "name": "approved",
          "type": "bool"
        }
      ],
      "name": "ApprovalForAll",
      "type": "event"
    },
    {
      "anonymous": false,
      "inputs": [
        {
          "indexed": true,
          "internalType": "address",
          "name": "from",
          "type": "address"
        },
        {
          "indexed": true,
          "internalType": "address",
          "name": "to",
          "type": "address"
        },
        {
          "indexed": true,
          "internalType": "uint256",
          "name": "tokenId",
          "type": "uint256"
        }
      ],
      "name": "Transfer",
      "type": "event"
    },
    {
      "inputs": [
        {
          "internalType": "address",
          "name": "from",
          "type": "address"
        },
        {
          "internalType": "address",
          "name": "to",
          "type": "address"
        },
        {
          "internalType": "uint256",
          "name": "tokenId",
          "type": "uint256"
        }
      ],
      "name": "_transfer",
      "outputs": [],
      "stateMutability": "nonpayable",
      "type": "function"
    },
    {
      "inputs": [
        {
          "internalType": "address",
          "name": "from",
          "type": "address"
        },
        {
          "internalType": "address",
          "name": "to",
          "type": "address"
        },
        {
          "internalType": "uint256",
          "name": "tokenId",
          "type": "uint256"
        }
      ],
      "name": "_transferFromContract",
      "outputs": [],
      "stateMutability": "nonpayable",
      "type": "function"
    },
    {
      "inputs": [
        {
          "internalType": "address",
          "name": "to",
          "type": "address"
        },
        {
          "internalType": "uint256",
          "name": "tokenId",
          "type": "uint256"
        }
      ],
      "name": "approve",
      "outputs": [],
      "stateMutability": "nonpayable",
      "type": "function"
    },
    {
      "inputs": [],
      "name": "authority",
      "outputs": [
        {
          "internalType": "address",
          "name": "",
          "type": "address"
        }
      ],
      "stateMutability": "view",
      "type": "function"
    },
    {
      "inputs": [
        {
          "internalType": "address",
          "name": "owner",
          "type": "address"
        }
      ],
      "name": "balanceOf",
      "outputs": [
        {
          "internalType": "uint256",
          "name": "",
          "type": "uint256"
        }
      ],
      "stateMutability": "view",
      "type": "function"
    },
    {
      "inputs": [
        {
          "internalType": "address",
          "name": "_contract",
          "type": "address"
        }
      ],
      "name": "contractAuthorized",
      "outputs": [],
      "stateMutability": "nonpayable",
      "type": "function"
    },
    {
      "inputs": [
        {
          "internalType": "uint256",
          "name": "tokenId",
          "type": "uint256"
        }
      ],
      "name": "getApproved",
      "outputs": [
        {
          "internalType": "address",
          "name": "",
          "type": "address"
        }
      ],
      "stateMutability": "view",
      "type": "function"
    },
    {
      "inputs": [
        {
          "internalType": "address",
          "name": "owner",
          "type": "address"
        },
        {
          "internalType": "address",
          "name": "operator",
          "type": "address"
        }
      ],
      "name": "isApprovedForAll",
      "outputs": [
        {
          "internalType": "bool",
          "name": "",
          "type": "bool"
        }
      ],
      "stateMutability": "view",
      "type": "function"
    },
    {
      "inputs": [],
      "name": "name",
      "outputs": [
        {
          "internalType": "string",
          "name": "",
          "type": "string"
        }
      ],
      "stateMutability": "view",
      "type": "function"
    },
    {
      "inputs": [],
      "name": "nextOwnerToExplicitlySet",
      "outputs": [
        {
          "internalType": "uint256",
          "name": "",
          "type": "uint256"
        }
      ],
      "stateMutability": "view",
      "type": "function"
    },
    {
      "inputs": [
        {
          "internalType": "uint256",
          "name": "tokenId",
          "type": "uint256"
        }
      ],
      "name": "ownerOf",
      "outputs": [
        {
          "internalType": "address",
          "name": "",
          "type": "address"
        }
      ],
      "stateMutability": "view",
      "type": "function"
    },
    {
      "inputs": [
        {
          "internalType": "address",
          "name": "from",
          "type": "address"
        },
        {
          "internalType": "address",
          "name": "to",
          "type": "address"
        },
        {
          "internalType": "uint256",
          "name": "tokenId",
          "type": "uint256"
        }
      ],
      "name": "safeTransferFrom",
      "outputs": [],
      "stateMutability": "nonpayable",
      "type": "function"
    },
    {
      "inputs": [
        {
          "internalType": "address",
          "name": "from",
          "type": "address"
        },
        {
          "internalType": "address",
          "name": "to",
          "type": "address"
        },
        {
          "internalType": "uint256",
          "name": "tokenId",
          "type": "uint256"
        },
        {
          "internalType": "bytes",
          "name": "_data",
          "type": "bytes"
        }
      ],
      "name": "safeTransferFrom",
      "outputs": [],
      "stateMutability": "nonpayable",
      "type": "function"
    },
    {
      "inputs": [
        {
          "internalType": "address",
          "name": "operator",
          "type": "address"
        },
        {
          "internalType": "bool",
          "name": "approved",
          "type": "bool"
        }
      ],
      "name": "setApprovalForAll",
      "outputs": [],
      "stateMutability": "nonpayable",
      "type": "function"
    },
    {
      "inputs": [
        {
          "internalType": "bytes4",
          "name": "interfaceId",
          "type": "bytes4"
        }
      ],
      "name": "supportsInterface",
      "outputs": [
        {
          "internalType": "bool",
          "name": "",
          "type": "bool"
        }
      ],
      "stateMutability": "view",
      "type": "function"
    },
    {
      "inputs": [],
      "name": "symbol",
      "outputs": [
        {
          "internalType": "string",
          "name": "",
          "type": "string"
        }
      ],
      "stateMutability": "view",
      "type": "function"
    },
    {
      "inputs": [
        {
          "internalType": "uint256",
          "name": "index",
          "type": "uint256"
        }
      ],
      "name": "tokenByIndex",
      "outputs": [
        {
          "internalType": "uint256",
          "name": "",
          "type": "uint256"
        }
      ],
      "stateMutability": "view",
      "type": "function"
    },
    {
      "inputs": [
        {
          "internalType": "address",
          "name": "owner",
          "type": "address"
        },
        {
          "internalType": "uint256",
          "name": "index",
          "type": "uint256"
        }
      ],
      "name": "tokenOfOwnerByIndex",
      "outputs": [
        {
          "internalType": "uint256",
          "name": "",
          "type": "uint256"
        }
      ],
      "stateMutability": "view",
      "type": "function"
    },
    {
      "inputs": [
        {
          "internalType": "uint256",
          "name": "tokenId",
          "type": "uint256"
        }
      ],
      "name": "tokenURI",
      "outputs": [
        {
          "internalType": "string",
          "name": "",
          "type": "string"
        }
      ],
      "stateMutability": "view",
      "type": "function"
    },
    {
      "inputs": [],
      "name": "totalSupply",
      "outputs": [
        {
          "internalType": "uint256",
          "name": "",
          "type": "uint256"
        }
      ],
      "stateMutability": "view",
      "type": "function"
    },
    {
      "inputs": [
        {
          "internalType": "address",
          "name": "from",
          "type": "address"
        },
        {
          "internalType": "address",
          "name": "to",
          "type": "address"
        },
        {
          "internalType": "uint256",
          "name": "tokenId",
          "type": "uint256"
        }
      ],
      "name": "transferFrom",
      "outputs": [],
      "stateMutability": "nonpayable",
      "type": "function"
    }
  ],
  "bytecode": "0x60c06040526000805560006009553480156200001a57600080fd5b5060405162003b7038038062003b70833981810160405281019062000040919062000251565b6000811162000086576040517f08c379a00000000000000000000000000000000000000000000000000000000081526004016200007d906200035f565b60405180910390fd5b60008211620000cc576040517f08c379a0000000000000000000000000000000000000000000000000000000008152600401620000c3906200033d565b60405180910390fd5b8360019080519060200190620000e492919062000118565b508260029080519060200190620000fd92919062000118565b508160a08181525050806080818152505050505050620005c4565b828054620001269062000431565b90600052602060002090601f0160209004810192826200014a576000855562000196565b82601f106200016557805160ff191683800117855562000196565b8280016001018555821562000196579182015b828111156200019557825182559160200191906001019062000178565b5b509050620001a59190620001a9565b5090565b5b80821115620001c4576000816000905550600101620001aa565b5090565b6000620001df620001d984620003aa565b62000381565b905082815260208101848484011115620001f857600080fd5b62000205848285620003fb565b509392505050565b600082601f8301126200021f57600080fd5b815162000231848260208601620001c8565b91505092915050565b6000815190506200024b81620005aa565b92915050565b600080600080608085870312156200026857600080fd5b600085015167ffffffffffffffff8111156200028357600080fd5b62000291878288016200020d565b945050602085015167ffffffffffffffff811115620002af57600080fd5b620002bd878288016200020d565b9350506040620002d0878288016200023a565b9250506060620002e3878288016200023a565b91505092959194509250565b6000620002fe602783620003e0565b91506200030b826200050c565b604082019050919050565b600062000325602e83620003e0565b915062000332826200055b565b604082019050919050565b600060208201905081810360008301526200035881620002ef565b9050919050565b600060208201905081810360008301526200037a8162000316565b9050919050565b60006200038d620003a0565b90506200039b828262000467565b919050565b6000604051905090565b600067ffffffffffffffff821115620003c857620003c7620004cc565b5b620003d382620004fb565b9050602081019050919050565b600082825260208201905092915050565b6000819050919050565b60005b838110156200041b578082015181840152602081019050620003fe565b838111156200042b576000848401525b50505050565b600060028204905060018216806200044a57607f821691505b602082108114156200046157620004606200049d565b5b50919050565b6200047282620004fb565b810181811067ffffffffffffffff82111715620004945762000493620004cc565b5b80604052505050565b7f4e487b7100000000000000000000000000000000000000000000000000000000600052602260045260246000fd5b7f4e487b7100000000000000000000000000000000000000000000000000000000600052604160045260246000fd5b6000601f19601f8301169050919050565b7f455243373231413a206d61782062617463682073697a65206d7573742062652060008201527f6e6f6e7a65726f00000000000000000000000000000000000000000000000000602082015250565b7f455243373231413a20636f6c6c656374696f6e206d757374206861766520612060008201527f6e6f6e7a65726f20737570706c79000000000000000000000000000000000000602082015250565b620005b581620003f1565b8114620005c157600080fd5b50565b60805160a051613582620005ee60003960008181611bdb0152611c040152600050506135826000f3fe608060405234801561001057600080fd5b50600436106101375760003560e01c80634f6ccce7116100b8578063a22cb4651161007c578063a22cb4651461035e578063b88d4fde1461037a578063bf7e214f14610396578063c87b56dd146103b4578063d7224ba0146103e4578063e985e9c51461040257610137565b80634f6ccce714610294578063600c3922146102c45780636352211e146102e057806370a082311461031057806395d89b411461034057610137565b806323b872dd116100ff57806323b872dd146101f45780632ca5185a146102105780632f745c591461022c57806330e0789e1461025c57806342842e0e1461027857610137565b806301ffc9a71461013c57806306fdde031461016c578063081812fc1461018a578063095ea7b3146101ba57806318160ddd146101d6575b600080fd5b610156600480360381019061015191906123ea565b610432565b6040516101639190612859565b60405180910390f35b61017461057c565b6040516101819190612874565b60405180910390f35b6101a4600480360381019061019f919061243c565b61060e565b6040516101b191906127f2565b60405180910390f35b6101d460048036038101906101cf91906123ae565b610693565b005b6101de6107ac565b6040516101eb9190612af6565b60405180910390f35b61020e600480360381019061020991906122a8565b6107b5565b005b61022a600480360381019061022591906122a8565b6107c5565b005b610246600480360381019061024191906123ae565b610bcd565b6040516102539190612af6565b60405180910390f35b610276600480360381019061027191906122a8565b610de6565b005b610292600480360381019061028d91906122a8565b6113f1565b005b6102ae60048036038101906102a9919061243c565b611411565b6040516102bb9190612af6565b60405180910390f35b6102de60048036038101906102d99190612243565b611464565b005b6102fa60048036038101906102f5919061243c565b611513565b60405161030791906127f2565b60405180910390f35b61032a60048036038101906103259190612243565b611529565b6040516103379190612af6565b60405180910390f35b610348611612565b6040516103559190612874565b60405180910390f35b61037860048036038101906103739190612372565b6116a4565b005b610394600480360381019061038f91906122f7565b611825565b005b61039e611881565b6040516103ab91906127f2565b60405180910390f35b6103ce60048036038101906103c9919061243c565b6118a7565b6040516103db9190612874565b60405180910390f35b6103ec6119bc565b6040516103f99190612af6565b60405180910390f35b61041c6004803603810190610417919061226c565b6119c2565b6040516104299190612859565b60405180910390f35b60007f80ac58cd000000000000000000000000000000000000000000000000000000007bffffffffffffffffffffffffffffffffffffffffffffffffffffffff1916827bffffffffffffffffffffffffffffffffffffffffffffffffffffffff191614806104fd57507f5b5e139f000000000000000000000000000000000000000000000000000000007bffffffffffffffffffffffffffffffffffffffffffffffffffffffff1916827bffffffffffffffffffffffffffffffffffffffffffffffffffffffff1916145b8061056557507f780e9d63000000000000000000000000000000000000000000000000000000007bffffffffffffffffffffffffffffffffffffffffffffffffffffffff1916827bffffffffffffffffffffffffffffffffffffffffffffffffffffffff1916145b80610575575061057482611a56565b5b9050919050565b60606001805461058b90612ddb565b80601f01602080910402602001604051908101604052809291908181526020018280546105b790612ddb565b80156106045780601f106105d957610100808354040283529160200191610604565b820191906000526020600020905b8154815290600101906020018083116105e757829003601f168201915b5050505050905090565b600061061982611ac0565b610658576040517f08c379a000000000000000000000000000000000000000000000000000000000815260040161064f90612ad6565b60405180910390fd5b6006600083815260200190815260200160002060009054906101000a900473ffffffffffffffffffffffffffffffffffffffff169050919050565b600061069e82611513565b90508073ffffffffffffffffffffffffffffffffffffffff168373ffffffffffffffffffffffffffffffffffffffff16141561070f576040517f08c379a000000000000000000000000000000000000000000000000000000000815260040161070690612a56565b60405180910390fd5b8073ffffffffffffffffffffffffffffffffffffffff1661072e611acd565b73ffffffffffffffffffffffffffffffffffffffff16148061075d575061075c81610757611acd565b6119c2565b5b61079c576040517f08c379a000000000000000000000000000000000000000000000000000000000815260040161079390612976565b60405180910390fd5b6107a7838383611ad5565b505050565b60008054905090565b6107c0838383610de6565b505050565b8273ffffffffffffffffffffffffffffffffffffffff166107e582611513565b73ffffffffffffffffffffffffffffffffffffffff161461083b576040517f08c379a0000000000000000000000000000000000000000000000000000000008152600401610832906128d6565b60405180910390fd5b600860019054906101000a900473ffffffffffffffffffffffffffffffffffffffff1673ffffffffffffffffffffffffffffffffffffffff168373ffffffffffffffffffffffffffffffffffffffff16146108cb576040517f08c379a00000000000000000000000000000000000000000000000000000000081526004016108c290612a36565b60405180910390fd5b600073ffffffffffffffffffffffffffffffffffffffff168273ffffffffffffffffffffffffffffffffffffffff16141561093b576040517f08c379a000000000000000000000000000000000000000000000000000000000815260040161093290612956565b60405180910390fd5b60405180606001604052808373ffffffffffffffffffffffffffffffffffffffff1681526020014267ffffffffffffffff168152602001600015158152506004600083815260200190815260200160002060008201518160000160006101000a81548173ffffffffffffffffffffffffffffffffffffffff021916908373ffffffffffffffffffffffffffffffffffffffff16021790555060208201518160000160146101000a81548167ffffffffffffffff021916908367ffffffffffffffff160217905550604082015181600001601c6101000a81548160ff0219169083151502179055509050506001600560008473ffffffffffffffffffffffffffffffffffffffff1673ffffffffffffffffffffffffffffffffffffffff16815260200190815260200160002060000160008282829054906101000a90046fffffffffffffffffffffffffffffffff16610a939190612baa565b92506101000a8154816fffffffffffffffffffffffffffffffff02191690836fffffffffffffffffffffffffffffffff1602179055506001600560008573ffffffffffffffffffffffffffffffffffffffff1673ffffffffffffffffffffffffffffffffffffffff16815260200190815260200160002060000160008282829054906101000a90046fffffffffffffffffffffffffffffffff16610b379190612c77565b92506101000a8154816fffffffffffffffffffffffffffffffff02191690836fffffffffffffffffffffffffffffffff160217905550808273ffffffffffffffffffffffffffffffffffffffff168473ffffffffffffffffffffffffffffffffffffffff167fddf252ad1be2c89b69c2b068fc378daa952ba7f163c4a11628f55a4df523b3ef60405160405180910390a4505050565b6000610bd883611529565b8210610c19576040517f08c379a0000000000000000000000000000000000000000000000000000000008152600401610c1090612896565b60405180910390fd5b6000610c236107ac565b905060008060005b83811015610da4576000600460008381526020019081526020016000206040518060600160405290816000820160009054906101000a900473ffffffffffffffffffffffffffffffffffffffff1673ffffffffffffffffffffffffffffffffffffffff1673ffffffffffffffffffffffffffffffffffffffff1681526020016000820160149054906101000a900467ffffffffffffffff1667ffffffffffffffff1667ffffffffffffffff16815260200160008201601c9054906101000a900460ff1615151515815250509050600073ffffffffffffffffffffffffffffffffffffffff16816000015173ffffffffffffffffffffffffffffffffffffffff1614610d3857806000015192505b8773ffffffffffffffffffffffffffffffffffffffff168373ffffffffffffffffffffffffffffffffffffffff161415610d905786841415610d81578195505050505050610de0565b8380610d8c90612e3e565b9450505b508080610d9c90612e3e565b915050610c2b565b506040517f08c379a0000000000000000000000000000000000000000000000000000000008152600401610dd790612a96565b60405180910390fd5b92915050565b6000610df182611b87565b90506000816000015173ffffffffffffffffffffffffffffffffffffffff16610e18611acd565b73ffffffffffffffffffffffffffffffffffffffff161480610e745750610e3d611acd565b73ffffffffffffffffffffffffffffffffffffffff16610e5c8461060e565b73ffffffffffffffffffffffffffffffffffffffff16145b80610e905750610e8f8260000151610e8a611acd565b6119c2565b5b905080610ed2576040517f08c379a0000000000000000000000000000000000000000000000000000000008152600401610ec990612a16565b60405180910390fd5b8473ffffffffffffffffffffffffffffffffffffffff16826000015173ffffffffffffffffffffffffffffffffffffffff1614610f44576040517f08c379a0000000000000000000000000000000000000000000000000000000008152600401610f3b906129b6565b60405180910390fd5b600073ffffffffffffffffffffffffffffffffffffffff168473ffffffffffffffffffffffffffffffffffffffff161415610fb4576040517f08c379a0000000000000000000000000000000000000000000000000000000008152600401610fab90612936565b60405180910390fd5b610fc18585856001611da5565b610fd16000848460000151611ad5565b6001600560008773ffffffffffffffffffffffffffffffffffffffff1673ffffffffffffffffffffffffffffffffffffffff16815260200190815260200160002060000160008282829054906101000a90046fffffffffffffffffffffffffffffffff1661103f9190612c77565b92506101000a8154816fffffffffffffffffffffffffffffffff02191690836fffffffffffffffffffffffffffffffff1602179055506001600560008673ffffffffffffffffffffffffffffffffffffffff1673ffffffffffffffffffffffffffffffffffffffff16815260200190815260200160002060000160008282829054906101000a90046fffffffffffffffffffffffffffffffff166110e39190612baa565b92506101000a8154816fffffffffffffffffffffffffffffffff02191690836fffffffffffffffffffffffffffffffff16021790555060405180606001604052808573ffffffffffffffffffffffffffffffffffffffff1681526020014267ffffffffffffffff168152602001600015158152506004600085815260200190815260200160002060008201518160000160006101000a81548173ffffffffffffffffffffffffffffffffffffffff021916908373ffffffffffffffffffffffffffffffffffffffff16021790555060208201518160000160146101000a81548167ffffffffffffffff021916908367ffffffffffffffff160217905550604082015181600001601c6101000a81548160ff02191690831515021790555090505060006001846112129190612bf0565b9050600073ffffffffffffffffffffffffffffffffffffffff166004600083815260200190815260200160002060000160009054906101000a900473ffffffffffffffffffffffffffffffffffffffff1673ffffffffffffffffffffffffffffffffffffffff1614156113815761128881611ac0565b15611380576040518060600160405280846000015173ffffffffffffffffffffffffffffffffffffffff168152602001846020015167ffffffffffffffff168152602001600015158152506004600083815260200190815260200160002060008201518160000160006101000a81548173ffffffffffffffffffffffffffffffffffffffff021916908373ffffffffffffffffffffffffffffffffffffffff16021790555060208201518160000160146101000a81548167ffffffffffffffff021916908367ffffffffffffffff160217905550604082015181600001601c6101000a81548160ff0219169083151502179055509050505b5b838573ffffffffffffffffffffffffffffffffffffffff168773ffffffffffffffffffffffffffffffffffffffff167fddf252ad1be2c89b69c2b068fc378daa952ba7f163c4a11628f55a4df523b3ef60405160405180910390a46113e98686866001611dab565b505050505050565b61140c83838360405180602001604052806000815250611825565b505050565b600061141b6107ac565b821061145c576040517f08c379a000000000000000000000000000000000000000000000000000000000815260040161145390612916565b60405180910390fd5b819050919050565b600860009054906101000a900460ff16156114b4576040517f08c379a00000000000000000000000000000000000000000000000000000000081526004016114ab906128b6565b60405180910390fd5b80600860016101000a81548173ffffffffffffffffffffffffffffffffffffffff021916908373ffffffffffffffffffffffffffffffffffffffff1602179055506001600860006101000a81548160ff02191690831515021790555050565b600061151e82611b87565b600001519050919050565b60008073ffffffffffffffffffffffffffffffffffffffff168273ffffffffffffffffffffffffffffffffffffffff16141561159a576040517f08c379a000000000000000000000000000000000000000000000000000000000815260040161159190612996565b60405180910390fd5b600560008373ffffffffffffffffffffffffffffffffffffffff1673ffffffffffffffffffffffffffffffffffffffff16815260200190815260200160002060000160009054906101000a90046fffffffffffffffffffffffffffffffff166fffffffffffffffffffffffffffffffff169050919050565b60606002805461162190612ddb565b80601f016020809104026020016040519081016040528092919081815260200182805461164d90612ddb565b801561169a5780601f1061166f5761010080835404028352916020019161169a565b820191906000526020600020905b81548152906001019060200180831161167d57829003601f168201915b5050505050905090565b6116ac611acd565b73ffffffffffffffffffffffffffffffffffffffff168273ffffffffffffffffffffffffffffffffffffffff16141561171a576040517f08c379a0000000000000000000000000000000000000000000000000000000008152600401611711906129f6565b60405180910390fd5b8060076000611727611acd565b73ffffffffffffffffffffffffffffffffffffffff1673ffffffffffffffffffffffffffffffffffffffff16815260200190815260200160002060008473ffffffffffffffffffffffffffffffffffffffff1673ffffffffffffffffffffffffffffffffffffffff16815260200190815260200160002060006101000a81548160ff0219169083151502179055508173ffffffffffffffffffffffffffffffffffffffff166117d4611acd565b73ffffffffffffffffffffffffffffffffffffffff167f17307eab39ab6107e8899845ad3d59bd9653f200f220920489ca2b5937696c31836040516118199190612859565b60405180910390a35050565b611830848484610de6565b61183c84848484611db1565b61187b576040517f08c379a000000000000000000000000000000000000000000000000000000000815260040161187290612a76565b60405180910390fd5b50505050565b600860019054906101000a900473ffffffffffffffffffffffffffffffffffffffff1681565b60606118b282611ac0565b6118f1576040517f08c379a00000000000000000000000000000000000000000000000000000000081526004016118e8906129d6565b60405180910390fd5b6001151560046000848152602001908152602001600020600001601c9054906101000a900460ff161515141561195e576040518060400160405280600481526020017f446561640000000000000000000000000000000000000000000000000000000081525090506119b7565b6000611968611f48565b9050600081511161198857604051806020016040528060008152506119b3565b8061199284611f5f565b6040516020016119a39291906127ce565b6040516020818303038152906040525b9150505b919050565b60095481565b6000600760008473ffffffffffffffffffffffffffffffffffffffff1673ffffffffffffffffffffffffffffffffffffffff16815260200190815260200160002060008373ffffffffffffffffffffffffffffffffffffffff1673ffffffffffffffffffffffffffffffffffffffff16815260200190815260200160002060009054906101000a900460ff16905092915050565b60007f01ffc9a7000000000000000000000000000000000000000000000000000000007bffffffffffffffffffffffffffffffffffffffffffffffffffffffff1916827bffffffffffffffffffffffffffffffffffffffffffffffffffffffff1916149050919050565b6000805482109050919050565b600033905090565b826006600084815260200190815260200160002060006101000a81548173ffffffffffffffffffffffffffffffffffffffff021916908373ffffffffffffffffffffffffffffffffffffffff160217905550818373ffffffffffffffffffffffffffffffffffffffff168273ffffffffffffffffffffffffffffffffffffffff167f8c5be1e5ebec7d5bd14f71427d1e84f3dd0314c0f7b2291e5b200ac8c7c3b92560405160405180910390a4505050565b611b8f61212f565b611b9882611ac0565b611bd7576040517f08c379a0000000000000000000000000000000000000000000000000000000008152600401611bce906128f6565b60405180910390fd5b60007f00000000000000000000000000000000000000000000000000000000000000008310611c3b5760017f000000000000000000000000000000000000000000000000000000000000000084611c2e9190612cab565b611c389190612bf0565b90505b60008390505b818110611d64576000600460008381526020019081526020016000206040518060600160405290816000820160009054906101000a900473ffffffffffffffffffffffffffffffffffffffff1673ffffffffffffffffffffffffffffffffffffffff1673ffffffffffffffffffffffffffffffffffffffff1681526020016000820160149054906101000a900467ffffffffffffffff1667ffffffffffffffff1667ffffffffffffffff16815260200160008201601c9054906101000a900460ff1615151515815250509050600073ffffffffffffffffffffffffffffffffffffffff16816000015173ffffffffffffffffffffffffffffffffffffffff1614611d5057809350505050611da0565b508080611d5c90612db1565b915050611c41565b506040517f08c379a0000000000000000000000000000000000000000000000000000000008152600401611d9790612ab6565b60405180910390fd5b919050565b50505050565b50505050565b6000611dd28473ffffffffffffffffffffffffffffffffffffffff1661210c565b15611f3b578373ffffffffffffffffffffffffffffffffffffffff1663150b7a02611dfb611acd565b8786866040518563ffffffff1660e01b8152600401611e1d949392919061280d565b602060405180830381600087803b158015611e3757600080fd5b505af1925050508015611e6857506040513d601f19601f82011682018060405250810190611e659190612413565b60015b611eeb573d8060008114611e98576040519150601f19603f3d011682016040523d82523d6000602084013e611e9d565b606091505b50600081511415611ee3576040517f08c379a0000000000000000000000000000000000000000000000000000000008152600401611eda90612a76565b60405180910390fd5b805181602001fd5b63150b7a0260e01b7bffffffffffffffffffffffffffffffffffffffffffffffffffffffff1916817bffffffffffffffffffffffffffffffffffffffffffffffffffffffff191614915050611f40565b600190505b949350505050565b606060405180602001604052806000815250905090565b60606000821415611fa7576040518060400160405280600181526020017f30000000000000000000000000000000000000000000000000000000000000008152509050612107565b600082905060005b60008214611fd9578080611fc290612e3e565b915050600a82611fd29190612c46565b9150611faf565b60008167ffffffffffffffff81111561201b577f4e487b7100000000000000000000000000000000000000000000000000000000600052604160045260246000fd5b6040519080825280601f01601f19166020018201604052801561204d5781602001600182028036833780820191505090505b5090505b60008514612100576001826120669190612cab565b9150600a856120759190612e87565b60306120819190612bf0565b60f81b8183815181106120bd577f4e487b7100000000000000000000000000000000000000000000000000000000600052603260045260246000fd5b60200101907effffffffffffffffffffffffffffffffffffffffffffffffffffffffffffff1916908160001a905350600a856120f99190612c46565b9450612051565b8093505050505b919050565b6000808273ffffffffffffffffffffffffffffffffffffffff163b119050919050565b6040518060600160405280600073ffffffffffffffffffffffffffffffffffffffff168152602001600067ffffffffffffffff1681526020016000151581525090565b600061218561218084612b36565b612b11565b90508281526020810184848401111561219d57600080fd5b6121a8848285612d6f565b509392505050565b6000813590506121bf816134f0565b92915050565b6000813590506121d481613507565b92915050565b6000813590506121e98161351e565b92915050565b6000815190506121fe8161351e565b92915050565b600082601f83011261221557600080fd5b8135612225848260208601612172565b91505092915050565b60008135905061223d81613535565b92915050565b60006020828403121561225557600080fd5b6000612263848285016121b0565b91505092915050565b6000806040838503121561227f57600080fd5b600061228d858286016121b0565b925050602061229e858286016121b0565b9150509250929050565b6000806000606084860312156122bd57600080fd5b60006122cb868287016121b0565b93505060206122dc868287016121b0565b92505060406122ed8682870161222e565b9150509250925092565b6000806000806080858703121561230d57600080fd5b600061231b878288016121b0565b945050602061232c878288016121b0565b935050604061233d8782880161222e565b925050606085013567ffffffffffffffff81111561235a57600080fd5b61236687828801612204565b91505092959194509250565b6000806040838503121561238557600080fd5b6000612393858286016121b0565b92505060206123a4858286016121c5565b9150509250929050565b600080604083850312156123c157600080fd5b60006123cf858286016121b0565b92505060206123e08582860161222e565b9150509250929050565b6000602082840312156123fc57600080fd5b600061240a848285016121da565b91505092915050565b60006020828403121561242557600080fd5b6000612433848285016121ef565b91505092915050565b60006020828403121561244e57600080fd5b600061245c8482850161222e565b91505092915050565b61246e81612cdf565b82525050565b61247d81612cf1565b82525050565b600061248e82612b67565b6124988185612b7d565b93506124a8818560208601612d7e565b6124b181612f74565b840191505092915050565b60006124c782612b72565b6124d18185612b8e565b93506124e1818560208601612d7e565b6124ea81612f74565b840191505092915050565b600061250082612b72565b61250a8185612b9f565b935061251a818560208601612d7e565b80840191505092915050565b6000612533602283612b8e565b915061253e82612f85565b604082019050919050565b6000612556600c83612b8e565b915061256182612fd4565b602082019050919050565b6000612579602583612b8e565b915061258482612ffd565b604082019050919050565b600061259c602a83612b8e565b91506125a78261304c565b604082019050919050565b60006125bf602383612b8e565b91506125ca8261309b565b604082019050919050565b60006125e2602583612b8e565b91506125ed826130ea565b604082019050919050565b6000612605602483612b8e565b915061261082613139565b604082019050919050565b6000612628603983612b8e565b915061263382613188565b604082019050919050565b600061264b602b83612b8e565b9150612656826131d7565b604082019050919050565b600061266e602683612b8e565b915061267982613226565b604082019050919050565b6000612691602f83612b8e565b915061269c82613275565b604082019050919050565b60006126b4601a83612b8e565b91506126bf826132c4565b602082019050919050565b60006126d7603283612b8e565b91506126e2826132ed565b604082019050919050565b60006126fa600f83612b8e565b91506127058261333c565b602082019050919050565b600061271d602283612b8e565b915061272882613365565b604082019050919050565b6000612740603383612b8e565b915061274b826133b4565b604082019050919050565b6000612763602e83612b8e565b915061276e82613403565b604082019050919050565b6000612786602f83612b8e565b915061279182613452565b604082019050919050565b60006127a9602d83612b8e565b91506127b4826134a1565b604082019050919050565b6127c881612d65565b82525050565b60006127da82856124f5565b91506127e682846124f5565b91508190509392505050565b60006020820190506128076000830184612465565b92915050565b60006080820190506128226000830187612465565b61282f6020830186612465565b61283c60408301856127bf565b818103606083015261284e8184612483565b905095945050505050565b600060208201905061286e6000830184612474565b92915050565b6000602082019050818103600083015261288e81846124bc565b905092915050565b600060208201905081810360008301526128af81612526565b9050919050565b600060208201905081810360008301526128cf81612549565b9050919050565b600060208201905081810360008301526128ef8161256c565b9050919050565b6000602082019050818103600083015261290f8161258f565b9050919050565b6000602082019050818103600083015261292f816125b2565b9050919050565b6000602082019050818103600083015261294f816125d5565b9050919050565b6000602082019050818103600083015261296f816125f8565b9050919050565b6000602082019050818103600083015261298f8161261b565b9050919050565b600060208201905081810360008301526129af8161263e565b9050919050565b600060208201905081810360008301526129cf81612661565b9050919050565b600060208201905081810360008301526129ef81612684565b9050919050565b60006020820190508181036000830152612a0f816126a7565b9050919050565b60006020820190508181036000830152612a2f816126ca565b9050919050565b60006020820190508181036000830152612a4f816126ed565b9050919050565b60006020820190508181036000830152612a6f81612710565b9050919050565b60006020820190508181036000830152612a8f81612733565b9050919050565b60006020820190508181036000830152612aaf81612756565b9050919050565b60006020820190508181036000830152612acf81612779565b9050919050565b60006020820190508181036000830152612aef8161279c565b9050919050565b6000602082019050612b0b60008301846127bf565b92915050565b6000612b1b612b2c565b9050612b278282612e0d565b919050565b6000604051905090565b600067ffffffffffffffff821115612b5157612b50612f45565b5b612b5a82612f74565b9050602081019050919050565b600081519050919050565b600081519050919050565b600082825260208201905092915050565b600082825260208201905092915050565b600081905092915050565b6000612bb582612d29565b9150612bc083612d29565b9250826fffffffffffffffffffffffffffffffff03821115612be557612be4612eb8565b5b828201905092915050565b6000612bfb82612d65565b9150612c0683612d65565b9250827fffffffffffffffffffffffffffffffffffffffffffffffffffffffffffffffff03821115612c3b57612c3a612eb8565b5b828201905092915050565b6000612c5182612d65565b9150612c5c83612d65565b925082612c6c57612c6b612ee7565b5b828204905092915050565b6000612c8282612d29565b9150612c8d83612d29565b925082821015612ca057612c9f612eb8565b5b828203905092915050565b6000612cb682612d65565b9150612cc183612d65565b925082821015612cd457612cd3612eb8565b5b828203905092915050565b6000612cea82612d45565b9050919050565b60008115159050919050565b60007fffffffff0000000000000000000000000000000000000000000000000000000082169050919050565b60006fffffffffffffffffffffffffffffffff82169050919050565b600073ffffffffffffffffffffffffffffffffffffffff82169050919050565b6000819050919050565b82818337600083830152505050565b60005b83811015612d9c578082015181840152602081019050612d81565b83811115612dab576000848401525b50505050565b6000612dbc82612d65565b91506000821415612dd057612dcf612eb8565b5b600182039050919050565b60006002820490506001821680612df357607f821691505b60208210811415612e0757612e06612f16565b5b50919050565b612e1682612f74565b810181811067ffffffffffffffff82111715612e3557612e34612f45565b5b80604052505050565b6000612e4982612d65565b91507fffffffffffffffffffffffffffffffffffffffffffffffffffffffffffffffff821415612e7c57612e7b612eb8565b5b600182019050919050565b6000612e9282612d65565b9150612e9d83612d65565b925082612ead57612eac612ee7565b5b828206905092915050565b7f4e487b7100000000000000000000000000000000000000000000000000000000600052601160045260246000fd5b7f4e487b7100000000000000000000000000000000000000000000000000000000600052601260045260246000fd5b7f4e487b7100000000000000000000000000000000000000000000000000000000600052602260045260246000fd5b7f4e487b7100000000000000000000000000000000000000000000000000000000600052604160045260246000fd5b6000601f19601f8301169050919050565b7f455243373231413a206f776e657220696e646578206f7574206f6620626f756e60008201527f6473000000000000000000000000000000000000000000000000000000000000602082015250565b7f416c7265616479207365742e0000000000000000000000000000000000000000600082015250565b7f4552433732313a207472616e736665722066726f6d20696e636f72726563742060008201527f6f776e6572000000000000000000000000000000000000000000000000000000602082015250565b7f455243373231413a206f776e657220717565727920666f72206e6f6e6578697360008201527f74656e7420746f6b656e00000000000000000000000000000000000000000000602082015250565b7f455243373231413a20676c6f62616c20696e646578206f7574206f6620626f7560008201527f6e64730000000000000000000000000000000000000000000000000000000000602082015250565b7f455243373231413a207472616e7366657220746f20746865207a65726f20616460008201527f6472657373000000000000000000000000000000000000000000000000000000602082015250565b7f4552433732313a207472616e7366657220746f20746865207a65726f2061646460008201527f7265737300000000000000000000000000000000000000000000000000000000602082015250565b7f455243373231413a20617070726f76652063616c6c6572206973206e6f74206f60008201527f776e6572206e6f7220617070726f76656420666f7220616c6c00000000000000602082015250565b7f455243373231413a2062616c616e636520717565727920666f7220746865207a60008201527f65726f2061646472657373000000000000000000000000000000000000000000602082015250565b7f455243373231413a207472616e736665722066726f6d20696e636f727265637460008201527f206f776e65720000000000000000000000000000000000000000000000000000602082015250565b7f4552433732314d657461646174613a2055524920717565727920666f72206e6f60008201527f6e6578697374656e7420746f6b656e0000000000000000000000000000000000602082015250565b7f455243373231413a20617070726f766520746f2063616c6c6572000000000000600082015250565b7f455243373231413a207472616e736665722063616c6c6572206973206e6f742060008201527f6f776e6572206e6f7220617070726f7665640000000000000000000000000000602082015250565b7f57726f6e6720636f6e74726163742e0000000000000000000000000000000000600082015250565b7f455243373231413a20617070726f76616c20746f2063757272656e74206f776e60008201527f6572000000000000000000000000000000000000000000000000000000000000602082015250565b7f455243373231413a207472616e7366657220746f206e6f6e204552433732315260008201527f6563656976657220696d706c656d656e74657200000000000000000000000000602082015250565b7f455243373231413a20756e61626c6520746f2067657420746f6b656e206f662060008201527f6f776e657220627920696e646578000000000000000000000000000000000000602082015250565b7f455243373231413a20756e61626c6520746f2064657465726d696e652074686560008201527f206f776e6572206f6620746f6b656e0000000000000000000000000000000000602082015250565b7f455243373231413a20617070726f76656420717565727920666f72206e6f6e6560008201527f78697374656e7420746f6b656e00000000000000000000000000000000000000602082015250565b6134f981612cdf565b811461350457600080fd5b50565b61351081612cf1565b811461351b57600080fd5b50565b61352781612cfd565b811461353257600080fd5b50565b61353e81612d65565b811461354957600080fd5b5056fea2646970667358221220d6cc814e4eb035f3259efcc846fa1bd4de1d0c8d3c4b464c0d32bb105b101ac164736f6c63430008040033",
  "linkReferences": {},
  "deployedLinkReferences": {}
}