{
  "_format": "hh-sol-artifact-1",
  "contractName": "Factions",
  "sourceName": "contracts/Factions.sol",
  "abi": [
    {
      "inputs": [],
      "stateMutability": "nonpayable",
      "type": "constructor"
    },
    {
      "anonymous": false,
      "inputs": [
        {
          "indexed": true,
          "internalType": "address",
          "name": "previousOwner",
          "type": "address"
        },
        {
          "indexed": true,
          "internalType": "address",
          "name": "newOwner",
          "type": "address"
        }
      ],
      "name": "OwnershipTransferred",
      "type": "event"
    },
    {
      "inputs": [
        {
          "internalType": "address",
          "name": "",
          "type": "address"
        }
      ],
      "name": "factionMembers",
      "outputs": [
        {
          "internalType": "address",
          "name": "leader",
          "type": "address"
        },
        {
          "internalType": "uint256",
          "name": "members",
          "type": "uint256"
        },
        {
          "internalType": "uint256",
          "name": "pixelTreasury",
          "type": "uint256"
        },
        {
          "internalType": "bool",
          "name": "councilMember",
          "type": "bool"
        }
      ],
      "stateMutability": "view",
      "type": "function"
    },
    {
      "inputs": [],
      "name": "owner",
      "outputs": [
        {
          "internalType": "address",
          "name": "",
          "type": "address"
        }
      ],
      "stateMutability": "view",
      "type": "function"
    },
    {
      "inputs": [],
      "name": "renounceOwnership",
      "outputs": [],
      "stateMutability": "nonpayable",
      "type": "function"
    },
    {
      "inputs": [
        {
          "internalType": "address",
          "name": "newOwner",
          "type": "address"
        }
      ],
      "name": "transferOwnership",
      "outputs": [],
      "stateMutability": "nonpayable",
      "type": "function"
    }
  ],
  "bytecode": "0x608060405234801561001057600080fd5b5061002d61002261003260201b60201c565b61003a60201b60201c565b6100fe565b600033905090565b60008060009054906101000a900473ffffffffffffffffffffffffffffffffffffffff169050816000806101000a81548173ffffffffffffffffffffffffffffffffffffffff021916908373ffffffffffffffffffffffffffffffffffffffff1602179055508173ffffffffffffffffffffffffffffffffffffffff168173ffffffffffffffffffffffffffffffffffffffff167f8be0079c531659141344cd1fd0a4f28419497f9722a3daafe3b4186f6b6457e060405160405180910390a35050565b6106098061010d6000396000f3fe608060405234801561001057600080fd5b506004361061004c5760003560e01c80632b0391cb14610051578063715018a6146100845780638da5cb5b1461008e578063f2fde38b146100ac575b600080fd5b61006b600480360381019061006691906103af565b6100c8565b60405161007b9493929190610466565b60405180910390f35b61008c610125565b005b6100966101ad565b6040516100a3919061044b565b60405180910390f35b6100c660048036038101906100c191906103af565b6101d6565b005b60016020528060005260406000206000915090508060000160009054906101000a900473ffffffffffffffffffffffffffffffffffffffff16908060010154908060020154908060030160009054906101000a900460ff16905084565b61012d6102ce565b73ffffffffffffffffffffffffffffffffffffffff1661014b6101ad565b73ffffffffffffffffffffffffffffffffffffffff16146101a1576040517f08c379a0000000000000000000000000000000000000000000000000000000008152600401610198906104cb565b60405180910390fd5b6101ab60006102d6565b565b60008060009054906101000a900473ffffffffffffffffffffffffffffffffffffffff16905090565b6101de6102ce565b73ffffffffffffffffffffffffffffffffffffffff166101fc6101ad565b73ffffffffffffffffffffffffffffffffffffffff1614610252576040517f08c379a0000000000000000000000000000000000000000000000000000000008152600401610249906104cb565b60405180910390fd5b600073ffffffffffffffffffffffffffffffffffffffff168173ffffffffffffffffffffffffffffffffffffffff1614156102c2576040517f08c379a00000000000000000000000000000000000000000000000000000000081526004016102b9906104ab565b60405180910390fd5b6102cb816102d6565b50565b600033905090565b60008060009054906101000a900473ffffffffffffffffffffffffffffffffffffffff169050816000806101000a81548173ffffffffffffffffffffffffffffffffffffffff021916908373ffffffffffffffffffffffffffffffffffffffff1602179055508173ffffffffffffffffffffffffffffffffffffffff168173ffffffffffffffffffffffffffffffffffffffff167f8be0079c531659141344cd1fd0a4f28419497f9722a3daafe3b4186f6b6457e060405160405180910390a35050565b6000813590506103a9816105bc565b92915050565b6000602082840312156103c157600080fd5b60006103cf8482850161039a565b91505092915050565b6103e1816104fc565b82525050565b6103f08161050e565b82525050565b60006104036026836104eb565b915061040e82610544565b604082019050919050565b60006104266020836104eb565b915061043182610593565b602082019050919050565b6104458161053a565b82525050565b600060208201905061046060008301846103d8565b92915050565b600060808201905061047b60008301876103d8565b610488602083018661043c565b610495604083018561043c565b6104a260608301846103e7565b95945050505050565b600060208201905081810360008301526104c4816103f6565b9050919050565b600060208201905081810360008301526104e481610419565b9050919050565b600082825260208201905092915050565b60006105078261051a565b9050919050565b60008115159050919050565b600073ffffffffffffffffffffffffffffffffffffffff82169050919050565b6000819050919050565b7f4f776e61626c653a206e6577206f776e657220697320746865207a65726f206160008201527f6464726573730000000000000000000000000000000000000000000000000000602082015250565b7f4f776e61626c653a2063616c6c6572206973206e6f7420746865206f776e6572600082015250565b6105c5816104fc565b81146105d057600080fd5b5056fea2646970667358221220f1e11bd1fa3c06e52df05b62449d114e16b764c4d9b802a47585972089a685ca64736f6c63430008040033",
  "linkReferences": {},
  "deployedLinkReferences": {}
}