{
  "_format": "hh-sol-artifact-1",
  "contractName": "Council",
  "sourceName": "contracts/Council.sol",
  "abi": [
    {
      "inputs": [],
      "stateMutability": "nonpayable",
      "type": "constructor"
    },
    {
      "anonymous": false,
      "inputs": [
        {
          "indexed": true,
          "internalType": "address",
          "name": "previousOwner",
          "type": "address"
        },
        {
          "indexed": true,
          "internalType": "address",
          "name": "newOwner",
          "type": "address"
        }
      ],
      "name": "OwnershipTransferred",
      "type": "event"
    },
    {
      "inputs": [],
      "name": "owner",
      "outputs": [
        {
          "internalType": "address",
          "name": "",
          "type": "address"
        }
      ],
      "stateMutability": "view",
      "type": "function"
    },
    {
      "inputs": [
        {
          "internalType": "address",
          "name": "",
          "type": "address"
        }
      ],
      "name": "profession",
      "outputs": [
        {
          "internalType": "contract Profession",
          "name": "",
          "type": "address"
        }
      ],
      "stateMutability": "view",
      "type": "function"
    },
    {
      "inputs": [],
      "name": "renounceOwnership",
      "outputs": [],
      "stateMutability": "nonpayable",
      "type": "function"
    },
    {
      "inputs": [
        {
          "internalType": "address",
          "name": "newOwner",
          "type": "address"
        }
      ],
      "name": "transferOwnership",
      "outputs": [],
      "stateMutability": "nonpayable",
      "type": "function"
    }
  ],
  "bytecode": "0x608060405234801561001057600080fd5b5061002d61002261003260201b60201c565b61003a60201b60201c565b6100fe565b600033905090565b60008060009054906101000a900473ffffffffffffffffffffffffffffffffffffffff169050816000806101000a81548173ffffffffffffffffffffffffffffffffffffffff021916908373ffffffffffffffffffffffffffffffffffffffff1602179055508173ffffffffffffffffffffffffffffffffffffffff168173ffffffffffffffffffffffffffffffffffffffff167f8be0079c531659141344cd1fd0a4f28419497f9722a3daafe3b4186f6b6457e060405160405180910390a35050565b6105b18061010d6000396000f3fe608060405234801561001057600080fd5b506004361061004c5760003560e01c8063715018a6146100515780638da5cb5b1461005b578063e8fca35814610079578063f2fde38b146100a9575b600080fd5b6100596100c5565b005b61006361014d565b604051610070919061040f565b60405180910390f35b610093600480360381019061008e9190610382565b610176565b6040516100a0919061042a565b60405180910390f35b6100c360048036038101906100be9190610382565b6101a9565b005b6100cd6102a1565b73ffffffffffffffffffffffffffffffffffffffff166100eb61014d565b73ffffffffffffffffffffffffffffffffffffffff1614610141576040517f08c379a000000000000000000000000000000000000000000000000000000000815260040161013890610465565b60405180910390fd5b61014b60006102a9565b565b60008060009054906101000a900473ffffffffffffffffffffffffffffffffffffffff16905090565b60016020528060005260406000206000915054906101000a900473ffffffffffffffffffffffffffffffffffffffff1681565b6101b16102a1565b73ffffffffffffffffffffffffffffffffffffffff166101cf61014d565b73ffffffffffffffffffffffffffffffffffffffff1614610225576040517f08c379a000000000000000000000000000000000000000000000000000000000815260040161021c90610465565b60405180910390fd5b600073ffffffffffffffffffffffffffffffffffffffff168173ffffffffffffffffffffffffffffffffffffffff161415610295576040517f08c379a000000000000000000000000000000000000000000000000000000000815260040161028c90610445565b60405180910390fd5b61029e816102a9565b50565b600033905090565b60008060009054906101000a900473ffffffffffffffffffffffffffffffffffffffff169050816000806101000a81548173ffffffffffffffffffffffffffffffffffffffff021916908373ffffffffffffffffffffffffffffffffffffffff1602179055508173ffffffffffffffffffffffffffffffffffffffff168173ffffffffffffffffffffffffffffffffffffffff167f8be0079c531659141344cd1fd0a4f28419497f9722a3daafe3b4186f6b6457e060405160405180910390a35050565b60008135905061037c81610564565b92915050565b60006020828403121561039457600080fd5b60006103a28482850161036d565b91505092915050565b6103b481610496565b82525050565b6103c3816104c8565b82525050565b60006103d6602683610485565b91506103e1826104ec565b604082019050919050565b60006103f9602083610485565b91506104048261053b565b602082019050919050565b600060208201905061042460008301846103ab565b92915050565b600060208201905061043f60008301846103ba565b92915050565b6000602082019050818103600083015261045e816103c9565b9050919050565b6000602082019050818103600083015261047e816103ec565b9050919050565b600082825260208201905092915050565b60006104a1826104a8565b9050919050565b600073ffffffffffffffffffffffffffffffffffffffff82169050919050565b60006104d3826104da565b9050919050565b60006104e5826104a8565b9050919050565b7f4f776e61626c653a206e6577206f776e657220697320746865207a65726f206160008201527f6464726573730000000000000000000000000000000000000000000000000000602082015250565b7f4f776e61626c653a2063616c6c6572206973206e6f7420746865206f776e6572600082015250565b61056d81610496565b811461057857600080fd5b5056fea2646970667358221220ae36510a70a9b07eaa12518a3d35fd1f018c9c9c5e752fb4bcc80b9dcb4b181f64736f6c63430008040033",
  "linkReferences": {},
  "deployedLinkReferences": {}
}