{
  "_format": "hh-sol-artifact-1",
  "contractName": "Profession",
  "sourceName": "contracts/Council.sol",
  "abi": [
    {
      "inputs": [],
      "name": "currentContract",
      "outputs": [
        {
          "internalType": "address",
          "name": "",
          "type": "address"
        }
      ],
      "stateMutability": "view",
      "type": "function"
    },
    {
      "inputs": [
        {
          "internalType": "address",
          "name": "_currentContract",
          "type": "address"
        }
      ],
      "name": "setCurrentContract",
      "outputs": [
        {
          "internalType": "bool",
          "name": "",
          "type": "bool"
        }
      ],
      "stateMutability": "nonpayable",
      "type": "function"
    }
  ],
  "bytecode": "0x608060405234801561001057600080fd5b50610215806100206000396000f3fe608060405234801561001057600080fd5b50600436106100365760003560e01c80631bc6e9bd1461003b578063721d7d8e1461006b575b600080fd5b6100556004803603810190610050919061010d565b610089565b604051610062919061016f565b60405180910390f35b6100736100d4565b6040516100809190610154565b60405180910390f35b6000816000806101000a81548173ffffffffffffffffffffffffffffffffffffffff021916908373ffffffffffffffffffffffffffffffffffffffff16021790555060019050919050565b60008054906101000a900473ffffffffffffffffffffffffffffffffffffffff1681565b600081359050610107816101c8565b92915050565b60006020828403121561011f57600080fd5b600061012d848285016100f8565b91505092915050565b61013f8161018a565b82525050565b61014e8161019c565b82525050565b60006020820190506101696000830184610136565b92915050565b60006020820190506101846000830184610145565b92915050565b6000610195826101a8565b9050919050565b60008115159050919050565b600073ffffffffffffffffffffffffffffffffffffffff82169050919050565b6101d18161018a565b81146101dc57600080fd5b5056fea2646970667358221220a5b5336a2f6f8c6156969529f1edd0bea857e80ba6a87bec53b2500ed9b7057b64736f6c63430008040033",
  "linkReferences": {},
  "deployedLinkReferences": {}
}