{
  "_format": "hh-sol-artifact-1",
  "contractName": "Resources",
  "sourceName": "contracts/Resources.sol",
  "abi": [
    {
      "inputs": [
        {
          "internalType": "address",
          "name": "_pixel",
          "type": "address"
        }
      ],
      "stateMutability": "nonpayable",
      "type": "constructor"
    },
    {
      "anonymous": false,
      "inputs": [
        {
          "indexed": true,
          "internalType": "address",
          "name": "account",
          "type": "address"
        },
        {
          "indexed": true,
          "internalType": "address",
          "name": "operator",
          "type": "address"
        },
        {
          "indexed": false,
          "internalType": "bool",
          "name": "approved",
          "type": "bool"
        }
      ],
      "name": "ApprovalForAll",
      "type": "event"
    },
    {
      "anonymous": false,
      "inputs": [
        {
          "indexed": true,
          "internalType": "address",
          "name": "operator",
          "type": "address"
        },
        {
          "indexed": true,
          "internalType": "address",
          "name": "from",
          "type": "address"
        },
        {
          "indexed": true,
          "internalType": "address",
          "name": "to",
          "type": "address"
        },
        {
          "indexed": false,
          "internalType": "uint256[]",
          "name": "ids",
          "type": "uint256[]"
        },
        {
          "indexed": false,
          "internalType": "uint256[]",
          "name": "values",
          "type": "uint256[]"
        }
      ],
      "name": "TransferBatch",
      "type": "event"
    },
    {
      "anonymous": false,
      "inputs": [
        {
          "indexed": true,
          "internalType": "address",
          "name": "operator",
          "type": "address"
        },
        {
          "indexed": true,
          "internalType": "address",
          "name": "from",
          "type": "address"
        },
        {
          "indexed": true,
          "internalType": "address",
          "name": "to",
          "type": "address"
        },
        {
          "indexed": false,
          "internalType": "uint256",
          "name": "id",
          "type": "uint256"
        },
        {
          "indexed": false,
          "internalType": "uint256",
          "name": "value",
          "type": "uint256"
        }
      ],
      "name": "TransferSingle",
      "type": "event"
    },
    {
      "anonymous": false,
      "inputs": [
        {
          "indexed": false,
          "internalType": "string",
          "name": "value",
          "type": "string"
        },
        {
          "indexed": true,
          "internalType": "uint256",
          "name": "id",
          "type": "uint256"
        }
      ],
      "name": "URI",
      "type": "event"
    },
    {
      "inputs": [],
      "name": "DIAMOND_RINGS",
      "outputs": [
        {
          "internalType": "uint256",
          "name": "",
          "type": "uint256"
        }
      ],
      "stateMutability": "view",
      "type": "function"
    },
    {
      "inputs": [],
      "name": "DUAL_POTIONS",
      "outputs": [
        {
          "internalType": "uint256",
          "name": "",
          "type": "uint256"
        }
      ],
      "stateMutability": "view",
      "type": "function"
    },
    {
      "inputs": [],
      "name": "FOOD",
      "outputs": [
        {
          "internalType": "uint256",
          "name": "",
          "type": "uint256"
        }
      ],
      "stateMutability": "view",
      "type": "function"
    },
    {
      "inputs": [],
      "name": "GEMS",
      "outputs": [
        {
          "internalType": "uint256",
          "name": "",
          "type": "uint256"
        }
      ],
      "stateMutability": "view",
      "type": "function"
    },
    {
      "inputs": [],
      "name": "HEALTH_POTIONS",
      "outputs": [
        {
          "internalType": "uint256",
          "name": "",
          "type": "uint256"
        }
      ],
      "stateMutability": "view",
      "type": "function"
    },
    {
      "inputs": [],
      "name": "METAL",
      "outputs": [
        {
          "internalType": "uint256",
          "name": "",
          "type": "uint256"
        }
      ],
      "stateMutability": "view",
      "type": "function"
    },
    {
      "inputs": [],
      "name": "REPAIR_HAMMER",
      "outputs": [
        {
          "internalType": "uint256",
          "name": "",
          "type": "uint256"
        }
      ],
      "stateMutability": "view",
      "type": "function"
    },
    {
      "inputs": [],
      "name": "SKELETON_BONES",
      "outputs": [
        {
          "internalType": "uint256",
          "name": "",
          "type": "uint256"
        }
      ],
      "stateMutability": "view",
      "type": "function"
    },
    {
      "inputs": [],
      "name": "STAMINA_POTIONS",
      "outputs": [
        {
          "internalType": "uint256",
          "name": "",
          "type": "uint256"
        }
      ],
      "stateMutability": "view",
      "type": "function"
    },
    {
      "inputs": [],
      "name": "STONE",
      "outputs": [
        {
          "internalType": "uint256",
          "name": "",
          "type": "uint256"
        }
      ],
      "stateMutability": "view",
      "type": "function"
    },
    {
      "inputs": [],
      "name": "WOOD",
      "outputs": [
        {
          "internalType": "uint256",
          "name": "",
          "type": "uint256"
        }
      ],
      "stateMutability": "view",
      "type": "function"
    },
    {
      "inputs": [
        {
          "internalType": "address",
          "name": "account",
          "type": "address"
        },
        {
          "internalType": "uint256",
          "name": "id",
          "type": "uint256"
        }
      ],
      "name": "balanceOf",
      "outputs": [
        {
          "internalType": "uint256",
          "name": "",
          "type": "uint256"
        }
      ],
      "stateMutability": "view",
      "type": "function"
    },
    {
      "inputs": [
        {
          "internalType": "address[]",
          "name": "accounts",
          "type": "address[]"
        },
        {
          "internalType": "uint256[]",
          "name": "ids",
          "type": "uint256[]"
        }
      ],
      "name": "balanceOfBatch",
      "outputs": [
        {
          "internalType": "uint256[]",
          "name": "",
          "type": "uint256[]"
        }
      ],
      "stateMutability": "view",
      "type": "function"
    },
    {
      "inputs": [
        {
          "internalType": "uint256",
          "name": "amount",
          "type": "uint256"
        }
      ],
      "name": "chopWood",
      "outputs": [],
      "stateMutability": "nonpayable",
      "type": "function"
    },
    {
      "inputs": [
        {
          "internalType": "uint256",
          "name": "amount",
          "type": "uint256"
        }
      ],
      "name": "harvestFood",
      "outputs": [],
      "stateMutability": "nonpayable",
      "type": "function"
    },
    {
      "inputs": [
        {
          "internalType": "address",
          "name": "account",
          "type": "address"
        },
        {
          "internalType": "address",
          "name": "operator",
          "type": "address"
        }
      ],
      "name": "isApprovedForAll",
      "outputs": [
        {
          "internalType": "bool",
          "name": "",
          "type": "bool"
        }
      ],
      "stateMutability": "view",
      "type": "function"
    },
    {
      "inputs": [
        {
          "internalType": "uint256",
          "name": "amount",
          "type": "uint256"
        }
      ],
      "name": "lootSkeleton",
      "outputs": [],
      "stateMutability": "nonpayable",
      "type": "function"
    },
    {
      "inputs": [
        {
          "internalType": "uint256",
          "name": "amount",
          "type": "uint256"
        }
      ],
      "name": "makeDiamondRing",
      "outputs": [],
      "stateMutability": "nonpayable",
      "type": "function"
    },
    {
      "inputs": [
        {
          "internalType": "uint256",
          "name": "amount",
          "type": "uint256"
        }
      ],
      "name": "makeDualPotion",
      "outputs": [],
      "stateMutability": "nonpayable",
      "type": "function"
    },
    {
      "inputs": [
        {
          "internalType": "uint256",
          "name": "amount",
          "type": "uint256"
        }
      ],
      "name": "makeGem",
      "outputs": [],
      "stateMutability": "nonpayable",
      "type": "function"
    },
    {
      "inputs": [
        {
          "internalType": "uint256",
          "name": "amount",
          "type": "uint256"
        }
      ],
      "name": "makeHealthPotion",
      "outputs": [],
      "stateMutability": "nonpayable",
      "type": "function"
    },
    {
      "inputs": [
        {
          "internalType": "uint256",
          "name": "amount",
          "type": "uint256"
        }
      ],
      "name": "makeRepairHammer",
      "outputs": [],
      "stateMutability": "nonpayable",
      "type": "function"
    },
    {
      "inputs": [
        {
          "internalType": "uint256",
          "name": "amount",
          "type": "uint256"
        }
      ],
      "name": "makeStaminaPotion",
      "outputs": [],
      "stateMutability": "nonpayable",
      "type": "function"
    },
    {
      "inputs": [
        {
          "internalType": "uint256",
          "name": "amount",
          "type": "uint256"
        }
      ],
      "name": "mineStone",
      "outputs": [],
      "stateMutability": "nonpayable",
      "type": "function"
    },
    {
      "inputs": [],
      "name": "pixel",
      "outputs": [
        {
          "internalType": "contract Pixel",
          "name": "",
          "type": "address"
        }
      ],
      "stateMutability": "view",
      "type": "function"
    },
    {
      "inputs": [
        {
          "internalType": "address",
          "name": "from",
          "type": "address"
        },
        {
          "internalType": "address",
          "name": "to",
          "type": "address"
        },
        {
          "internalType": "uint256[]",
          "name": "ids",
          "type": "uint256[]"
        },
        {
          "internalType": "uint256[]",
          "name": "amounts",
          "type": "uint256[]"
        },
        {
          "internalType": "bytes",
          "name": "data",
          "type": "bytes"
        }
      ],
      "name": "safeBatchTransferFrom",
      "outputs": [],
      "stateMutability": "nonpayable",
      "type": "function"
    },
    {
      "inputs": [
        {
          "internalType": "address",
          "name": "from",
          "type": "address"
        },
        {
          "internalType": "address",
          "name": "to",
          "type": "address"
        },
        {
          "internalType": "uint256",
          "name": "id",
          "type": "uint256"
        },
        {
          "internalType": "uint256",
          "name": "amount",
          "type": "uint256"
        },
        {
          "internalType": "bytes",
          "name": "data",
          "type": "bytes"
        }
      ],
      "name": "safeTransferFrom",
      "outputs": [],
      "stateMutability": "nonpayable",
      "type": "function"
    },
    {
      "inputs": [
        {
          "internalType": "address",
          "name": "operator",
          "type": "address"
        },
        {
          "internalType": "bool",
          "name": "approved",
          "type": "bool"
        }
      ],
      "name": "setApprovalForAll",
      "outputs": [],
      "stateMutability": "nonpayable",
      "type": "function"
    },
    {
      "inputs": [
        {
          "internalType": "bytes4",
          "name": "interfaceId",
          "type": "bytes4"
        }
      ],
      "name": "supportsInterface",
      "outputs": [
        {
          "internalType": "bool",
          "name": "",
          "type": "bool"
        }
      ],
      "stateMutability": "view",
      "type": "function"
    },
    {
      "inputs": [
        {
          "internalType": "uint256",
          "name": "",
          "type": "uint256"
        }
      ],
      "name": "uri",
      "outputs": [
        {
          "internalType": "string",
          "name": "",
          "type": "string"
        }
      ],
      "stateMutability": "view",
      "type": "function"
    }
  ],
  "bytecode": "0x60806040523480156200001157600080fd5b506040516200460a3803806200460a8339818101604052810190620000379190620007f2565b6040518060400160405280601381526020017f506978656c6c616e64205265736f7572636573000000000000000000000000008152506200007e816200020260201b60201c565b50620000a833600064e8d4a51000604051806020016040528060008152506200021e60201b60201c565b620000cf336001620f4240604051806020016040528060008152506200021e60201b60201c565b620000f83360026402540be400604051806020016040528060008152506200021e60201b60201c565b6200011f336003620186a0604051806020016040528060008152506200021e60201b60201c565b62000146336004620186a0604051806020016040528060008152506200021e60201b60201c565b6200016e336005633b9aca00604051806020016040528060008152506200021e60201b60201c565b62000194336007612710604051806020016040528060008152506200021e60201b60201c565b620001ba3360086103e8604051806020016040528060008152506200021e60201b60201c565b80600360006101000a81548173ffffffffffffffffffffffffffffffffffffffff021916908373ffffffffffffffffffffffffffffffffffffffff1602179055505062000ebc565b80600290805190602001906200021a92919062000714565b5050565b600073ffffffffffffffffffffffffffffffffffffffff168473ffffffffffffffffffffffffffffffffffffffff16141562000291576040517f08c379a0000000000000000000000000000000000000000000000000000000008152600401620002889062000a2f565b60405180910390fd5b6000620002a36200040660201b60201c565b90506000620002b8856200040e60201b60201c565b90506000620002cd856200040e60201b60201c565b9050620002e683600089858589620004d760201b60201c565b8460008088815260200190815260200160002060008973ffffffffffffffffffffffffffffffffffffffff1673ffffffffffffffffffffffffffffffffffffffff168152602001908152602001600020600082825462000347919062000ac0565b925050819055508673ffffffffffffffffffffffffffffffffffffffff16600073ffffffffffffffffffffffffffffffffffffffff168473ffffffffffffffffffffffffffffffffffffffff167fc3d58168c5ae7397731d063d5bbf3d657854427343f4c083240f7aacaa2d0f628989604051620003c792919062000a51565b60405180910390a4620003e683600089858589620004df60201b60201c565b620003fd83600089898989620004e760201b60201c565b50505050505050565b600033905090565b60606000600167ffffffffffffffff81111562000454577f4e487b7100000000000000000000000000000000000000000000000000000000600052604160045260246000fd5b604051908082528060200260200182016040528015620004835781602001602082028036833780820191505090505b5090508281600081518110620004c2577f4e487b7100000000000000000000000000000000000000000000000000000000600052603260045260246000fd5b60200260200101818152505080915050919050565b505050505050565b505050505050565b620005138473ffffffffffffffffffffffffffffffffffffffff16620006f160201b6200115f1760201c565b15620006e9578373ffffffffffffffffffffffffffffffffffffffff1663f23a6e6187878686866040518663ffffffff1660e01b81526004016200055c95949392919062000963565b602060405180830381600087803b1580156200057757600080fd5b505af1925050508015620005ab57506040513d601f19601f82011682018060405250810190620005a891906200081e565b60015b6200065d57620005ba62000cb6565b806308c379a014156200061e5750620005d262000de6565b80620005df575062000620565b806040517f08c379a0000000000000000000000000000000000000000000000000000000008152600401620006159190620009c7565b60405180910390fd5b505b6040517f08c379a00000000000000000000000000000000000000000000000000000000081526004016200065490620009eb565b60405180910390fd5b63f23a6e6160e01b7bffffffffffffffffffffffffffffffffffffffffffffffffffffffff1916817bffffffffffffffffffffffffffffffffffffffffffffffffffffffff191614620006e7576040517f08c379a0000000000000000000000000000000000000000000000000000000008152600401620006de9062000a0d565b60405180910390fd5b505b505050505050565b6000808273ffffffffffffffffffffffffffffffffffffffff163b119050919050565b828054620007229062000bbd565b90600052602060002090601f01602090048101928262000746576000855562000792565b82601f106200076157805160ff191683800117855562000792565b8280016001018555821562000792579182015b828111156200079157825182559160200191906001019062000774565b5b509050620007a19190620007a5565b5090565b5b80821115620007c0576000816000905550600101620007a6565b5090565b600081519050620007d58162000e88565b92915050565b600081519050620007ec8162000ea2565b92915050565b6000602082840312156200080557600080fd5b60006200081584828501620007c4565b91505092915050565b6000602082840312156200083157600080fd5b60006200084184828501620007db565b91505092915050565b620008558162000b1d565b82525050565b6000620008688262000a88565b62000874818562000a9e565b93506200088681856020860162000b87565b620008918162000cdb565b840191505092915050565b6000620008a98262000a93565b620008b5818562000aaf565b9350620008c781856020860162000b87565b620008d28162000cdb565b840191505092915050565b6000620008ec60348362000aaf565b9150620008f98262000cf9565b604082019050919050565b60006200091360288362000aaf565b9150620009208262000d48565b604082019050919050565b60006200093a60218362000aaf565b9150620009478262000d97565b604082019050919050565b6200095d8162000b7d565b82525050565b600060a0820190506200097a60008301886200084a565b6200098960208301876200084a565b62000998604083018662000952565b620009a7606083018562000952565b8181036080830152620009bb81846200085b565b90509695505050505050565b60006020820190508181036000830152620009e381846200089c565b905092915050565b6000602082019050818103600083015262000a0681620008dd565b9050919050565b6000602082019050818103600083015262000a288162000904565b9050919050565b6000602082019050818103600083015262000a4a816200092b565b9050919050565b600060408201905062000a68600083018562000952565b62000a77602083018462000952565b9392505050565b6000604051905090565b600081519050919050565b600081519050919050565b600082825260208201905092915050565b600082825260208201905092915050565b600062000acd8262000b7d565b915062000ada8362000b7d565b9250827fffffffffffffffffffffffffffffffffffffffffffffffffffffffffffffffff0382111562000b125762000b1162000c29565b5b828201905092915050565b600062000b2a8262000b5d565b9050919050565b60007fffffffff0000000000000000000000000000000000000000000000000000000082169050919050565b600073ffffffffffffffffffffffffffffffffffffffff82169050919050565b6000819050919050565b60005b8381101562000ba757808201518184015260208101905062000b8a565b8381111562000bb7576000848401525b50505050565b6000600282049050600182168062000bd657607f821691505b6020821081141562000bed5762000bec62000c58565b5b50919050565b62000bfe8262000cdb565b810181811067ffffffffffffffff8211171562000c205762000c1f62000c87565b5b80604052505050565b7f4e487b7100000000000000000000000000000000000000000000000000000000600052601160045260246000fd5b7f4e487b7100000000000000000000000000000000000000000000000000000000600052602260045260246000fd5b7f4e487b7100000000000000000000000000000000000000000000000000000000600052604160045260246000fd5b600060033d111562000cd85760046000803e62000cd560005162000cec565b90505b90565b6000601f19601f8301169050919050565b60008160e01c9050919050565b7f455243313135353a207472616e7366657220746f206e6f6e204552433131353560008201527f526563656976657220696d706c656d656e746572000000000000000000000000602082015250565b7f455243313135353a204552433131353552656365697665722072656a6563746560008201527f6420746f6b656e73000000000000000000000000000000000000000000000000602082015250565b7f455243313135353a206d696e7420746f20746865207a65726f2061646472657360008201527f7300000000000000000000000000000000000000000000000000000000000000602082015250565b600060443d101562000df85762000e85565b62000e0262000a7e565b60043d036004823e80513d602482011167ffffffffffffffff8211171562000e2c57505062000e85565b808201805167ffffffffffffffff81111562000e4c575050505062000e85565b80602083010160043d03850181111562000e6b57505050505062000e85565b62000e7c8260200185018662000bf3565b82955050505050505b90565b62000e938162000b1d565b811462000e9f57600080fd5b50565b62000ead8162000b31565b811462000eb957600080fd5b50565b61373e8062000ecc6000396000f3fe608060405234801561001057600080fd5b50600436106101d95760003560e01c80637d19ccc311610104578063b8959fba116100a2578063e2bf0fd911610071578063e2bf0fd91461051e578063e985e9c51461053a578063f03eb2eb1461056a578063f242432a14610586576101d9565b8063b8959fba146104a8578063bb30e3d6146104c6578063c414a2a6146104e4578063c88caf5b14610500576101d9565b8063a22cb465116100de578063a22cb46514610438578063a58b1f5514610454578063a640559d14610470578063ae84163f1461048c576101d9565b80637d19ccc3146103de5780638cd295c2146103fc57806392f3f06b1461041a576101d9565b80632eb2c2d61161017c57806368686c7a1161014b57806368686c7a1461036857806369f9901e146103845780636fabf2ca146103a25780637488d2c8146103c0576101d9565b80632eb2c2d6146102e25780634e1273f4146102fe578063558e2eaf1461032e5780635653e3ac1461034a576101d9565b8063168ae53f116101b8578063168ae53f1461026e5780631ac21d091461028a5780631c8dc399146102a65780632d677595146102c4576101d9565b8062fdd58e146101de57806301ffc9a71461020e5780630e89341c1461023e575b600080fd5b6101f860048036038101906101f3919061261d565b6105a2565b6040516102059190612dad565b60405180910390f35b610228600480360381019061022391906126ee565b61066b565b6040516102359190612bb5565b60405180910390f35b61025860048036038101906102539190612740565b61074d565b6040516102659190612beb565b60405180910390f35b61028860048036038101906102839190612740565b6107e1565b005b6102a4600480360381019061029f9190612740565b61083c565b005b6102ae61085b565b6040516102bb9190612dad565b60405180910390f35b6102cc610860565b6040516102d99190612dad565b60405180910390f35b6102fc60048036038101906102f79190612493565b610865565b005b61031860048036038101906103139190612659565b610906565b6040516103259190612b5c565b60405180910390f35b61034860048036038101906103439190612740565b610ab7565b005b610352610b12565b60405161035f9190612dad565b60405180910390f35b610382600480360381019061037d9190612740565b610b17565b005b61038c610b72565b6040516103999190612dad565b60405180910390f35b6103aa610b77565b6040516103b79190612dad565b60405180910390f35b6103c8610b7c565b6040516103d59190612dad565b60405180910390f35b6103e6610b81565b6040516103f39190612dad565b60405180910390f35b610404610b86565b6040516104119190612bd0565b60405180910390f35b610422610bac565b60405161042f9190612dad565b60405180910390f35b610452600480360381019061044d91906125e1565b610bb1565b005b61046e60048036038101906104699190612740565b610bc7565b005b61048a60048036038101906104859190612740565b610c40565b005b6104a660048036038101906104a19190612740565b610c5f565b005b6104b0610c7e565b6040516104bd9190612dad565b60405180910390f35b6104ce610c83565b6040516104db9190612dad565b60405180910390f35b6104fe60048036038101906104f99190612740565b610c88565b005b610508610ca7565b6040516105159190612dad565b60405180910390f35b61053860048036038101906105339190612740565b610cac565b005b610554600480360381019061054f9190612457565b610e6b565b6040516105619190612bb5565b60405180910390f35b610584600480360381019061057f9190612740565b610eff565b005b6105a0600480360381019061059b9190612552565b6110be565b005b60008073ffffffffffffffffffffffffffffffffffffffff168373ffffffffffffffffffffffffffffffffffffffff161415610613576040517f08c379a000000000000000000000000000000000000000000000000000000000815260040161060a90612c4d565b60405180910390fd5b60008083815260200190815260200160002060008473ffffffffffffffffffffffffffffffffffffffff1673ffffffffffffffffffffffffffffffffffffffff16815260200190815260200160002054905092915050565b60007fd9b67a26000000000000000000000000000000000000000000000000000000007bffffffffffffffffffffffffffffffffffffffffffffffffffffffff1916827bffffffffffffffffffffffffffffffffffffffffffffffffffffffff1916148061073657507f0e89341c000000000000000000000000000000000000000000000000000000007bffffffffffffffffffffffffffffffffffffffffffffffffffffffff1916827bffffffffffffffffffffffffffffffffffffffffffffffffffffffff1916145b80610746575061074582611182565b5b9050919050565b60606002805461075c9061309a565b80601f01602080910402602001604051908101604052809291908181526020018280546107889061309a565b80156107d55780601f106107aa576101008083540402835291602001916107d5565b820191906000526020600020905b8154815290600101906020018083116107b857829003601f168201915b50505050509050919050565b60006005826107f09190612f66565b90506000600a836108019190612f66565b905061080f336000836111ec565b61081b336007846111ec565b61083733600a8560405180602001604052806000815250611433565b505050565b6108583360008360405180602001604052806000815250611433565b50565b600a81565b600481565b61086d6115e4565b73ffffffffffffffffffffffffffffffffffffffff168573ffffffffffffffffffffffffffffffffffffffff1614806108b357506108b2856108ad6115e4565b610e6b565b5b6108f2576040517f08c379a00000000000000000000000000000000000000000000000000000000081526004016108e990612ccd565b60405180910390fd5b6108ff85858585856115ec565b5050505050565b6060815183511461094c576040517f08c379a000000000000000000000000000000000000000000000000000000000815260040161094390612d4d565b60405180910390fd5b6000835167ffffffffffffffff81111561098f577f4e487b7100000000000000000000000000000000000000000000000000000000600052604160045260246000fd5b6040519080825280602002602001820160405280156109bd5781602001602082028036833780820191505090505b50905060005b8451811015610aac57610a56858281518110610a08577f4e487b7100000000000000000000000000000000000000000000000000000000600052603260045260246000fd5b6020026020010151858381518110610a49577f4e487b7100000000000000000000000000000000000000000000000000000000600052603260045260246000fd5b60200260200101516105a2565b828281518110610a8f577f4e487b7100000000000000000000000000000000000000000000000000000000600052603260045260246000fd5b60200260200101818152505080610aa5906130fd565b90506109c3565b508091505092915050565b6000600a82610ac69190612f66565b90506000600583610ad79190612f66565b9050610ae5336002846111ec565b610af1336001836111ec565b610b0d3360038560405180602001604052806000815250611433565b505050565b600081565b6000600a82610b269190612f66565b90506000600583610b379190612f66565b9050610b45336002846111ec565b610b51336001836111ec565b610b6d3360048560405180602001604052806000815250611433565b505050565b600181565b600581565b600781565b600281565b600360009054906101000a900473ffffffffffffffffffffffffffffffffffffffff1681565b600681565b610bc3610bbc6115e4565b838361195a565b5050565b6000600a82610bd69190612f66565b90506000600a83610be79190612f66565b90506000600584610bf89190612f66565b9050610c06336002856111ec565b610c12336000846111ec565b610c1e336005836111ec565b610c3a3360068660405180602001604052806000815250611433565b50505050565b610c5c3360018360405180602001604052806000815250611433565b50565b610c7b3360028360405180602001604052806000815250611433565b50565b600381565b600981565b610ca43360058360405180602001604052806000815250611433565b50565b600881565b6000603282610cbb9190612f66565b90506000606483610ccc9190612f66565b905060006107d084610cde9190612f66565b9050610cec336001846111ec565b610cf8336007856111ec565b600360009054906101000a900473ffffffffffffffffffffffffffffffffffffffff1673ffffffffffffffffffffffffffffffffffffffff166323b872dd33600360009054906101000a900473ffffffffffffffffffffffffffffffffffffffff1673ffffffffffffffffffffffffffffffffffffffff16638da5cb5b6040518163ffffffff1660e01b815260040160206040518083038186803b158015610d9f57600080fd5b505afa158015610db3573d6000803e3d6000fd5b505050506040513d601f19601f82011682018060405250810190610dd7919061242e565b846040518463ffffffff1660e01b8152600401610df693929190612acb565b602060405180830381600087803b158015610e1057600080fd5b505af1158015610e24573d6000803e3d6000fd5b505050506040513d601f19601f82011682018060405250810190610e4891906126c5565b50610e653360088660405180602001604052806000815250611433565b50505050565b6000600160008473ffffffffffffffffffffffffffffffffffffffff1673ffffffffffffffffffffffffffffffffffffffff16815260200190815260200160002060008373ffffffffffffffffffffffffffffffffffffffff1673ffffffffffffffffffffffffffffffffffffffff16815260200190815260200160002060009054906101000a900460ff16905092915050565b6000606482610f0e9190612f66565b90506000600583610f1f9190612f66565b9050600061271084610f319190612f66565b9050610f3f336008846111ec565b610f4b336007856111ec565b600360009054906101000a900473ffffffffffffffffffffffffffffffffffffffff1673ffffffffffffffffffffffffffffffffffffffff166323b872dd33600360009054906101000a900473ffffffffffffffffffffffffffffffffffffffff1673ffffffffffffffffffffffffffffffffffffffff16638da5cb5b6040518163ffffffff1660e01b815260040160206040518083038186803b158015610ff257600080fd5b505afa158015611006573d6000803e3d6000fd5b505050506040513d601f19601f8201168201806040525081019061102a919061242e565b846040518463ffffffff1660e01b815260040161104993929190612acb565b602060405180830381600087803b15801561106357600080fd5b505af1158015611077573d6000803e3d6000fd5b505050506040513d601f19601f8201168201806040525081019061109b91906126c5565b506110b83360098660405180602001604052806000815250611433565b50505050565b6110c66115e4565b73ffffffffffffffffffffffffffffffffffffffff168573ffffffffffffffffffffffffffffffffffffffff16148061110c575061110b856111066115e4565b610e6b565b5b61114b576040517f08c379a000000000000000000000000000000000000000000000000000000000815260040161114290612c8d565b60405180910390fd5b6111588585858585611ac7565b5050505050565b6000808273ffffffffffffffffffffffffffffffffffffffff163b119050919050565b60007f01ffc9a7000000000000000000000000000000000000000000000000000000007bffffffffffffffffffffffffffffffffffffffffffffffffffffffff1916827bffffffffffffffffffffffffffffffffffffffffffffffffffffffff1916149050919050565b600073ffffffffffffffffffffffffffffffffffffffff168373ffffffffffffffffffffffffffffffffffffffff16141561125c576040517f08c379a000000000000000000000000000000000000000000000000000000000815260040161125390612ced565b60405180910390fd5b60006112666115e4565b9050600061127384611d63565b9050600061128084611d63565b90506112a083876000858560405180602001604052806000815250611e29565b600080600087815260200190815260200160002060008873ffffffffffffffffffffffffffffffffffffffff1673ffffffffffffffffffffffffffffffffffffffff16815260200190815260200160002054905084811015611337576040517f08c379a000000000000000000000000000000000000000000000000000000000815260040161132e90612c6d565b60405180910390fd5b84810360008088815260200190815260200160002060008973ffffffffffffffffffffffffffffffffffffffff1673ffffffffffffffffffffffffffffffffffffffff16815260200190815260200160002081905550600073ffffffffffffffffffffffffffffffffffffffff168773ffffffffffffffffffffffffffffffffffffffff168573ffffffffffffffffffffffffffffffffffffffff167fc3d58168c5ae7397731d063d5bbf3d657854427343f4c083240f7aacaa2d0f628989604051611404929190612dc8565b60405180910390a461142a84886000868660405180602001604052806000815250611e31565b50505050505050565b600073ffffffffffffffffffffffffffffffffffffffff168473ffffffffffffffffffffffffffffffffffffffff1614156114a3576040517f08c379a000000000000000000000000000000000000000000000000000000000815260040161149a90612d8d565b60405180910390fd5b60006114ad6115e4565b905060006114ba85611d63565b905060006114c785611d63565b90506114d883600089858589611e29565b8460008088815260200190815260200160002060008973ffffffffffffffffffffffffffffffffffffffff1673ffffffffffffffffffffffffffffffffffffffff16815260200190815260200160002060008282546115379190612f10565b925050819055508673ffffffffffffffffffffffffffffffffffffffff16600073ffffffffffffffffffffffffffffffffffffffff168473ffffffffffffffffffffffffffffffffffffffff167fc3d58168c5ae7397731d063d5bbf3d657854427343f4c083240f7aacaa2d0f6289896040516115b5929190612dc8565b60405180910390a46115cc83600089858589611e31565b6115db83600089898989611e39565b50505050505050565b600033905090565b8151835114611630576040517f08c379a000000000000000000000000000000000000000000000000000000000815260040161162790612d6d565b60405180910390fd5b600073ffffffffffffffffffffffffffffffffffffffff168473ffffffffffffffffffffffffffffffffffffffff1614156116a0576040517f08c379a000000000000000000000000000000000000000000000000000000000815260040161169790612cad565b60405180910390fd5b60006116aa6115e4565b90506116ba818787878787611e29565b60005b84518110156118b7576000858281518110611701577f4e487b7100000000000000000000000000000000000000000000000000000000600052603260045260246000fd5b602002602001015190506000858381518110611746577f4e487b7100000000000000000000000000000000000000000000000000000000600052603260045260246000fd5b60200260200101519050600080600084815260200190815260200160002060008b73ffffffffffffffffffffffffffffffffffffffff1673ffffffffffffffffffffffffffffffffffffffff168152602001908152602001600020549050818110156117e7576040517f08c379a00000000000000000000000000000000000000000000000000000000081526004016117de90612d0d565b60405180910390fd5b81810360008085815260200190815260200160002060008c73ffffffffffffffffffffffffffffffffffffffff1673ffffffffffffffffffffffffffffffffffffffff168152602001908152602001600020819055508160008085815260200190815260200160002060008b73ffffffffffffffffffffffffffffffffffffffff1673ffffffffffffffffffffffffffffffffffffffff168152602001908152602001600020600082825461189c9190612f10565b92505081905550505050806118b0906130fd565b90506116bd565b508473ffffffffffffffffffffffffffffffffffffffff168673ffffffffffffffffffffffffffffffffffffffff168273ffffffffffffffffffffffffffffffffffffffff167f4a39dc06d4c0dbc64b70af90fd698a233a518aa5d07e595d983b8c0526c8f7fb878760405161192e929190612b7e565b60405180910390a4611944818787878787611e31565b611952818787878787612020565b505050505050565b8173ffffffffffffffffffffffffffffffffffffffff168373ffffffffffffffffffffffffffffffffffffffff1614156119c9576040517f08c379a00000000000000000000000000000000000000000000000000000000081526004016119c090612d2d565b60405180910390fd5b80600160008573ffffffffffffffffffffffffffffffffffffffff1673ffffffffffffffffffffffffffffffffffffffff16815260200190815260200160002060008473ffffffffffffffffffffffffffffffffffffffff1673ffffffffffffffffffffffffffffffffffffffff16815260200190815260200160002060006101000a81548160ff0219169083151502179055508173ffffffffffffffffffffffffffffffffffffffff168373ffffffffffffffffffffffffffffffffffffffff167f17307eab39ab6107e8899845ad3d59bd9653f200f220920489ca2b5937696c3183604051611aba9190612bb5565b60405180910390a3505050565b600073ffffffffffffffffffffffffffffffffffffffff168473ffffffffffffffffffffffffffffffffffffffff161415611b37576040517f08c379a0000000000000000000000000000000000000000000000000000000008152600401611b2e90612cad565b60405180910390fd5b6000611b416115e4565b90506000611b4e85611d63565b90506000611b5b85611d63565b9050611b6b838989858589611e29565b600080600088815260200190815260200160002060008a73ffffffffffffffffffffffffffffffffffffffff1673ffffffffffffffffffffffffffffffffffffffff16815260200190815260200160002054905085811015611c02576040517f08c379a0000000000000000000000000000000000000000000000000000000008152600401611bf990612d0d565b60405180910390fd5b85810360008089815260200190815260200160002060008b73ffffffffffffffffffffffffffffffffffffffff1673ffffffffffffffffffffffffffffffffffffffff168152602001908152602001600020819055508560008089815260200190815260200160002060008a73ffffffffffffffffffffffffffffffffffffffff1673ffffffffffffffffffffffffffffffffffffffff1681526020019081526020016000206000828254611cb79190612f10565b925050819055508773ffffffffffffffffffffffffffffffffffffffff168973ffffffffffffffffffffffffffffffffffffffff168573ffffffffffffffffffffffffffffffffffffffff167fc3d58168c5ae7397731d063d5bbf3d657854427343f4c083240f7aacaa2d0f628a8a604051611d34929190612dc8565b60405180910390a4611d4a848a8a86868a611e31565b611d58848a8a8a8a8a611e39565b505050505050505050565b60606000600167ffffffffffffffff811115611da8577f4e487b7100000000000000000000000000000000000000000000000000000000600052604160045260246000fd5b604051908082528060200260200182016040528015611dd65781602001602082028036833780820191505090505b5090508281600081518110611e14577f4e487b7100000000000000000000000000000000000000000000000000000000600052603260045260246000fd5b60200260200101818152505080915050919050565b505050505050565b505050505050565b611e588473ffffffffffffffffffffffffffffffffffffffff1661115f565b15612018578373ffffffffffffffffffffffffffffffffffffffff1663f23a6e6187878686866040518663ffffffff1660e01b8152600401611e9e959493929190612b02565b602060405180830381600087803b158015611eb857600080fd5b505af1925050508015611ee957506040513d601f19601f82011682018060405250810190611ee69190612717565b60015b611f8f57611ef56131d3565b806308c379a01415611f525750611f0a613616565b80611f155750611f54565b806040517f08c379a0000000000000000000000000000000000000000000000000000000008152600401611f499190612beb565b60405180910390fd5b505b6040517f08c379a0000000000000000000000000000000000000000000000000000000008152600401611f8690612c0d565b60405180910390fd5b63f23a6e6160e01b7bffffffffffffffffffffffffffffffffffffffffffffffffffffffff1916817bffffffffffffffffffffffffffffffffffffffffffffffffffffffff191614612016576040517f08c379a000000000000000000000000000000000000000000000000000000000815260040161200d90612c2d565b60405180910390fd5b505b505050505050565b61203f8473ffffffffffffffffffffffffffffffffffffffff1661115f565b156121ff578373ffffffffffffffffffffffffffffffffffffffff1663bc197c8187878686866040518663ffffffff1660e01b8152600401612085959493929190612a63565b602060405180830381600087803b15801561209f57600080fd5b505af19250505080156120d057506040513d601f19601f820116820180604052508101906120cd9190612717565b60015b612176576120dc6131d3565b806308c379a0141561213957506120f1613616565b806120fc575061213b565b806040517f08c379a00000000000000000000000000000000000000000000000000000000081526004016121309190612beb565b60405180910390fd5b505b6040517f08c379a000000000000000000000000000000000000000000000000000000000815260040161216d90612c0d565b60405180910390fd5b63bc197c8160e01b7bffffffffffffffffffffffffffffffffffffffffffffffffffffffff1916817bffffffffffffffffffffffffffffffffffffffffffffffffffffffff1916146121fd576040517f08c379a00000000000000000000000000000000000000000000000000000000081526004016121f490612c2d565b60405180910390fd5b505b505050505050565b600061221a61221584612e16565b612df1565b9050808382526020820190508285602086028201111561223957600080fd5b60005b85811015612269578161224f888261231d565b84526020840193506020830192505060018101905061223c565b5050509392505050565b600061228661228184612e42565b612df1565b905080838252602082019050828560208602820111156122a557600080fd5b60005b858110156122d557816122bb8882612419565b8452602084019350602083019250506001810190506122a8565b5050509392505050565b60006122f26122ed84612e6e565b612df1565b90508281526020810184848401111561230a57600080fd5b612315848285613058565b509392505050565b60008135905061232c816136ac565b92915050565b600081519050612341816136ac565b92915050565b600082601f83011261235857600080fd5b8135612368848260208601612207565b91505092915050565b600082601f83011261238257600080fd5b8135612392848260208601612273565b91505092915050565b6000813590506123aa816136c3565b92915050565b6000815190506123bf816136c3565b92915050565b6000813590506123d4816136da565b92915050565b6000815190506123e9816136da565b92915050565b600082601f83011261240057600080fd5b81356124108482602086016122df565b91505092915050565b600081359050612428816136f1565b92915050565b60006020828403121561244057600080fd5b600061244e84828501612332565b91505092915050565b6000806040838503121561246a57600080fd5b60006124788582860161231d565b92505060206124898582860161231d565b9150509250929050565b600080600080600060a086880312156124ab57600080fd5b60006124b98882890161231d565b95505060206124ca8882890161231d565b945050604086013567ffffffffffffffff8111156124e757600080fd5b6124f388828901612371565b935050606086013567ffffffffffffffff81111561251057600080fd5b61251c88828901612371565b925050608086013567ffffffffffffffff81111561253957600080fd5b612545888289016123ef565b9150509295509295909350565b600080600080600060a0868803121561256a57600080fd5b60006125788882890161231d565b95505060206125898882890161231d565b945050604061259a88828901612419565b93505060606125ab88828901612419565b925050608086013567ffffffffffffffff8111156125c857600080fd5b6125d4888289016123ef565b9150509295509295909350565b600080604083850312156125f457600080fd5b60006126028582860161231d565b92505060206126138582860161239b565b9150509250929050565b6000806040838503121561263057600080fd5b600061263e8582860161231d565b925050602061264f85828601612419565b9150509250929050565b6000806040838503121561266c57600080fd5b600083013567ffffffffffffffff81111561268657600080fd5b61269285828601612347565b925050602083013567ffffffffffffffff8111156126af57600080fd5b6126bb85828601612371565b9150509250929050565b6000602082840312156126d757600080fd5b60006126e5848285016123b0565b91505092915050565b60006020828403121561270057600080fd5b600061270e848285016123c5565b91505092915050565b60006020828403121561272957600080fd5b6000612737848285016123da565b91505092915050565b60006020828403121561275257600080fd5b600061276084828501612419565b91505092915050565b60006127758383612a45565b60208301905092915050565b61278a81612fc0565b82525050565b600061279b82612eaf565b6127a58185612edd565b93506127b083612e9f565b8060005b838110156127e15781516127c88882612769565b97506127d383612ed0565b9250506001810190506127b4565b5085935050505092915050565b6127f781612fd2565b82525050565b600061280882612eba565b6128128185612eee565b9350612822818560208601613067565b61282b816131f5565b840191505092915050565b61283f81613034565b82525050565b600061285082612ec5565b61285a8185612eff565b935061286a818560208601613067565b612873816131f5565b840191505092915050565b600061288b603483612eff565b915061289682613213565b604082019050919050565b60006128ae602883612eff565b91506128b982613262565b604082019050919050565b60006128d1602b83612eff565b91506128dc826132b1565b604082019050919050565b60006128f4602483612eff565b91506128ff82613300565b604082019050919050565b6000612917602983612eff565b91506129228261334f565b604082019050919050565b600061293a602583612eff565b91506129458261339e565b604082019050919050565b600061295d603283612eff565b9150612968826133ed565b604082019050919050565b6000612980602383612eff565b915061298b8261343c565b604082019050919050565b60006129a3602a83612eff565b91506129ae8261348b565b604082019050919050565b60006129c6602983612eff565b91506129d1826134da565b604082019050919050565b60006129e9602983612eff565b91506129f482613529565b604082019050919050565b6000612a0c602883612eff565b9150612a1782613578565b604082019050919050565b6000612a2f602183612eff565b9150612a3a826135c7565b604082019050919050565b612a4e8161302a565b82525050565b612a5d8161302a565b82525050565b600060a082019050612a786000830188612781565b612a856020830187612781565b8181036040830152612a978186612790565b90508181036060830152612aab8185612790565b90508181036080830152612abf81846127fd565b90509695505050505050565b6000606082019050612ae06000830186612781565b612aed6020830185612781565b612afa6040830184612a54565b949350505050565b600060a082019050612b176000830188612781565b612b246020830187612781565b612b316040830186612a54565b612b3e6060830185612a54565b8181036080830152612b5081846127fd565b90509695505050505050565b60006020820190508181036000830152612b768184612790565b905092915050565b60006040820190508181036000830152612b988185612790565b90508181036020830152612bac8184612790565b90509392505050565b6000602082019050612bca60008301846127ee565b92915050565b6000602082019050612be56000830184612836565b92915050565b60006020820190508181036000830152612c058184612845565b905092915050565b60006020820190508181036000830152612c268161287e565b9050919050565b60006020820190508181036000830152612c46816128a1565b9050919050565b60006020820190508181036000830152612c66816128c4565b9050919050565b60006020820190508181036000830152612c86816128e7565b9050919050565b60006020820190508181036000830152612ca68161290a565b9050919050565b60006020820190508181036000830152612cc68161292d565b9050919050565b60006020820190508181036000830152612ce681612950565b9050919050565b60006020820190508181036000830152612d0681612973565b9050919050565b60006020820190508181036000830152612d2681612996565b9050919050565b60006020820190508181036000830152612d46816129b9565b9050919050565b60006020820190508181036000830152612d66816129dc565b9050919050565b60006020820190508181036000830152612d86816129ff565b9050919050565b60006020820190508181036000830152612da681612a22565b9050919050565b6000602082019050612dc26000830184612a54565b92915050565b6000604082019050612ddd6000830185612a54565b612dea6020830184612a54565b9392505050565b6000612dfb612e0c565b9050612e0782826130cc565b919050565b6000604051905090565b600067ffffffffffffffff821115612e3157612e306131a4565b5b602082029050602081019050919050565b600067ffffffffffffffff821115612e5d57612e5c6131a4565b5b602082029050602081019050919050565b600067ffffffffffffffff821115612e8957612e886131a4565b5b612e92826131f5565b9050602081019050919050565b6000819050602082019050919050565b600081519050919050565b600081519050919050565b600081519050919050565b6000602082019050919050565b600082825260208201905092915050565b600082825260208201905092915050565b600082825260208201905092915050565b6000612f1b8261302a565b9150612f268361302a565b9250827fffffffffffffffffffffffffffffffffffffffffffffffffffffffffffffffff03821115612f5b57612f5a613146565b5b828201905092915050565b6000612f718261302a565b9150612f7c8361302a565b9250817fffffffffffffffffffffffffffffffffffffffffffffffffffffffffffffffff0483118215151615612fb557612fb4613146565b5b828202905092915050565b6000612fcb8261300a565b9050919050565b60008115159050919050565b60007fffffffff0000000000000000000000000000000000000000000000000000000082169050919050565b600073ffffffffffffffffffffffffffffffffffffffff82169050919050565b6000819050919050565b600061303f82613046565b9050919050565b60006130518261300a565b9050919050565b82818337600083830152505050565b60005b8381101561308557808201518184015260208101905061306a565b83811115613094576000848401525b50505050565b600060028204905060018216806130b257607f821691505b602082108114156130c6576130c5613175565b5b50919050565b6130d5826131f5565b810181811067ffffffffffffffff821117156130f4576130f36131a4565b5b80604052505050565b60006131088261302a565b91507fffffffffffffffffffffffffffffffffffffffffffffffffffffffffffffffff82141561313b5761313a613146565b5b600182019050919050565b7f4e487b7100000000000000000000000000000000000000000000000000000000600052601160045260246000fd5b7f4e487b7100000000000000000000000000000000000000000000000000000000600052602260045260246000fd5b7f4e487b7100000000000000000000000000000000000000000000000000000000600052604160045260246000fd5b600060033d11156131f25760046000803e6131ef600051613206565b90505b90565b6000601f19601f8301169050919050565b60008160e01c9050919050565b7f455243313135353a207472616e7366657220746f206e6f6e204552433131353560008201527f526563656976657220696d706c656d656e746572000000000000000000000000602082015250565b7f455243313135353a204552433131353552656365697665722072656a6563746560008201527f6420746f6b656e73000000000000000000000000000000000000000000000000602082015250565b7f455243313135353a2062616c616e636520717565727920666f7220746865207a60008201527f65726f2061646472657373000000000000000000000000000000000000000000602082015250565b7f455243313135353a206275726e20616d6f756e7420657863656564732062616c60008201527f616e636500000000000000000000000000000000000000000000000000000000602082015250565b7f455243313135353a2063616c6c6572206973206e6f74206f776e6572206e6f7260008201527f20617070726f7665640000000000000000000000000000000000000000000000602082015250565b7f455243313135353a207472616e7366657220746f20746865207a65726f20616460008201527f6472657373000000000000000000000000000000000000000000000000000000602082015250565b7f455243313135353a207472616e736665722063616c6c6572206973206e6f742060008201527f6f776e6572206e6f7220617070726f7665640000000000000000000000000000602082015250565b7f455243313135353a206275726e2066726f6d20746865207a65726f206164647260008201527f6573730000000000000000000000000000000000000000000000000000000000602082015250565b7f455243313135353a20696e73756666696369656e742062616c616e636520666f60008201527f72207472616e7366657200000000000000000000000000000000000000000000602082015250565b7f455243313135353a2073657474696e6720617070726f76616c2073746174757360008201527f20666f722073656c660000000000000000000000000000000000000000000000602082015250565b7f455243313135353a206163636f756e747320616e6420696473206c656e67746860008201527f206d69736d617463680000000000000000000000000000000000000000000000602082015250565b7f455243313135353a2069647320616e6420616d6f756e7473206c656e6774682060008201527f6d69736d61746368000000000000000000000000000000000000000000000000602082015250565b7f455243313135353a206d696e7420746f20746865207a65726f2061646472657360008201527f7300000000000000000000000000000000000000000000000000000000000000602082015250565b600060443d1015613626576136a9565b61362e612e0c565b60043d036004823e80513d602482011167ffffffffffffffff821117156136565750506136a9565b808201805167ffffffffffffffff81111561367457505050506136a9565b80602083010160043d0385018111156136915750505050506136a9565b6136a0826020018501866130cc565b82955050505050505b90565b6136b581612fc0565b81146136c057600080fd5b50565b6136cc81612fd2565b81146136d757600080fd5b50565b6136e381612fde565b81146136ee57600080fd5b50565b6136fa8161302a565b811461370557600080fd5b5056fea2646970667358221220abad00da6f6caa308c07cebf692d2fb639deaebe11e478f7f422ecbcb105334f64736f6c63430008040033",
  "linkReferences": {},
  "deployedLinkReferences": {}
}