{
  "_format": "hh-sol-artifact-1",
  "contractName": "PixelHouse",
  "sourceName": "contracts/PixelHouse.sol",
  "abi": [
    {
      "inputs": [
        {
          "internalType": "address",
          "name": "_pixel",
          "type": "address"
        },
        {
          "internalType": "address",
          "name": "_pixelPlot",
          "type": "address"
        }
      ],
      "stateMutability": "nonpayable",
      "type": "constructor"
    },
    {
      "anonymous": false,
      "inputs": [
        {
          "indexed": true,
          "internalType": "address",
          "name": "owner",
          "type": "address"
        },
        {
          "indexed": true,
          "internalType": "address",
          "name": "approved",
          "type": "address"
        },
        {
          "indexed": true,
          "internalType": "uint256",
          "name": "tokenId",
          "type": "uint256"
        }
      ],
      "name": "Approval",
      "type": "event"
    },
    {
      "anonymous": false,
      "inputs": [
        {
          "indexed": true,
          "internalType": "address",
          "name": "owner",
          "type": "address"
        },
        {
          "indexed": true,
          "internalType": "address",
          "name": "operator",
          "type": "address"
        },
        {
          "indexed": false,
          "internalType": "bool",
          "name": "approved",
          "type": "bool"
        }
      ],
      "name": "ApprovalForAll",
      "type": "event"
    },
    {
      "anonymous": false,
      "inputs": [
        {
          "indexed": true,
          "internalType": "address",
          "name": "previousOwner",
          "type": "address"
        },
        {
          "indexed": true,
          "internalType": "address",
          "name": "newOwner",
          "type": "address"
        }
      ],
      "name": "OwnershipTransferred",
      "type": "event"
    },
    {
      "anonymous": false,
      "inputs": [
        {
          "indexed": true,
          "internalType": "address",
          "name": "from",
          "type": "address"
        },
        {
          "indexed": true,
          "internalType": "address",
          "name": "to",
          "type": "address"
        },
        {
          "indexed": true,
          "internalType": "uint256",
          "name": "tokenId",
          "type": "uint256"
        }
      ],
      "name": "Transfer",
      "type": "event"
    },
    {
      "inputs": [],
      "name": "DECIMALS",
      "outputs": [
        {
          "internalType": "uint256",
          "name": "",
          "type": "uint256"
        }
      ],
      "stateMutability": "view",
      "type": "function"
    },
    {
      "inputs": [
        {
          "internalType": "address",
          "name": "from",
          "type": "address"
        },
        {
          "internalType": "address",
          "name": "to",
          "type": "address"
        },
        {
          "internalType": "uint256",
          "name": "tokenId",
          "type": "uint256"
        }
      ],
      "name": "_transfer",
      "outputs": [],
      "stateMutability": "nonpayable",
      "type": "function"
    },
    {
      "inputs": [
        {
          "internalType": "address",
          "name": "from",
          "type": "address"
        },
        {
          "internalType": "address",
          "name": "to",
          "type": "address"
        },
        {
          "internalType": "uint256",
          "name": "tokenId",
          "type": "uint256"
        }
      ],
      "name": "_transferFromContract",
      "outputs": [],
      "stateMutability": "nonpayable",
      "type": "function"
    },
    {
      "inputs": [
        {
          "internalType": "address",
          "name": "to",
          "type": "address"
        },
        {
          "internalType": "uint256",
          "name": "tokenId",
          "type": "uint256"
        }
      ],
      "name": "approve",
      "outputs": [],
      "stateMutability": "nonpayable",
      "type": "function"
    },
    {
      "inputs": [],
      "name": "authority",
      "outputs": [
        {
          "internalType": "address",
          "name": "",
          "type": "address"
        }
      ],
      "stateMutability": "view",
      "type": "function"
    },
    {
      "inputs": [
        {
          "internalType": "address",
          "name": "owner",
          "type": "address"
        }
      ],
      "name": "balanceOf",
      "outputs": [
        {
          "internalType": "uint256",
          "name": "",
          "type": "uint256"
        }
      ],
      "stateMutability": "view",
      "type": "function"
    },
    {
      "inputs": [
        {
          "internalType": "address",
          "name": "_contract",
          "type": "address"
        }
      ],
      "name": "contractAuthorized",
      "outputs": [],
      "stateMutability": "nonpayable",
      "type": "function"
    },
    {
      "inputs": [
        {
          "internalType": "uint256",
          "name": "tokenId",
          "type": "uint256"
        }
      ],
      "name": "getApproved",
      "outputs": [
        {
          "internalType": "address",
          "name": "",
          "type": "address"
        }
      ],
      "stateMutability": "view",
      "type": "function"
    },
    {
      "inputs": [
        {
          "internalType": "uint256",
          "name": "",
          "type": "uint256"
        }
      ],
      "name": "houses",
      "outputs": [
        {
          "internalType": "uint256",
          "name": "level",
          "type": "uint256"
        }
      ],
      "stateMutability": "view",
      "type": "function"
    },
    {
      "inputs": [
        {
          "internalType": "address",
          "name": "owner",
          "type": "address"
        },
        {
          "internalType": "address",
          "name": "operator",
          "type": "address"
        }
      ],
      "name": "isApprovedForAll",
      "outputs": [
        {
          "internalType": "bool",
          "name": "",
          "type": "bool"
        }
      ],
      "stateMutability": "view",
      "type": "function"
    },
    {
      "inputs": [],
      "name": "mintHouse",
      "outputs": [],
      "stateMutability": "nonpayable",
      "type": "function"
    },
    {
      "inputs": [],
      "name": "name",
      "outputs": [
        {
          "internalType": "string",
          "name": "",
          "type": "string"
        }
      ],
      "stateMutability": "view",
      "type": "function"
    },
    {
      "inputs": [],
      "name": "nextOwnerToExplicitlySet",
      "outputs": [
        {
          "internalType": "uint256",
          "name": "",
          "type": "uint256"
        }
      ],
      "stateMutability": "view",
      "type": "function"
    },
    {
      "inputs": [],
      "name": "owner",
      "outputs": [
        {
          "internalType": "address",
          "name": "",
          "type": "address"
        }
      ],
      "stateMutability": "view",
      "type": "function"
    },
    {
      "inputs": [
        {
          "internalType": "uint256",
          "name": "tokenId",
          "type": "uint256"
        }
      ],
      "name": "ownerOf",
      "outputs": [
        {
          "internalType": "address",
          "name": "",
          "type": "address"
        }
      ],
      "stateMutability": "view",
      "type": "function"
    },
    {
      "inputs": [],
      "name": "pixel",
      "outputs": [
        {
          "internalType": "contract IERC20",
          "name": "",
          "type": "address"
        }
      ],
      "stateMutability": "view",
      "type": "function"
    },
    {
      "inputs": [],
      "name": "pixelPlot",
      "outputs": [
        {
          "internalType": "contract PixelPlot",
          "name": "",
          "type": "address"
        }
      ],
      "stateMutability": "view",
      "type": "function"
    },
    {
      "inputs": [],
      "name": "priceInPixel",
      "outputs": [
        {
          "internalType": "uint256",
          "name": "",
          "type": "uint256"
        }
      ],
      "stateMutability": "view",
      "type": "function"
    },
    {
      "inputs": [],
      "name": "renounceOwnership",
      "outputs": [],
      "stateMutability": "nonpayable",
      "type": "function"
    },
    {
      "inputs": [
        {
          "internalType": "address",
          "name": "from",
          "type": "address"
        },
        {
          "internalType": "address",
          "name": "to",
          "type": "address"
        },
        {
          "internalType": "uint256",
          "name": "tokenId",
          "type": "uint256"
        }
      ],
      "name": "safeTransferFrom",
      "outputs": [],
      "stateMutability": "nonpayable",
      "type": "function"
    },
    {
      "inputs": [
        {
          "internalType": "address",
          "name": "from",
          "type": "address"
        },
        {
          "internalType": "address",
          "name": "to",
          "type": "address"
        },
        {
          "internalType": "uint256",
          "name": "tokenId",
          "type": "uint256"
        },
        {
          "internalType": "bytes",
          "name": "_data",
          "type": "bytes"
        }
      ],
      "name": "safeTransferFrom",
      "outputs": [],
      "stateMutability": "nonpayable",
      "type": "function"
    },
    {
      "inputs": [
        {
          "internalType": "address",
          "name": "operator",
          "type": "address"
        },
        {
          "internalType": "bool",
          "name": "approved",
          "type": "bool"
        }
      ],
      "name": "setApprovalForAll",
      "outputs": [],
      "stateMutability": "nonpayable",
      "type": "function"
    },
    {
      "inputs": [
        {
          "internalType": "bytes4",
          "name": "interfaceId",
          "type": "bytes4"
        }
      ],
      "name": "supportsInterface",
      "outputs": [
        {
          "internalType": "bool",
          "name": "",
          "type": "bool"
        }
      ],
      "stateMutability": "view",
      "type": "function"
    },
    {
      "inputs": [],
      "name": "symbol",
      "outputs": [
        {
          "internalType": "string",
          "name": "",
          "type": "string"
        }
      ],
      "stateMutability": "view",
      "type": "function"
    },
    {
      "inputs": [
        {
          "internalType": "uint256",
          "name": "index",
          "type": "uint256"
        }
      ],
      "name": "tokenByIndex",
      "outputs": [
        {
          "internalType": "uint256",
          "name": "",
          "type": "uint256"
        }
      ],
      "stateMutability": "view",
      "type": "function"
    },
    {
      "inputs": [
        {
          "internalType": "address",
          "name": "owner",
          "type": "address"
        },
        {
          "internalType": "uint256",
          "name": "index",
          "type": "uint256"
        }
      ],
      "name": "tokenOfOwnerByIndex",
      "outputs": [
        {
          "internalType": "uint256",
          "name": "",
          "type": "uint256"
        }
      ],
      "stateMutability": "view",
      "type": "function"
    },
    {
      "inputs": [
        {
          "internalType": "uint256",
          "name": "tokenId",
          "type": "uint256"
        }
      ],
      "name": "tokenURI",
      "outputs": [
        {
          "internalType": "string",
          "name": "",
          "type": "string"
        }
      ],
      "stateMutability": "view",
      "type": "function"
    },
    {
      "inputs": [],
      "name": "totalSupply",
      "outputs": [
        {
          "internalType": "uint256",
          "name": "",
          "type": "uint256"
        }
      ],
      "stateMutability": "view",
      "type": "function"
    },
    {
      "inputs": [
        {
          "internalType": "address",
          "name": "from",
          "type": "address"
        },
        {
          "internalType": "address",
          "name": "to",
          "type": "address"
        },
        {
          "internalType": "uint256",
          "name": "tokenId",
          "type": "uint256"
        }
      ],
      "name": "transferFrom",
      "outputs": [],
      "stateMutability": "nonpayable",
      "type": "function"
    },
    {
      "inputs": [
        {
          "internalType": "address",
          "name": "newOwner",
          "type": "address"
        }
      ],
      "name": "transferOwnership",
      "outputs": [],
      "stateMutability": "nonpayable",
      "type": "function"
    }
  ],
  "bytecode": "0x60c06040526000805560006009553480156200001a57600080fd5b5060405162004c0b38038062004c0b8339818101604052810190620000409190620003df565b6040518060400160405280600b81526020017f506978656c20486f7573650000000000000000000000000000000000000000008152506040518060400160405280600581526020017f484f555345000000000000000000000000000000000000000000000000000000815250600161271060008111620000f7576040517f08c379a0000000000000000000000000000000000000000000000000000000008152600401620000ee9062000490565b60405180910390fd5b600082116200013d576040517f08c379a000000000000000000000000000000000000000000000000000000000815260040162000134906200046e565b60405180910390fd5b83600190805190602001906200015592919062000318565b5082600290805190602001906200016e92919062000318565b508160a08181525050806080818152505050505050620001a3620001976200024a60201b60201c565b6200025260201b60201c565b670de0b6b3a76400006064620001ba9190620004c3565b600d8190555081600b60006101000a81548173ffffffffffffffffffffffffffffffffffffffff021916908373ffffffffffffffffffffffffffffffffffffffff16021790555080600c60006101000a81548173ffffffffffffffffffffffffffffffffffffffff021916908373ffffffffffffffffffffffffffffffffffffffff1602179055505050620006ae565b600033905090565b6000600a60009054906101000a900473ffffffffffffffffffffffffffffffffffffffff16905081600a60006101000a81548173ffffffffffffffffffffffffffffffffffffffff021916908373ffffffffffffffffffffffffffffffffffffffff1602179055508173ffffffffffffffffffffffffffffffffffffffff168173ffffffffffffffffffffffffffffffffffffffff167f8be0079c531659141344cd1fd0a4f28419497f9722a3daafe3b4186f6b6457e060405160405180910390a35050565b828054620003269062000562565b90600052602060002090601f0160209004810192826200034a576000855562000396565b82601f106200036557805160ff191683800117855562000396565b8280016001018555821562000396579182015b828111156200039557825182559160200191906001019062000378565b5b509050620003a59190620003a9565b5090565b5b80821115620003c4576000816000905550600101620003aa565b5090565b600081519050620003d98162000694565b92915050565b60008060408385031215620003f357600080fd5b60006200040385828601620003c8565b92505060206200041685828601620003c8565b9150509250929050565b60006200042f602783620004b2565b91506200043c82620005f6565b604082019050919050565b600062000456602e83620004b2565b9150620004638262000645565b604082019050919050565b60006020820190508181036000830152620004898162000420565b9050919050565b60006020820190508181036000830152620004ab8162000447565b9050919050565b600082825260208201905092915050565b6000620004d08262000558565b9150620004dd8362000558565b9250817fffffffffffffffffffffffffffffffffffffffffffffffffffffffffffffffff048311821515161562000519576200051862000598565b5b828202905092915050565b6000620005318262000538565b9050919050565b600073ffffffffffffffffffffffffffffffffffffffff82169050919050565b6000819050919050565b600060028204905060018216806200057b57607f821691505b60208210811415620005925762000591620005c7565b5b50919050565b7f4e487b7100000000000000000000000000000000000000000000000000000000600052601160045260246000fd5b7f4e487b7100000000000000000000000000000000000000000000000000000000600052602260045260246000fd5b7f455243373231413a206d61782062617463682073697a65206d7573742062652060008201527f6e6f6e7a65726f00000000000000000000000000000000000000000000000000602082015250565b7f455243373231413a20636f6c6c656374696f6e206d757374206861766520612060008201527f6e6f6e7a65726f20737570706c79000000000000000000000000000000000000602082015250565b6200069f8162000524565b8114620006ab57600080fd5b50565b60805160a05161452c620006df6000396000818161211a01528181612143015261281301526000505061452c6000f3fe608060405234801561001057600080fd5b50600436106101da5760003560e01c806370a0823111610104578063b88d4fde116100a2578063e985e9c511610071578063e985e9c514610557578063f2fde38b14610587578063f364333d146105a3578063f641fb71146105ad576101da565b8063b88d4fde146104cf578063bf7e214f146104eb578063c87b56dd14610509578063d7224ba014610539576101da565b80638da5cb5b116100de5780638da5cb5b1461044757806395d89b4114610465578063a22cb46514610483578063aeda852f1461049f576101da565b806370a08231146103ef578063715018a61461041f5780638cd295c214610429576101da565b80632ca5185a1161017c57806342842e0e1161014b57806342842e0e146103575780634f6ccce714610373578063600c3922146103a35780636352211e146103bf576101da565b80632ca5185a146102d15780632e0f2625146102ed5780632f745c591461030b57806330e0789e1461033b576101da565b8063081812fc116101b8578063081812fc1461024b578063095ea7b31461027b57806318160ddd1461029757806323b872dd146102b5576101da565b806301ffc9a7146101df57806304dfd5e61461020f57806306fdde031461022d575b600080fd5b6101f960048036038101906101f4919061300a565b6105cb565b60405161020691906135a6565b60405180910390f35b610217610715565b6040516102249190613919565b60405180910390f35b61023561071b565b60405161024291906135f7565b60405180910390f35b6102656004803603810190610260919061305c565b6107ad565b6040516102729190613508565b60405180910390f35b61029560048036038101906102909190612fa5565b610832565b005b61029f61094b565b6040516102ac9190613919565b60405180910390f35b6102cf60048036038101906102ca9190612e9f565b610954565b005b6102eb60048036038101906102e69190612e9f565b610964565b005b6102f5610d6c565b6040516103029190613919565b60405180910390f35b61032560048036038101906103209190612fa5565b610d78565b6040516103329190613919565b60405180910390f35b61035560048036038101906103509190612e9f565b610f91565b005b610371600480360381019061036c9190612e9f565b61159c565b005b61038d6004803603810190610388919061305c565b6115bc565b60405161039a9190613919565b60405180910390f35b6103bd60048036038101906103b89190612e3a565b61160f565b005b6103d960048036038101906103d4919061305c565b6116be565b6040516103e69190613508565b60405180910390f35b61040960048036038101906104049190612e3a565b6116d4565b6040516104169190613919565b60405180910390f35b6104276117bd565b005b610431611845565b60405161043e91906135c1565b60405180910390f35b61044f61186b565b60405161045c9190613508565b60405180910390f35b61046d611895565b60405161047a91906135f7565b60405180910390f35b61049d60048036038101906104989190612f69565b611927565b005b6104b960048036038101906104b4919061305c565b611aa8565b6040516104c69190613919565b60405180910390f35b6104e960048036038101906104e49190612eee565b611ac6565b005b6104f3611b22565b6040516105009190613508565b60405180910390f35b610523600480360381019061051e919061305c565b611b48565b60405161053091906135f7565b60405180910390f35b610541611c5d565b60405161054e9190613919565b60405180910390f35b610571600480360381019061056c9190612e63565b611c63565b60405161057e91906135a6565b60405180910390f35b6105a1600480360381019061059c9190612e3a565b611cf7565b005b6105ab611def565b005b6105b5611f6f565b6040516105c291906135dc565b60405180910390f35b60007f80ac58cd000000000000000000000000000000000000000000000000000000007bffffffffffffffffffffffffffffffffffffffffffffffffffffffff1916827bffffffffffffffffffffffffffffffffffffffffffffffffffffffff1916148061069657507f5b5e139f000000000000000000000000000000000000000000000000000000007bffffffffffffffffffffffffffffffffffffffffffffffffffffffff1916827bffffffffffffffffffffffffffffffffffffffffffffffffffffffff1916145b806106fe57507f780e9d63000000000000000000000000000000000000000000000000000000007bffffffffffffffffffffffffffffffffffffffffffffffffffffffff1916827bffffffffffffffffffffffffffffffffffffffffffffffffffffffff1916145b8061070e575061070d82611f95565b5b9050919050565b600d5481565b60606001805461072a90613c46565b80601f016020809104026020016040519081016040528092919081815260200182805461075690613c46565b80156107a35780601f10610778576101008083540402835291602001916107a3565b820191906000526020600020905b81548152906001019060200180831161078657829003601f168201915b5050505050905090565b60006107b882611fff565b6107f7576040517f08c379a00000000000000000000000000000000000000000000000000000000081526004016107ee906138d9565b60405180910390fd5b6006600083815260200190815260200160002060009054906101000a900473ffffffffffffffffffffffffffffffffffffffff169050919050565b600061083d826116be565b90508073ffffffffffffffffffffffffffffffffffffffff168373ffffffffffffffffffffffffffffffffffffffff1614156108ae576040517f08c379a00000000000000000000000000000000000000000000000000000000081526004016108a590613819565b60405180910390fd5b8073ffffffffffffffffffffffffffffffffffffffff166108cd61200c565b73ffffffffffffffffffffffffffffffffffffffff1614806108fc57506108fb816108f661200c565b611c63565b5b61093b576040517f08c379a000000000000000000000000000000000000000000000000000000000815260040161093290613719565b60405180910390fd5b610946838383612014565b505050565b60008054905090565b61095f838383610f91565b505050565b8273ffffffffffffffffffffffffffffffffffffffff16610984826116be565b73ffffffffffffffffffffffffffffffffffffffff16146109da576040517f08c379a00000000000000000000000000000000000000000000000000000000081526004016109d190613679565b60405180910390fd5b600860019054906101000a900473ffffffffffffffffffffffffffffffffffffffff1673ffffffffffffffffffffffffffffffffffffffff168373ffffffffffffffffffffffffffffffffffffffff1614610a6a576040517f08c379a0000000000000000000000000000000000000000000000000000000008152600401610a61906137f9565b60405180910390fd5b600073ffffffffffffffffffffffffffffffffffffffff168273ffffffffffffffffffffffffffffffffffffffff161415610ada576040517f08c379a0000000000000000000000000000000000000000000000000000000008152600401610ad1906136f9565b60405180910390fd5b60405180606001604052808373ffffffffffffffffffffffffffffffffffffffff1681526020014267ffffffffffffffff168152602001600015158152506004600083815260200190815260200160002060008201518160000160006101000a81548173ffffffffffffffffffffffffffffffffffffffff021916908373ffffffffffffffffffffffffffffffffffffffff16021790555060208201518160000160146101000a81548167ffffffffffffffff021916908367ffffffffffffffff160217905550604082015181600001601c6101000a81548160ff0219169083151502179055509050506001600560008473ffffffffffffffffffffffffffffffffffffffff1673ffffffffffffffffffffffffffffffffffffffff16815260200190815260200160002060000160008282829054906101000a90046fffffffffffffffffffffffffffffffff16610c3291906139cd565b92506101000a8154816fffffffffffffffffffffffffffffffff02191690836fffffffffffffffffffffffffffffffff1602179055506001600560008573ffffffffffffffffffffffffffffffffffffffff1673ffffffffffffffffffffffffffffffffffffffff16815260200190815260200160002060000160008282829054906101000a90046fffffffffffffffffffffffffffffffff16610cd69190613a9a565b92506101000a8154816fffffffffffffffffffffffffffffffff02191690836fffffffffffffffffffffffffffffffff160217905550808273ffffffffffffffffffffffffffffffffffffffff168473ffffffffffffffffffffffffffffffffffffffff167fddf252ad1be2c89b69c2b068fc378daa952ba7f163c4a11628f55a4df523b3ef60405160405180910390a4505050565b670de0b6b3a764000081565b6000610d83836116d4565b8210610dc4576040517f08c379a0000000000000000000000000000000000000000000000000000000008152600401610dbb90613619565b60405180910390fd5b6000610dce61094b565b905060008060005b83811015610f4f576000600460008381526020019081526020016000206040518060600160405290816000820160009054906101000a900473ffffffffffffffffffffffffffffffffffffffff1673ffffffffffffffffffffffffffffffffffffffff1673ffffffffffffffffffffffffffffffffffffffff1681526020016000820160149054906101000a900467ffffffffffffffff1667ffffffffffffffff1667ffffffffffffffff16815260200160008201601c9054906101000a900460ff1615151515815250509050600073ffffffffffffffffffffffffffffffffffffffff16816000015173ffffffffffffffffffffffffffffffffffffffff1614610ee357806000015192505b8773ffffffffffffffffffffffffffffffffffffffff168373ffffffffffffffffffffffffffffffffffffffff161415610f3b5786841415610f2c578195505050505050610f8b565b8380610f3790613ca9565b9450505b508080610f4790613ca9565b915050610dd6565b506040517f08c379a0000000000000000000000000000000000000000000000000000000008152600401610f8290613899565b60405180910390fd5b92915050565b6000610f9c826120c6565b90506000816000015173ffffffffffffffffffffffffffffffffffffffff16610fc361200c565b73ffffffffffffffffffffffffffffffffffffffff16148061101f5750610fe861200c565b73ffffffffffffffffffffffffffffffffffffffff16611007846107ad565b73ffffffffffffffffffffffffffffffffffffffff16145b8061103b575061103a826000015161103561200c565b611c63565b5b90508061107d576040517f08c379a0000000000000000000000000000000000000000000000000000000008152600401611074906137d9565b60405180910390fd5b8473ffffffffffffffffffffffffffffffffffffffff16826000015173ffffffffffffffffffffffffffffffffffffffff16146110ef576040517f08c379a00000000000000000000000000000000000000000000000000000000081526004016110e690613759565b60405180910390fd5b600073ffffffffffffffffffffffffffffffffffffffff168473ffffffffffffffffffffffffffffffffffffffff16141561115f576040517f08c379a0000000000000000000000000000000000000000000000000000000008152600401611156906136d9565b60405180910390fd5b61116c85858560016122e4565b61117c6000848460000151612014565b6001600560008773ffffffffffffffffffffffffffffffffffffffff1673ffffffffffffffffffffffffffffffffffffffff16815260200190815260200160002060000160008282829054906101000a90046fffffffffffffffffffffffffffffffff166111ea9190613a9a565b92506101000a8154816fffffffffffffffffffffffffffffffff02191690836fffffffffffffffffffffffffffffffff1602179055506001600560008673ffffffffffffffffffffffffffffffffffffffff1673ffffffffffffffffffffffffffffffffffffffff16815260200190815260200160002060000160008282829054906101000a90046fffffffffffffffffffffffffffffffff1661128e91906139cd565b92506101000a8154816fffffffffffffffffffffffffffffffff02191690836fffffffffffffffffffffffffffffffff16021790555060405180606001604052808573ffffffffffffffffffffffffffffffffffffffff1681526020014267ffffffffffffffff168152602001600015158152506004600085815260200190815260200160002060008201518160000160006101000a81548173ffffffffffffffffffffffffffffffffffffffff021916908373ffffffffffffffffffffffffffffffffffffffff16021790555060208201518160000160146101000a81548167ffffffffffffffff021916908367ffffffffffffffff160217905550604082015181600001601c6101000a81548160ff02191690831515021790555090505060006001846113bd9190613a13565b9050600073ffffffffffffffffffffffffffffffffffffffff166004600083815260200190815260200160002060000160009054906101000a900473ffffffffffffffffffffffffffffffffffffffff1673ffffffffffffffffffffffffffffffffffffffff16141561152c5761143381611fff565b1561152b576040518060600160405280846000015173ffffffffffffffffffffffffffffffffffffffff168152602001846020015167ffffffffffffffff168152602001600015158152506004600083815260200190815260200160002060008201518160000160006101000a81548173ffffffffffffffffffffffffffffffffffffffff021916908373ffffffffffffffffffffffffffffffffffffffff16021790555060208201518160000160146101000a81548167ffffffffffffffff021916908367ffffffffffffffff160217905550604082015181600001601c6101000a81548160ff0219169083151502179055509050505b5b838573ffffffffffffffffffffffffffffffffffffffff168773ffffffffffffffffffffffffffffffffffffffff167fddf252ad1be2c89b69c2b068fc378daa952ba7f163c4a11628f55a4df523b3ef60405160405180910390a461159486868660016122ea565b505050505050565b6115b783838360405180602001604052806000815250611ac6565b505050565b60006115c661094b565b8210611607576040517f08c379a00000000000000000000000000000000000000000000000000000000081526004016115fe906136b9565b60405180910390fd5b819050919050565b600860009054906101000a900460ff161561165f576040517f08c379a000000000000000000000000000000000000000000000000000000000815260040161165690613639565b60405180910390fd5b80600860016101000a81548173ffffffffffffffffffffffffffffffffffffffff021916908373ffffffffffffffffffffffffffffffffffffffff1602179055506001600860006101000a81548160ff02191690831515021790555050565b60006116c9826120c6565b600001519050919050565b60008073ffffffffffffffffffffffffffffffffffffffff168273ffffffffffffffffffffffffffffffffffffffff161415611745576040517f08c379a000000000000000000000000000000000000000000000000000000000815260040161173c90613739565b60405180910390fd5b600560008373ffffffffffffffffffffffffffffffffffffffff1673ffffffffffffffffffffffffffffffffffffffff16815260200190815260200160002060000160009054906101000a90046fffffffffffffffffffffffffffffffff166fffffffffffffffffffffffffffffffff169050919050565b6117c561200c565b73ffffffffffffffffffffffffffffffffffffffff166117e361186b565b73ffffffffffffffffffffffffffffffffffffffff1614611839576040517f08c379a000000000000000000000000000000000000000000000000000000000815260040161183090613779565b60405180910390fd5b61184360006122f0565b565b600b60009054906101000a900473ffffffffffffffffffffffffffffffffffffffff1681565b6000600a60009054906101000a900473ffffffffffffffffffffffffffffffffffffffff16905090565b6060600280546118a490613c46565b80601f01602080910402602001604051908101604052809291908181526020018280546118d090613c46565b801561191d5780601f106118f25761010080835404028352916020019161191d565b820191906000526020600020905b81548152906001019060200180831161190057829003601f168201915b5050505050905090565b61192f61200c565b73ffffffffffffffffffffffffffffffffffffffff168273ffffffffffffffffffffffffffffffffffffffff16141561199d576040517f08c379a0000000000000000000000000000000000000000000000000000000008152600401611994906137b9565b60405180910390fd5b80600760006119aa61200c565b73ffffffffffffffffffffffffffffffffffffffff1673ffffffffffffffffffffffffffffffffffffffff16815260200190815260200160002060008473ffffffffffffffffffffffffffffffffffffffff1673ffffffffffffffffffffffffffffffffffffffff16815260200190815260200160002060006101000a81548160ff0219169083151502179055508173ffffffffffffffffffffffffffffffffffffffff16611a5761200c565b73ffffffffffffffffffffffffffffffffffffffff167f17307eab39ab6107e8899845ad3d59bd9653f200f220920489ca2b5937696c3183604051611a9c91906135a6565b60405180910390a35050565b600e6020528060005260406000206000915090508060000154905081565b611ad1848484610f91565b611add848484846123b6565b611b1c576040517f08c379a0000000000000000000000000000000000000000000000000000000008152600401611b1390613839565b60405180910390fd5b50505050565b600860019054906101000a900473ffffffffffffffffffffffffffffffffffffffff1681565b6060611b5382611fff565b611b92576040517f08c379a0000000000000000000000000000000000000000000000000000000008152600401611b8990613799565b60405180910390fd5b6001151560046000848152602001908152602001600020600001601c9054906101000a900460ff1615151415611bff576040518060400160405280600481526020017f44656164000000000000000000000000000000000000000000000000000000008152509050611c58565b6000611c0961254d565b90506000815111611c295760405180602001604052806000815250611c54565b80611c3384612564565b604051602001611c449291906134e4565b6040516020818303038152906040525b9150505b919050565b60095481565b6000600760008473ffffffffffffffffffffffffffffffffffffffff1673ffffffffffffffffffffffffffffffffffffffff16815260200190815260200160002060008373ffffffffffffffffffffffffffffffffffffffff1673ffffffffffffffffffffffffffffffffffffffff16815260200190815260200160002060009054906101000a900460ff16905092915050565b611cff61200c565b73ffffffffffffffffffffffffffffffffffffffff16611d1d61186b565b73ffffffffffffffffffffffffffffffffffffffff1614611d73576040517f08c379a0000000000000000000000000000000000000000000000000000000008152600401611d6a90613779565b60405180910390fd5b600073ffffffffffffffffffffffffffffffffffffffff168173ffffffffffffffffffffffffffffffffffffffff161415611de3576040517f08c379a0000000000000000000000000000000000000000000000000000000008152600401611dda90613659565b60405180910390fd5b611dec816122f0565b50565b6000600c60009054906101000a900473ffffffffffffffffffffffffffffffffffffffff1673ffffffffffffffffffffffffffffffffffffffff166370a08231336040518263ffffffff1660e01b8152600401611e4c9190613508565b60206040518083038186803b158015611e6457600080fd5b505afa158015611e78573d6000803e3d6000fd5b505050506040513d601f19601f82011682018060405250810190611e9c9190613085565b1415611ea757600080fd5b600b60009054906101000a900473ffffffffffffffffffffffffffffffffffffffff1673ffffffffffffffffffffffffffffffffffffffff166323b872dd33611eee61186b565b600d546040518463ffffffff1660e01b8152600401611f0f93929190613523565b602060405180830381600087803b158015611f2957600080fd5b505af1158015611f3d573d6000803e3d6000fd5b505050506040513d601f19601f82011682018060405250810190611f619190612fe1565b50611f6d336001612711565b565b600c60009054906101000a900473ffffffffffffffffffffffffffffffffffffffff1681565b60007f01ffc9a7000000000000000000000000000000000000000000000000000000007bffffffffffffffffffffffffffffffffffffffffffffffffffffffff1916827bffffffffffffffffffffffffffffffffffffffffffffffffffffffff1916149050919050565b6000805482109050919050565b600033905090565b826006600084815260200190815260200160002060006101000a81548173ffffffffffffffffffffffffffffffffffffffff021916908373ffffffffffffffffffffffffffffffffffffffff160217905550818373ffffffffffffffffffffffffffffffffffffffff168273ffffffffffffffffffffffffffffffffffffffff167f8c5be1e5ebec7d5bd14f71427d1e84f3dd0314c0f7b2291e5b200ac8c7c3b92560405160405180910390a4505050565b6120ce612cfc565b6120d782611fff565b612116576040517f08c379a000000000000000000000000000000000000000000000000000000000815260040161210d90613699565b60405180910390fd5b60007f0000000000000000000000000000000000000000000000000000000000000000831061217a5760017f00000000000000000000000000000000000000000000000000000000000000008461216d9190613ace565b6121779190613a13565b90505b60008390505b8181106122a3576000600460008381526020019081526020016000206040518060600160405290816000820160009054906101000a900473ffffffffffffffffffffffffffffffffffffffff1673ffffffffffffffffffffffffffffffffffffffff1673ffffffffffffffffffffffffffffffffffffffff1681526020016000820160149054906101000a900467ffffffffffffffff1667ffffffffffffffff1667ffffffffffffffff16815260200160008201601c9054906101000a900460ff1615151515815250509050600073ffffffffffffffffffffffffffffffffffffffff16816000015173ffffffffffffffffffffffffffffffffffffffff161461228f578093505050506122df565b50808061229b90613c1c565b915050612180565b506040517f08c379a00000000000000000000000000000000000000000000000000000000081526004016122d6906138b9565b60405180910390fd5b919050565b50505050565b50505050565b6000600a60009054906101000a900473ffffffffffffffffffffffffffffffffffffffff16905081600a60006101000a81548173ffffffffffffffffffffffffffffffffffffffff021916908373ffffffffffffffffffffffffffffffffffffffff1602179055508173ffffffffffffffffffffffffffffffffffffffff168173ffffffffffffffffffffffffffffffffffffffff167f8be0079c531659141344cd1fd0a4f28419497f9722a3daafe3b4186f6b6457e060405160405180910390a35050565b60006123d78473ffffffffffffffffffffffffffffffffffffffff1661272f565b15612540578373ffffffffffffffffffffffffffffffffffffffff1663150b7a0261240061200c565b8786866040518563ffffffff1660e01b8152600401612422949392919061355a565b602060405180830381600087803b15801561243c57600080fd5b505af192505050801561246d57506040513d601f19601f8201168201806040525081019061246a9190613033565b60015b6124f0573d806000811461249d576040519150601f19603f3d011682016040523d82523d6000602084013e6124a2565b606091505b506000815114156124e8576040517f08c379a00000000000000000000000000000000000000000000000000000000081526004016124df90613839565b60405180910390fd5b805181602001fd5b63150b7a0260e01b7bffffffffffffffffffffffffffffffffffffffffffffffffffffffff1916817bffffffffffffffffffffffffffffffffffffffffffffffffffffffff191614915050612545565b600190505b949350505050565b606060405180602001604052806000815250905090565b606060008214156125ac576040518060400160405280600181526020017f3000000000000000000000000000000000000000000000000000000000000000815250905061270c565b600082905060005b600082146125de5780806125c790613ca9565b915050600a826125d79190613a69565b91506125b4565b60008167ffffffffffffffff811115612620577f4e487b7100000000000000000000000000000000000000000000000000000000600052604160045260246000fd5b6040519080825280601f01601f1916602001820160405280156126525781602001600182028036833780820191505090505b5090505b600085146127055760018261266b9190613ace565b9150600a8561267a9190613cf2565b60306126869190613a13565b60f81b8183815181106126c2577f4e487b7100000000000000000000000000000000000000000000000000000000600052603260045260246000fd5b60200101907effffffffffffffffffffffffffffffffffffffffffffffffffffffffffffff1916908160001a905350600a856126fe9190613a69565b9450612656565b8093505050505b919050565b61272b828260405180602001604052806000815250612752565b5050565b6000808273ffffffffffffffffffffffffffffffffffffffff163b119050919050565b600080549050600073ffffffffffffffffffffffffffffffffffffffff168473ffffffffffffffffffffffffffffffffffffffff1614156127c8576040517f08c379a00000000000000000000000000000000000000000000000000000000081526004016127bf90613879565b60405180910390fd5b6127d181611fff565b15612811576040517f08c379a000000000000000000000000000000000000000000000000000000000815260040161280890613859565b60405180910390fd5b7f0000000000000000000000000000000000000000000000000000000000000000831115612874576040517f08c379a000000000000000000000000000000000000000000000000000000000815260040161286b906138f9565b60405180910390fd5b61288160008583866122e4565b6000600560008673ffffffffffffffffffffffffffffffffffffffff1673ffffffffffffffffffffffffffffffffffffffff1681526020019081526020016000206040518060600160405290816000820160009054906101000a90046fffffffffffffffffffffffffffffffff166fffffffffffffffffffffffffffffffff166fffffffffffffffffffffffffffffffff1681526020016000820160109054906101000a90046fffffffffffffffffffffffffffffffff166fffffffffffffffffffffffffffffffff166fffffffffffffffffffffffffffffffff1681526020016001820160009054906101000a90046fffffffffffffffffffffffffffffffff166fffffffffffffffffffffffffffffffff166fffffffffffffffffffffffffffffffff1681525050905060405180606001604052808583600001516129c891906139cd565b6fffffffffffffffffffffffffffffffff1681526020018583602001516129ef91906139cd565b6fffffffffffffffffffffffffffffffff16815260200160006fffffffffffffffffffffffffffffffff16815250600560008773ffffffffffffffffffffffffffffffffffffffff1673ffffffffffffffffffffffffffffffffffffffff16815260200190815260200160002060008201518160000160006101000a8154816fffffffffffffffffffffffffffffffff02191690836fffffffffffffffffffffffffffffffff16021790555060208201518160000160106101000a8154816fffffffffffffffffffffffffffffffff02191690836fffffffffffffffffffffffffffffffff16021790555060408201518160010160006101000a8154816fffffffffffffffffffffffffffffffff02191690836fffffffffffffffffffffffffffffffff16021790555090505060405180606001604052808673ffffffffffffffffffffffffffffffffffffffff1681526020014267ffffffffffffffff168152602001600015158152506004600084815260200190815260200160002060008201518160000160006101000a81548173ffffffffffffffffffffffffffffffffffffffff021916908373ffffffffffffffffffffffffffffffffffffffff16021790555060208201518160000160146101000a81548167ffffffffffffffff021916908367ffffffffffffffff160217905550604082015181600001601c6101000a81548160ff021916908315150217905550905050600082905060005b85811015612cdf57818773ffffffffffffffffffffffffffffffffffffffff16600073ffffffffffffffffffffffffffffffffffffffff167fddf252ad1be2c89b69c2b068fc378daa952ba7f163c4a11628f55a4df523b3ef60405160405180910390a4612c7f60008884886123b6565b612cbe576040517f08c379a0000000000000000000000000000000000000000000000000000000008152600401612cb590613839565b60405180910390fd5b8180612cc990613ca9565b9250508080612cd790613ca9565b915050612c0e565b5080600081905550612cf460008785886122ea565b505050505050565b6040518060600160405280600073ffffffffffffffffffffffffffffffffffffffff168152602001600067ffffffffffffffff1681526020016000151581525090565b6000612d52612d4d84613959565b613934565b905082815260208101848484011115612d6a57600080fd5b612d75848285613bda565b509392505050565b600081359050612d8c8161449a565b92915050565b600081359050612da1816144b1565b92915050565b600081519050612db6816144b1565b92915050565b600081359050612dcb816144c8565b92915050565b600081519050612de0816144c8565b92915050565b600082601f830112612df757600080fd5b8135612e07848260208601612d3f565b91505092915050565b600081359050612e1f816144df565b92915050565b600081519050612e34816144df565b92915050565b600060208284031215612e4c57600080fd5b6000612e5a84828501612d7d565b91505092915050565b60008060408385031215612e7657600080fd5b6000612e8485828601612d7d565b9250506020612e9585828601612d7d565b9150509250929050565b600080600060608486031215612eb457600080fd5b6000612ec286828701612d7d565b9350506020612ed386828701612d7d565b9250506040612ee486828701612e10565b9150509250925092565b60008060008060808587031215612f0457600080fd5b6000612f1287828801612d7d565b9450506020612f2387828801612d7d565b9350506040612f3487828801612e10565b925050606085013567ffffffffffffffff811115612f5157600080fd5b612f5d87828801612de6565b91505092959194509250565b60008060408385031215612f7c57600080fd5b6000612f8a85828601612d7d565b9250506020612f9b85828601612d92565b9150509250929050565b60008060408385031215612fb857600080fd5b6000612fc685828601612d7d565b9250506020612fd785828601612e10565b9150509250929050565b600060208284031215612ff357600080fd5b600061300184828501612da7565b91505092915050565b60006020828403121561301c57600080fd5b600061302a84828501612dbc565b91505092915050565b60006020828403121561304557600080fd5b600061305384828501612dd1565b91505092915050565b60006020828403121561306e57600080fd5b600061307c84828501612e10565b91505092915050565b60006020828403121561309757600080fd5b60006130a584828501612e25565b91505092915050565b6130b781613b02565b82525050565b6130c681613b14565b82525050565b60006130d78261398a565b6130e181856139a0565b93506130f1818560208601613be9565b6130fa81613ddf565b840191505092915050565b61310e81613b92565b82525050565b61311d81613bb6565b82525050565b600061312e82613995565b61313881856139b1565b9350613148818560208601613be9565b61315181613ddf565b840191505092915050565b600061316782613995565b61317181856139c2565b9350613181818560208601613be9565b80840191505092915050565b600061319a6022836139b1565b91506131a582613df0565b604082019050919050565b60006131bd600c836139b1565b91506131c882613e3f565b602082019050919050565b60006131e06026836139b1565b91506131eb82613e68565b604082019050919050565b60006132036025836139b1565b915061320e82613eb7565b604082019050919050565b6000613226602a836139b1565b915061323182613f06565b604082019050919050565b60006132496023836139b1565b915061325482613f55565b604082019050919050565b600061326c6025836139b1565b915061327782613fa4565b604082019050919050565b600061328f6024836139b1565b915061329a82613ff3565b604082019050919050565b60006132b26039836139b1565b91506132bd82614042565b604082019050919050565b60006132d5602b836139b1565b91506132e082614091565b604082019050919050565b60006132f86026836139b1565b9150613303826140e0565b604082019050919050565b600061331b6020836139b1565b91506133268261412f565b602082019050919050565b600061333e602f836139b1565b915061334982614158565b604082019050919050565b6000613361601a836139b1565b915061336c826141a7565b602082019050919050565b60006133846032836139b1565b915061338f826141d0565b604082019050919050565b60006133a7600f836139b1565b91506133b28261421f565b602082019050919050565b60006133ca6022836139b1565b91506133d582614248565b604082019050919050565b60006133ed6033836139b1565b91506133f882614297565b604082019050919050565b6000613410601d836139b1565b915061341b826142e6565b602082019050919050565b60006134336021836139b1565b915061343e8261430f565b604082019050919050565b6000613456602e836139b1565b91506134618261435e565b604082019050919050565b6000613479602f836139b1565b9150613484826143ad565b604082019050919050565b600061349c602d836139b1565b91506134a7826143fc565b604082019050919050565b60006134bf6022836139b1565b91506134ca8261444b565b604082019050919050565b6134de81613b88565b82525050565b60006134f0828561315c565b91506134fc828461315c565b91508190509392505050565b600060208201905061351d60008301846130ae565b92915050565b600060608201905061353860008301866130ae565b61354560208301856130ae565b61355260408301846134d5565b949350505050565b600060808201905061356f60008301876130ae565b61357c60208301866130ae565b61358960408301856134d5565b818103606083015261359b81846130cc565b905095945050505050565b60006020820190506135bb60008301846130bd565b92915050565b60006020820190506135d66000830184613105565b92915050565b60006020820190506135f16000830184613114565b92915050565b600060208201905081810360008301526136118184613123565b905092915050565b600060208201905081810360008301526136328161318d565b9050919050565b60006020820190508181036000830152613652816131b0565b9050919050565b60006020820190508181036000830152613672816131d3565b9050919050565b60006020820190508181036000830152613692816131f6565b9050919050565b600060208201905081810360008301526136b281613219565b9050919050565b600060208201905081810360008301526136d28161323c565b9050919050565b600060208201905081810360008301526136f28161325f565b9050919050565b6000602082019050818103600083015261371281613282565b9050919050565b60006020820190508181036000830152613732816132a5565b9050919050565b60006020820190508181036000830152613752816132c8565b9050919050565b60006020820190508181036000830152613772816132eb565b9050919050565b600060208201905081810360008301526137928161330e565b9050919050565b600060208201905081810360008301526137b281613331565b9050919050565b600060208201905081810360008301526137d281613354565b9050919050565b600060208201905081810360008301526137f281613377565b9050919050565b600060208201905081810360008301526138128161339a565b9050919050565b60006020820190508181036000830152613832816133bd565b9050919050565b60006020820190508181036000830152613852816133e0565b9050919050565b6000602082019050818103600083015261387281613403565b9050919050565b6000602082019050818103600083015261389281613426565b9050919050565b600060208201905081810360008301526138b281613449565b9050919050565b600060208201905081810360008301526138d28161346c565b9050919050565b600060208201905081810360008301526138f28161348f565b9050919050565b60006020820190508181036000830152613912816134b2565b9050919050565b600060208201905061392e60008301846134d5565b92915050565b600061393e61394f565b905061394a8282613c78565b919050565b6000604051905090565b600067ffffffffffffffff82111561397457613973613db0565b5b61397d82613ddf565b9050602081019050919050565b600081519050919050565b600081519050919050565b600082825260208201905092915050565b600082825260208201905092915050565b600081905092915050565b60006139d882613b4c565b91506139e383613b4c565b9250826fffffffffffffffffffffffffffffffff03821115613a0857613a07613d23565b5b828201905092915050565b6000613a1e82613b88565b9150613a2983613b88565b9250827fffffffffffffffffffffffffffffffffffffffffffffffffffffffffffffffff03821115613a5e57613a5d613d23565b5b828201905092915050565b6000613a7482613b88565b9150613a7f83613b88565b925082613a8f57613a8e613d52565b5b828204905092915050565b6000613aa582613b4c565b9150613ab083613b4c565b925082821015613ac357613ac2613d23565b5b828203905092915050565b6000613ad982613b88565b9150613ae483613b88565b925082821015613af757613af6613d23565b5b828203905092915050565b6000613b0d82613b68565b9050919050565b60008115159050919050565b60007fffffffff0000000000000000000000000000000000000000000000000000000082169050919050565b60006fffffffffffffffffffffffffffffffff82169050919050565b600073ffffffffffffffffffffffffffffffffffffffff82169050919050565b6000819050919050565b6000613b9d82613ba4565b9050919050565b6000613baf82613b68565b9050919050565b6000613bc182613bc8565b9050919050565b6000613bd382613b68565b9050919050565b82818337600083830152505050565b60005b83811015613c07578082015181840152602081019050613bec565b83811115613c16576000848401525b50505050565b6000613c2782613b88565b91506000821415613c3b57613c3a613d23565b5b600182039050919050565b60006002820490506001821680613c5e57607f821691505b60208210811415613c7257613c71613d81565b5b50919050565b613c8182613ddf565b810181811067ffffffffffffffff82111715613ca057613c9f613db0565b5b80604052505050565b6000613cb482613b88565b91507fffffffffffffffffffffffffffffffffffffffffffffffffffffffffffffffff821415613ce757613ce6613d23565b5b600182019050919050565b6000613cfd82613b88565b9150613d0883613b88565b925082613d1857613d17613d52565b5b828206905092915050565b7f4e487b7100000000000000000000000000000000000000000000000000000000600052601160045260246000fd5b7f4e487b7100000000000000000000000000000000000000000000000000000000600052601260045260246000fd5b7f4e487b7100000000000000000000000000000000000000000000000000000000600052602260045260246000fd5b7f4e487b7100000000000000000000000000000000000000000000000000000000600052604160045260246000fd5b6000601f19601f8301169050919050565b7f455243373231413a206f776e657220696e646578206f7574206f6620626f756e60008201527f6473000000000000000000000000000000000000000000000000000000000000602082015250565b7f416c7265616479207365742e0000000000000000000000000000000000000000600082015250565b7f4f776e61626c653a206e6577206f776e657220697320746865207a65726f206160008201527f6464726573730000000000000000000000000000000000000000000000000000602082015250565b7f4552433732313a207472616e736665722066726f6d20696e636f72726563742060008201527f6f776e6572000000000000000000000000000000000000000000000000000000602082015250565b7f455243373231413a206f776e657220717565727920666f72206e6f6e6578697360008201527f74656e7420746f6b656e00000000000000000000000000000000000000000000602082015250565b7f455243373231413a20676c6f62616c20696e646578206f7574206f6620626f7560008201527f6e64730000000000000000000000000000000000000000000000000000000000602082015250565b7f455243373231413a207472616e7366657220746f20746865207a65726f20616460008201527f6472657373000000000000000000000000000000000000000000000000000000602082015250565b7f4552433732313a207472616e7366657220746f20746865207a65726f2061646460008201527f7265737300000000000000000000000000000000000000000000000000000000602082015250565b7f455243373231413a20617070726f76652063616c6c6572206973206e6f74206f60008201527f776e6572206e6f7220617070726f76656420666f7220616c6c00000000000000602082015250565b7f455243373231413a2062616c616e636520717565727920666f7220746865207a60008201527f65726f2061646472657373000000000000000000000000000000000000000000602082015250565b7f455243373231413a207472616e736665722066726f6d20696e636f727265637460008201527f206f776e65720000000000000000000000000000000000000000000000000000602082015250565b7f4f776e61626c653a2063616c6c6572206973206e6f7420746865206f776e6572600082015250565b7f4552433732314d657461646174613a2055524920717565727920666f72206e6f60008201527f6e6578697374656e7420746f6b656e0000000000000000000000000000000000602082015250565b7f455243373231413a20617070726f766520746f2063616c6c6572000000000000600082015250565b7f455243373231413a207472616e736665722063616c6c6572206973206e6f742060008201527f6f776e6572206e6f7220617070726f7665640000000000000000000000000000602082015250565b7f57726f6e6720636f6e74726163742e0000000000000000000000000000000000600082015250565b7f455243373231413a20617070726f76616c20746f2063757272656e74206f776e60008201527f6572000000000000000000000000000000000000000000000000000000000000602082015250565b7f455243373231413a207472616e7366657220746f206e6f6e204552433732315260008201527f6563656976657220696d706c656d656e74657200000000000000000000000000602082015250565b7f455243373231413a20746f6b656e20616c7265616479206d696e746564000000600082015250565b7f455243373231413a206d696e7420746f20746865207a65726f2061646472657360008201527f7300000000000000000000000000000000000000000000000000000000000000602082015250565b7f455243373231413a20756e61626c6520746f2067657420746f6b656e206f662060008201527f6f776e657220627920696e646578000000000000000000000000000000000000602082015250565b7f455243373231413a20756e61626c6520746f2064657465726d696e652074686560008201527f206f776e6572206f6620746f6b656e0000000000000000000000000000000000602082015250565b7f455243373231413a20617070726f76656420717565727920666f72206e6f6e6560008201527f78697374656e7420746f6b656e00000000000000000000000000000000000000602082015250565b7f455243373231413a207175616e7469747920746f206d696e7420746f6f20686960008201527f6768000000000000000000000000000000000000000000000000000000000000602082015250565b6144a381613b02565b81146144ae57600080fd5b50565b6144ba81613b14565b81146144c557600080fd5b50565b6144d181613b20565b81146144dc57600080fd5b50565b6144e881613b88565b81146144f357600080fd5b5056fea264697066735822122011deefe66bdb942e841a9312b15f3cba90fe3dabd9ee8f3cc63bd5935340b85664736f6c63430008040033",
  "linkReferences": {},
  "deployedLinkReferences": {}
}