{
  "_format": "hh-sol-artifact-1",
  "contractName": "PixellandMap",
  "sourceName": "contracts/PixellandMap.sol",
  "abi": [
    {
      "inputs": [
        {
          "internalType": "uint256",
          "name": "_x",
          "type": "uint256"
        },
        {
          "internalType": "uint256",
          "name": "_y",
          "type": "uint256"
        }
      ],
      "stateMutability": "nonpayable",
      "type": "constructor"
    },
    {
      "anonymous": false,
      "inputs": [
        {
          "indexed": true,
          "internalType": "address",
          "name": "previousOwner",
          "type": "address"
        },
        {
          "indexed": true,
          "internalType": "address",
          "name": "newOwner",
          "type": "address"
        }
      ],
      "name": "OwnershipTransferred",
      "type": "event"
    },
    {
      "inputs": [
        {
          "internalType": "uint256",
          "name": "_choice",
          "type": "uint256"
        },
        {
          "internalType": "address",
          "name": "_who",
          "type": "address"
        }
      ],
      "name": "approveOrReject",
      "outputs": [],
      "stateMutability": "nonpayable",
      "type": "function"
    },
    {
      "inputs": [],
      "name": "finalizeMapVote",
      "outputs": [],
      "stateMutability": "nonpayable",
      "type": "function"
    },
    {
      "inputs": [
        {
          "internalType": "address",
          "name": "addr",
          "type": "address"
        }
      ],
      "name": "getCoords",
      "outputs": [
        {
          "internalType": "uint256[2][2]",
          "name": "",
          "type": "uint256[2][2]"
        }
      ],
      "stateMutability": "view",
      "type": "function"
    },
    {
      "inputs": [],
      "name": "getMapSize",
      "outputs": [
        {
          "internalType": "uint256[2]",
          "name": "",
          "type": "uint256[2]"
        }
      ],
      "stateMutability": "view",
      "type": "function"
    },
    {
      "inputs": [
        {
          "internalType": "address",
          "name": "addr",
          "type": "address"
        }
      ],
      "name": "getProposalByAddress",
      "outputs": [
        {
          "internalType": "uint256[2][2]",
          "name": "",
          "type": "uint256[2][2]"
        }
      ],
      "stateMutability": "view",
      "type": "function"
    },
    {
      "inputs": [],
      "name": "getRecentProposal",
      "outputs": [
        {
          "components": [
            {
              "internalType": "uint256[2][2]",
              "name": "coords",
              "type": "uint256[2][2]"
            },
            {
              "internalType": "address",
              "name": "proposer",
              "type": "address"
            }
          ],
          "internalType": "struct PixellandMap.Plot",
          "name": "",
          "type": "tuple"
        }
      ],
      "stateMutability": "view",
      "type": "function"
    },
    {
      "inputs": [
        {
          "internalType": "address",
          "name": "",
          "type": "address"
        },
        {
          "internalType": "uint256",
          "name": "",
          "type": "uint256"
        }
      ],
      "name": "hasVoted",
      "outputs": [
        {
          "internalType": "bool",
          "name": "",
          "type": "bool"
        }
      ],
      "stateMutability": "view",
      "type": "function"
    },
    {
      "inputs": [],
      "name": "id",
      "outputs": [
        {
          "internalType": "uint256",
          "name": "",
          "type": "uint256"
        }
      ],
      "stateMutability": "view",
      "type": "function"
    },
    {
      "inputs": [
        {
          "internalType": "uint256",
          "name": "",
          "type": "uint256"
        },
        {
          "internalType": "uint256",
          "name": "",
          "type": "uint256"
        }
      ],
      "name": "isOwned",
      "outputs": [
        {
          "internalType": "bool",
          "name": "",
          "type": "bool"
        }
      ],
      "stateMutability": "view",
      "type": "function"
    },
    {
      "inputs": [
        {
          "internalType": "address",
          "name": "",
          "type": "address"
        }
      ],
      "name": "isVoter",
      "outputs": [
        {
          "internalType": "bool",
          "name": "",
          "type": "bool"
        }
      ],
      "stateMutability": "view",
      "type": "function"
    },
    {
      "inputs": [
        {
          "internalType": "uint256",
          "name": "",
          "type": "uint256"
        }
      ],
      "name": "mapDimensions",
      "outputs": [
        {
          "internalType": "uint256",
          "name": "",
          "type": "uint256"
        }
      ],
      "stateMutability": "view",
      "type": "function"
    },
    {
      "inputs": [
        {
          "internalType": "uint256",
          "name": "",
          "type": "uint256"
        }
      ],
      "name": "mapVotesInProgress",
      "outputs": [
        {
          "internalType": "uint256",
          "name": "voteCount",
          "type": "uint256"
        },
        {
          "internalType": "uint256",
          "name": "votesFor",
          "type": "uint256"
        },
        {
          "internalType": "uint256",
          "name": "votesAgainst",
          "type": "uint256"
        }
      ],
      "stateMutability": "view",
      "type": "function"
    },
    {
      "inputs": [
        {
          "internalType": "address",
          "name": "",
          "type": "address"
        },
        {
          "internalType": "uint256",
          "name": "",
          "type": "uint256"
        },
        {
          "internalType": "uint256",
          "name": "",
          "type": "uint256"
        }
      ],
      "name": "myPlots",
      "outputs": [
        {
          "internalType": "uint256",
          "name": "",
          "type": "uint256"
        }
      ],
      "stateMutability": "view",
      "type": "function"
    },
    {
      "inputs": [],
      "name": "owner",
      "outputs": [
        {
          "internalType": "address",
          "name": "",
          "type": "address"
        }
      ],
      "stateMutability": "view",
      "type": "function"
    },
    {
      "inputs": [
        {
          "internalType": "uint256",
          "name": "",
          "type": "uint256"
        },
        {
          "internalType": "uint256",
          "name": "",
          "type": "uint256"
        }
      ],
      "name": "ownerOf",
      "outputs": [
        {
          "internalType": "address",
          "name": "",
          "type": "address"
        }
      ],
      "stateMutability": "view",
      "type": "function"
    },
    {
      "inputs": [
        {
          "internalType": "address",
          "name": "",
          "type": "address"
        }
      ],
      "name": "plotProposal",
      "outputs": [
        {
          "internalType": "address",
          "name": "proposer",
          "type": "address"
        }
      ],
      "stateMutability": "view",
      "type": "function"
    },
    {
      "inputs": [
        {
          "internalType": "uint256",
          "name": "",
          "type": "uint256"
        }
      ],
      "name": "propList",
      "outputs": [
        {
          "internalType": "address",
          "name": "proposer",
          "type": "address"
        }
      ],
      "stateMutability": "view",
      "type": "function"
    },
    {
      "inputs": [
        {
          "internalType": "uint256",
          "name": "x",
          "type": "uint256"
        },
        {
          "internalType": "uint256",
          "name": "y",
          "type": "uint256"
        }
      ],
      "name": "proposeMapExpansion",
      "outputs": [],
      "stateMutability": "nonpayable",
      "type": "function"
    },
    {
      "inputs": [
        {
          "internalType": "uint256",
          "name": "x1",
          "type": "uint256"
        },
        {
          "internalType": "uint256",
          "name": "y1",
          "type": "uint256"
        },
        {
          "internalType": "uint256",
          "name": "x2",
          "type": "uint256"
        },
        {
          "internalType": "uint256",
          "name": "y2",
          "type": "uint256"
        }
      ],
      "name": "proposePlot",
      "outputs": [],
      "stateMutability": "nonpayable",
      "type": "function"
    },
    {
      "inputs": [],
      "name": "renounceOwnership",
      "outputs": [],
      "stateMutability": "nonpayable",
      "type": "function"
    },
    {
      "inputs": [
        {
          "internalType": "address",
          "name": "newOwner",
          "type": "address"
        }
      ],
      "name": "transferOwnership",
      "outputs": [],
      "stateMutability": "nonpayable",
      "type": "function"
    },
    {
      "inputs": [
        {
          "internalType": "uint256",
          "name": "_choice",
          "type": "uint256"
        }
      ],
      "name": "vote",
      "outputs": [],
      "stateMutability": "nonpayable",
      "type": "function"
    },
    {
      "inputs": [],
      "name": "voteInProgress",
      "outputs": [
        {
          "internalType": "bool",
          "name": "",
          "type": "bool"
        }
      ],
      "stateMutability": "view",
      "type": "function"
    },
    {
      "inputs": [],
      "name": "voters",
      "outputs": [
        {
          "internalType": "uint256",
          "name": "",
          "type": "uint256"
        }
      ],
      "stateMutability": "view",
      "type": "function"
    }
  ],
  "bytecode": "0x60806040523480156200001157600080fd5b50604051620033c5380380620033c583398181016040528101906200003791906200022d565b620000576200004b6200014a60201b60201c565b6200015260201b60201c565b81600160006002811062000094577f4e487b7100000000000000000000000000000000000000000000000000000000600052603260045260246000fd5b01819055508060018060028110620000d5577f4e487b7100000000000000000000000000000000000000000000000000000000600052603260045260246000fd5b01819055506001600560003373ffffffffffffffffffffffffffffffffffffffff1673ffffffffffffffffffffffffffffffffffffffff16815260200190815260200160002060006101000a81548160ff02191690831515021790555060016003819055506001600781905550505062000292565b600033905090565b60008060009054906101000a900473ffffffffffffffffffffffffffffffffffffffff169050816000806101000a81548173ffffffffffffffffffffffffffffffffffffffff021916908373ffffffffffffffffffffffffffffffffffffffff1602179055508173ffffffffffffffffffffffffffffffffffffffff168173ffffffffffffffffffffffffffffffffffffffff167f8be0079c531659141344cd1fd0a4f28419497f9722a3daafe3b4186f6b6457e060405160405180910390a35050565b600081519050620002278162000278565b92915050565b600080604083850312156200024157600080fd5b6000620002518582860162000216565b9250506020620002648582860162000216565b9150509250929050565b6000819050919050565b62000283816200026e565b81146200028f57600080fd5b50565b61312380620002a26000396000f3fe608060405234801561001057600080fd5b50600436106101585760003560e01c80638da5cb5b116100c3578063af640d0f1161007c578063af640d0f146103ef578063d3f4333f1461040d578063d9dad80d1461043d578063e2c19c231461046d578063f2fde38b1461048b578063f6caaad9146104a757610158565b80638da5cb5b1461031b578063997afb9d146103395780639cb1fc76146103695780639e87ae6414610399578063a7771ee3146103a3578063aa5ad485146103d357610158565b806352f8c2911161011557806352f8c2911461024757806360412a9214610277578063630fd91a146102a7578063715018a6146102c35780638a51b5d4146102cd5780638c6fbe83146102fd57610158565b80630121b93f1461015d578063350580ea146101795780633706e7e8146101975780633bf5f16c146101b55780633d9f55e7146101e75780634254582514610217575b600080fd5b610177600480360381019061017291906126ef565b6104c3565b005b6101816107ea565b60405161018e9190612cdb565b60405180910390f35b61019f6107f0565b6040516101ac9190612b6a565b60405180910390f35b6101cf60048036038101906101ca91906126ef565b61083b565b6040516101de93929190612cf6565b60405180910390f35b61020160048036038101906101fc91906126ef565b610865565b60405161020e9190612b34565b60405180910390f35b610231600480360381019061022c9190612664565b6108b3565b60405161023e9190612b85565b60405180910390f35b610261600480360381019061025c919061263b565b6108e2565b60405161026e9190612b4f565b60405180910390f35b610291600480360381019061028c91906126a0565b6109a4565b60405161029e9190612cdb565b60405180910390f35b6102c160048036038101906102bc9190612718565b6109df565b005b6102cb6112bb565b005b6102e760048036038101906102e29190612754565b611343565b6040516102f49190612b85565b60405180910390f35b610305611372565b6040516103129190612cc0565b60405180910390f35b6103236114a6565b6040516103309190612b34565b60405180910390f35b610353600480360381019061034e919061263b565b6114cf565b6040516103609190612b4f565b60405180910390f35b610383600480360381019061037e91906126ef565b611594565b6040516103909190612cdb565b60405180910390f35b6103a16115af565b005b6103bd60048036038101906103b8919061263b565b61172c565b6040516103ca9190612b85565b60405180910390f35b6103ed60048036038101906103e89190612790565b61174c565b005b6103f7611b02565b6040516104049190612cdb565b60405180910390f35b6104276004803603810190610422919061263b565b611b08565b6040516104349190612b34565b60405180910390f35b61045760048036038101906104529190612754565b611b46565b6040516104649190612b34565b60405180910390f35b610475611b88565b6040516104829190612b85565b60405180910390f35b6104a560048036038101906104a0919061263b565b611b9b565b005b6104c160048036038101906104bc9190612754565b611c93565b005b60008114806104d25750600181145b610511576040517f08c379a000000000000000000000000000000000000000000000000000000000815260040161050890612bc0565b60405180910390fd5b60011515600560003373ffffffffffffffffffffffffffffffffffffffff1673ffffffffffffffffffffffffffffffffffffffff16815260200190815260200160002060009054906101000a900460ff161515146105a4576040517f08c379a000000000000000000000000000000000000000000000000000000000815260040161059b90612c20565b60405180910390fd5b60001515600660003373ffffffffffffffffffffffffffffffffffffffff1673ffffffffffffffffffffffffffffffffffffffff1681526020019081526020016000206000600754815260200190815260200160002060009054906101000a900460ff1615151461064a576040517f08c379a000000000000000000000000000000000000000000000000000000000815260040161064190612ca0565b60405180910390fd5b600081141561071f57600860006007548152602001908152602001600020600101600081548092919061067c90612e5b565b919050555060086000600754815260200190815260200160002060000160008154809291906106aa90612e5b565b91905055506001600660003373ffffffffffffffffffffffffffffffffffffffff1673ffffffffffffffffffffffffffffffffffffffff1681526020019081526020016000206000600754815260200190815260200160002060006101000a81548160ff0219169083151502179055506107e7565b600860006007548152602001908152602001600020600201600081548092919061074890612e5b565b9190505550600860006007548152602001908152602001600020600001600081548092919061077690612e5b565b91905055506001600660003373ffffffffffffffffffffffffffffffffffffffff1673ffffffffffffffffffffffffffffffffffffffff1681526020019081526020016000206000600754815260200190815260200160002060006101000a81548160ff0219169083151502179055505b50565b60035481565b6107f861232e565b6001600280602002604051908101604052809291908260028015610831576020028201915b81548152602001906001019080831161081d575b5050505050905090565b60086020528060005260406000206000915090508060000154908060010154908060020154905083565b6009818154811061087557600080fd5b90600052602060002090600502016000915090508060040160009054906101000a900473ffffffffffffffffffffffffffffffffffffffff16905081565b60066020528160005260406000206020528060005260406000206000915091509054906101000a900460ff1681565b6108ea612350565b600b60008373ffffffffffffffffffffffffffffffffffffffff1673ffffffffffffffffffffffffffffffffffffffff168152602001908152602001600020600280602002604051908101604052809291906000905b8282101561099957838260020201600280602002604051908101604052809291908260028015610985576020028201915b815481526020019060010190808311610971575b505050505081526020019060010190610940565b505050509050919050565b600b60205282600052604060002082600281106109c057600080fd5b6002020181600281106109d257600080fd5b0160009250925050505481565b6109e7611f4b565b73ffffffffffffffffffffffffffffffffffffffff16610a056114a6565b73ffffffffffffffffffffffffffffffffffffffff1614610a5b576040517f08c379a0000000000000000000000000000000000000000000000000000000008152600401610a5290612c40565b60405180910390fd5b6000821480610a6a5750600182145b610aa9576040517f08c379a0000000000000000000000000000000000000000000000000000000008152600401610aa090612bc0565b60405180910390fd5b600082141561106757610da381600a60008473ffffffffffffffffffffffffffffffffffffffff1673ffffffffffffffffffffffffffffffffffffffff168152602001908152602001600020600001600060028110610b31577f4e487b7100000000000000000000000000000000000000000000000000000000600052603260045260246000fd5b60020201600060028110610b6e577f4e487b7100000000000000000000000000000000000000000000000000000000600052603260045260246000fd5b0154600a60008573ffffffffffffffffffffffffffffffffffffffff1673ffffffffffffffffffffffffffffffffffffffff168152602001908152602001600020600001600060028110610beb577f4e487b7100000000000000000000000000000000000000000000000000000000600052603260045260246000fd5b60020201600160028110610c28577f4e487b7100000000000000000000000000000000000000000000000000000000600052603260045260246000fd5b0154600a60008673ffffffffffffffffffffffffffffffffffffffff1673ffffffffffffffffffffffffffffffffffffffff168152602001908152602001600020600001600160028110610ca5577f4e487b7100000000000000000000000000000000000000000000000000000000600052603260045260246000fd5b60020201600060028110610ce2577f4e487b7100000000000000000000000000000000000000000000000000000000600052603260045260246000fd5b0154600a60008773ffffffffffffffffffffffffffffffffffffffff1673ffffffffffffffffffffffffffffffffffffffff168152602001908152602001600020600001600160028110610d5f577f4e487b7100000000000000000000000000000000000000000000000000000000600052603260045260246000fd5b60020201600160028110610d9c577f4e487b7100000000000000000000000000000000000000000000000000000000600052603260045260246000fd5b0154611f53565b6001600560008373ffffffffffffffffffffffffffffffffffffffff1673ffffffffffffffffffffffffffffffffffffffff16815260200190815260200160002060006101000a81548160ff02191690831515021790555060036000815480929190610e0e90612e5b565b919050555060405180604001604052806040518060400160405280600060ff168152602001600060ff1681525081526020016040518060400160405280600060ff168152602001600060ff16815250815250600a60008373ffffffffffffffffffffffffffffffffffffffff1673ffffffffffffffffffffffffffffffffffffffff168152602001908152602001600020600001906002610eb092919061237d565b5060006001600980549050610ec59190612ddf565b905060098181548110610f01577f4e487b7100000000000000000000000000000000000000000000000000000000600052603260045260246000fd5b90600052602060002090600502016009600081548110610f4a577f4e487b7100000000000000000000000000000000000000000000000000000000600052603260045260246000fd5b90600052602060002090600502016000820181600001906002610f6e9291906123cd565b506004820160009054906101000a900473ffffffffffffffffffffffffffffffffffffffff168160040160006101000a81548173ffffffffffffffffffffffffffffffffffffffff021916908373ffffffffffffffffffffffffffffffffffffffff1602179055509050506009805480611011577f4e487b7100000000000000000000000000000000000000000000000000000000600052603160045260246000fd5b600190038181906000526020600020906005020160008082016000611036919061241c565b6004820160006101000a81549073ffffffffffffffffffffffffffffffffffffffff021916905550509055506112b7565b60405180604001604052806040518060400160405280600060ff168152602001600060ff1681525081526020016040518060400160405280600060ff168152602001600060ff16815250815250600a60008373ffffffffffffffffffffffffffffffffffffffff1673ffffffffffffffffffffffffffffffffffffffff16815260200190815260200160002060000190600261110492919061237d565b50600060016009805490506111199190612ddf565b905060098181548110611155577f4e487b7100000000000000000000000000000000000000000000000000000000600052603260045260246000fd5b9060005260206000209060050201600960008154811061119e577f4e487b7100000000000000000000000000000000000000000000000000000000600052603260045260246000fd5b906000526020600020906005020160008201816000019060026111c29291906123cd565b506004820160009054906101000a900473ffffffffffffffffffffffffffffffffffffffff168160040160006101000a81548173ffffffffffffffffffffffffffffffffffffffff021916908373ffffffffffffffffffffffffffffffffffffffff1602179055509050506009805480611265577f4e487b7100000000000000000000000000000000000000000000000000000000600052603160045260246000fd5b60019003818190600052602060002090600502016000808201600061128a919061241c565b6004820160006101000a81549073ffffffffffffffffffffffffffffffffffffffff021916905550509055505b5050565b6112c3611f4b565b73ffffffffffffffffffffffffffffffffffffffff166112e16114a6565b73ffffffffffffffffffffffffffffffffffffffff1614611337576040517f08c379a000000000000000000000000000000000000000000000000000000000815260040161132e90612c40565b60405180910390fd5b61134160006121d1565b565b600c6020528160005260406000206020528060005260406000206000915091509054906101000a900460ff1681565b61137a61243d565b60096000815481106113b5577f4e487b7100000000000000000000000000000000000000000000000000000000600052603260045260246000fd5b906000526020600020906005020160405180604001604052908160008201600280602002604051908101604052809291906000905b828210156114435783826002020160028060200260405190810160405280929190826002801561142f576020028201915b81548152602001906001019080831161141b575b5050505050815260200190600101906113ea565b5050505081526020016004820160009054906101000a900473ffffffffffffffffffffffffffffffffffffffff1673ffffffffffffffffffffffffffffffffffffffff1673ffffffffffffffffffffffffffffffffffffffff1681525050905090565b60008060009054906101000a900473ffffffffffffffffffffffffffffffffffffffff16905090565b6114d7612350565b600a60008373ffffffffffffffffffffffffffffffffffffffff1673ffffffffffffffffffffffffffffffffffffffff168152602001908152602001600020600001600280602002604051908101604052809291906000905b8282101561158957838260020201600280602002604051908101604052809291908260028015611575576020028201915b815481526020019060010190808311611561575b505050505081526020019060010190611530565b505050509050919050565b600181600281106115a457600080fd5b016000915090505481565b6115b7611f4b565b73ffffffffffffffffffffffffffffffffffffffff166115d56114a6565b73ffffffffffffffffffffffffffffffffffffffff161461162b576040517f08c379a000000000000000000000000000000000000000000000000000000000815260040161162290612c40565b60405180910390fd5b600260035461163a9190612dae565b600860006007548152602001908152602001600020600001541161165d57600080fd5b600860006007548152602001908152602001600020600201546008600060075481526020019081526020016000206001015411156116f65760086000600754815260200190815260200160002060030160019060026116bd929190612473565b506000600460006101000a81548160ff021916908315150217905550600760008154809291906116ec90612e5b565b919050555061172a565b6000600460006101000a81548160ff0219169083151502179055506007600081548092919061172490612e5b565b91905055505b565b60056020528060005260406000206000915054906101000a900460ff1681565b600061175a85858585612295565b905060001515811515146117a3576040517f08c379a000000000000000000000000000000000000000000000000000000000815260040161179a90612be0565b60405180910390fd5b60016000600281106117de577f4e487b7100000000000000000000000000000000000000000000000000000000600052603260045260246000fd5b0154851115801561182a575060018060028110611824577f4e487b7100000000000000000000000000000000000000000000000000000000600052603260045260246000fd5b01548411155b61183357600080fd5b600160006002811061186e577f4e487b7100000000000000000000000000000000000000000000000000000000600052603260045260246000fd5b015483111580156118ba5750600180600281106118b4577f4e487b7100000000000000000000000000000000000000000000000000000000600052603260045260246000fd5b01548211155b6118c357600080fd5b600085101580156118d5575060008410155b6118de57600080fd5b600083101580156118f0575060008210155b6118f957600080fd5b60405180604001604052806040518060400160405280888152602001878152508152602001604051806040016040528086815260200185815250815250600a60003373ffffffffffffffffffffffffffffffffffffffff1673ffffffffffffffffffffffffffffffffffffffff1681526020019081526020016000206000019060026119869291906124b0565b5033600a60003373ffffffffffffffffffffffffffffffffffffffff1673ffffffffffffffffffffffffffffffffffffffff16815260200190815260200160002060040160006101000a81548173ffffffffffffffffffffffffffffffffffffffff021916908373ffffffffffffffffffffffffffffffffffffffff16021790555060096040518060400160405280604051806040016040528060405180604001604052808b81526020018a815250815260200160405180604001604052808981526020018881525081525081526020013373ffffffffffffffffffffffffffffffffffffffff168152509080600181540180825580915050600190039060005260206000209060050201600090919091909150600082015181600001906002611ab19291906124b0565b5060208201518160040160006101000a81548173ffffffffffffffffffffffffffffffffffffffff021916908373ffffffffffffffffffffffffffffffffffffffff16021790555050505050505050565b60075481565b600a6020528060005260406000206000915090508060040160009054906101000a900473ffffffffffffffffffffffffffffffffffffffff16905081565b600d6020528160005260406000206020528060005260406000206000915091509054906101000a900473ffffffffffffffffffffffffffffffffffffffff1681565b600460009054906101000a900460ff1681565b611ba3611f4b565b73ffffffffffffffffffffffffffffffffffffffff16611bc16114a6565b73ffffffffffffffffffffffffffffffffffffffff1614611c17576040517f08c379a0000000000000000000000000000000000000000000000000000000008152600401611c0e90612c40565b60405180910390fd5b600073ffffffffffffffffffffffffffffffffffffffff168173ffffffffffffffffffffffffffffffffffffffff161415611c87576040517f08c379a0000000000000000000000000000000000000000000000000000000008152600401611c7e90612ba0565b60405180910390fd5b611c90816121d1565b50565b611c9b611f4b565b73ffffffffffffffffffffffffffffffffffffffff16611cb96114a6565b73ffffffffffffffffffffffffffffffffffffffff1614611d0f576040517f08c379a0000000000000000000000000000000000000000000000000000000008152600401611d0690612c40565b60405180910390fd5b60001515600460009054906101000a900460ff16151514611d65576040517f08c379a0000000000000000000000000000000000000000000000000000000008152600401611d5c90612c60565b60405180910390fd5b6001600060028110611da0577f4e487b7100000000000000000000000000000000000000000000000000000000600052603260045260246000fd5b01548210158015611dec575060018060028110611de6577f4e487b7100000000000000000000000000000000000000000000000000000000600052603260045260246000fd5b01548110155b611e2b576040517f08c379a0000000000000000000000000000000000000000000000000000000008152600401611e2290612c00565b60405180910390fd5b6001600060028110611e66577f4e487b7100000000000000000000000000000000000000000000000000000000600052603260045260246000fd5b015482101580611eb1575060018060028110611eab577f4e487b7100000000000000000000000000000000000000000000000000000000600052603260045260246000fd5b01548110155b611ef0576040517f08c379a0000000000000000000000000000000000000000000000000000000008152600401611ee790612c80565b60405180910390fd5b604051806040016040528083815260200182815250600860006007548152602001908152602001600020600301906002611f2b929190612500565b506001600460006101000a81548160ff0219169083151502179055505050565b600033905090565b611f5b611f4b565b73ffffffffffffffffffffffffffffffffffffffff16611f796114a6565b73ffffffffffffffffffffffffffffffffffffffff1614611fcf576040517f08c379a0000000000000000000000000000000000000000000000000000000008152600401611fc690612c40565b60405180910390fd5b60405180604001604052806040518060400160405280878152602001868152508152602001604051806040016040528085815260200184815250815250600a60008773ffffffffffffffffffffffffffffffffffffffff1673ffffffffffffffffffffffffffffffffffffffff16815260200190815260200160002060000190600261205c9291906124b0565b5060405180604001604052806040518060400160405280878152602001868152508152602001604051806040016040528085815260200184815250815250600b60008773ffffffffffffffffffffffffffffffffffffffff1673ffffffffffffffffffffffffffffffffffffffff1681526020019081526020016000209060026120e79291906124b0565b5060008390505b8181116121c95760008590505b8381116121b5576001600c6000838152602001908152602001600020600084815260200190815260200160002060006101000a81548160ff02191690831515021790555086600d6000838152602001908152602001600020600084815260200190815260200160002060006101000a81548173ffffffffffffffffffffffffffffffffffffffff021916908373ffffffffffffffffffffffffffffffffffffffff16021790555080806121ad90612e5b565b9150506120fb565b5080806121c190612e5b565b9150506120ee565b505050505050565b60008060009054906101000a900473ffffffffffffffffffffffffffffffffffffffff169050816000806101000a81548173ffffffffffffffffffffffffffffffffffffffff021916908373ffffffffffffffffffffffffffffffffffffffff1602179055508173ffffffffffffffffffffffffffffffffffffffff168173ffffffffffffffffffffffffffffffffffffffff167f8be0079c531659141344cd1fd0a4f28419497f9722a3daafe3b4186f6b6457e060405160405180910390a35050565b6000808490505b8281116123205760008690505b84811161230c5760011515600c6000838152602001908152602001600020600084815260200190815260200160002060009054906101000a900460ff16151514156122f957600192505050612326565b808061230490612e5b565b9150506122a9565b50808061231890612e5b565b91505061229c565b50600090505b949350505050565b6040518060400160405280600290602082028036833780820191505090505090565b60405180604001604052806002905b61236761232e565b81526020019060019003908161235f5790505090565b826002800281019282156123bc579160200282015b828111156123bb578251829060026123ab929190612540565b5091602001919060020190612392565b5b5090506123c99190612585565b5090565b8260028002810192821561240b579160020282015b8281111561240a5782829060026123fa9291906125a9565b50916002019190600201906123e2565b5b5090506124189190612585565b5090565b506000818161242b91906125e6565b50600201600061243b91906125e6565b565b6040518060400160405280612450612350565b8152602001600073ffffffffffffffffffffffffffffffffffffffff1681525090565b826002810192821561249f579182015b8281111561249e578254825591600101919060010190612483565b5b5090506124ac91906125f4565b5090565b826002800281019282156124ef579160200282015b828111156124ee578251829060026124de929190612500565b50916020019190600201906124c5565b5b5090506124fc9190612585565b5090565b826002810192821561252f579160200282015b8281111561252e578251825591602001919060010190612513565b5b50905061253c91906125f4565b5090565b8260028101928215612574579160200282015b82811115612573578251829060ff16905591602001919060010190612553565b5b50905061258191906125f4565b5090565b5b808211156125a5576000818161259c91906125e6565b50600201612586565b5090565b82600281019282156125d5579182015b828111156125d45782548255916001019190600101906125b9565b5b5090506125e291906125f4565b5090565b506000815560010160009055565b5b8082111561260d5760008160009055506001016125f5565b5090565b600081359050612620816130bf565b92915050565b600081359050612635816130d6565b92915050565b60006020828403121561264d57600080fd5b600061265b84828501612611565b91505092915050565b6000806040838503121561267757600080fd5b600061268585828601612611565b925050602061269685828601612626565b9150509250929050565b6000806000606084860312156126b557600080fd5b60006126c386828701612611565b93505060206126d486828701612626565b92505060406126e586828701612626565b9150509250925092565b60006020828403121561270157600080fd5b600061270f84828501612626565b91505092915050565b6000806040838503121561272b57600080fd5b600061273985828601612626565b925050602061274a85828601612611565b9150509250929050565b6000806040838503121561276757600080fd5b600061277585828601612626565b925050602061278685828601612626565b9150509250929050565b600080600080608085870312156127a657600080fd5b60006127b487828801612626565b94505060206127c587828801612626565b93505060406127d687828801612626565b92505060606127e787828801612626565b91505092959194509250565b60006127ff83836128ef565b60408301905092915050565b60006128178383612b16565b60208301905092915050565b61282c81612e13565b82525050565b61283b81612e13565b82525050565b61284a81612d41565b6128548184612d71565b925061285f82612d2d565b8060005b8381101561289057815161287787826127f3565b965061288283612d57565b925050600181019050612863565b505050505050565b6128a181612d41565b6128ab8184612d7c565b92506128b682612d2d565b8060005b838110156128e75781516128ce87826127f3565b96506128d983612d57565b9250506001810190506128ba565b505050505050565b6128f881612d4c565b6129028184612d87565b925061290d82612d37565b8060005b8381101561293e578151612925878261280b565b965061293083612d64565b925050600181019050612911565b505050505050565b61294f81612d4c565b6129598184612d92565b925061296482612d37565b8060005b8381101561299557815161297c878261280b565b965061298783612d64565b925050600181019050612968565b505050505050565b6129a681612e25565b82525050565b60006129b9602683612d9d565b91506129c482612f02565b604082019050919050565b60006129dc601083612d9d565b91506129e782612f51565b602082019050919050565b60006129ff601083612d9d565b9150612a0a82612f7a565b602082019050919050565b6000612a22601983612d9d565b9150612a2d82612fa3565b602082019050919050565b6000612a45601483612d9d565b9150612a5082612fcc565b602082019050919050565b6000612a68602083612d9d565b9150612a7382612ff5565b602082019050919050565b6000612a8b602483612d9d565b9150612a968261301e565b604082019050919050565b6000612aae601783612d9d565b9150612ab98261306d565b602082019050919050565b6000612ad1601783612d9d565b9150612adc82613096565b602082019050919050565b60a082016000820151612afd6000850182612841565b506020820151612b106080850182612823565b50505050565b612b1f81612e51565b82525050565b612b2e81612e51565b82525050565b6000602082019050612b496000830184612832565b92915050565b6000608082019050612b646000830184612898565b92915050565b6000604082019050612b7f6000830184612946565b92915050565b6000602082019050612b9a600083018461299d565b92915050565b60006020820190508181036000830152612bb9816129ac565b9050919050565b60006020820190508181036000830152612bd9816129cf565b9050919050565b60006020820190508181036000830152612bf9816129f2565b9050919050565b60006020820190508181036000830152612c1981612a15565b9050919050565b60006020820190508181036000830152612c3981612a38565b9050919050565b60006020820190508181036000830152612c5981612a5b565b9050919050565b60006020820190508181036000830152612c7981612a7e565b9050919050565b60006020820190508181036000830152612c9981612aa1565b9050919050565b60006020820190508181036000830152612cb981612ac4565b9050919050565b600060a082019050612cd56000830184612ae7565b92915050565b6000602082019050612cf06000830184612b25565b92915050565b6000606082019050612d0b6000830186612b25565b612d186020830185612b25565b612d256040830184612b25565b949350505050565b6000819050919050565b6000819050919050565b600060029050919050565b600060029050919050565b6000602082019050919050565b6000602082019050919050565b600081905092915050565b600081905092915050565b600081905092915050565b600081905092915050565b600082825260208201905092915050565b6000612db982612e51565b9150612dc483612e51565b925082612dd457612dd3612ed3565b5b828204905092915050565b6000612dea82612e51565b9150612df583612e51565b925082821015612e0857612e07612ea4565b5b828203905092915050565b6000612e1e82612e31565b9050919050565b60008115159050919050565b600073ffffffffffffffffffffffffffffffffffffffff82169050919050565b6000819050919050565b6000612e6682612e51565b91507fffffffffffffffffffffffffffffffffffffffffffffffffffffffffffffffff821415612e9957612e98612ea4565b5b600182019050919050565b7f4e487b7100000000000000000000000000000000000000000000000000000000600052601160045260246000fd5b7f4e487b7100000000000000000000000000000000000000000000000000000000600052601260045260246000fd5b7f4f776e61626c653a206e6577206f776e657220697320746865207a65726f206160008201527f6464726573730000000000000000000000000000000000000000000000000000602082015250565b7f596573283029206f72204e6f2831292e00000000000000000000000000000000600082015250565b7f506c6f747320617265206f776e65642e00000000000000000000000000000000600082015250565b7f546865206d61702063616e277420626520736d616c6c65722e00000000000000600082015250565b7f596f7520617265206e6f7420616c6c6f7765642e000000000000000000000000600082015250565b7f4f776e61626c653a2063616c6c6572206973206e6f7420746865206f776e6572600082015250565b7f412070726f706f73656420657870616e73696f6e20697320696e2070726f677260008201527f6573732e00000000000000000000000000000000000000000000000000000000602082015250565b7f546865206d6170206d757374206265206269676765722e000000000000000000600082015250565b7f596f752063616e206f6e6c7920766f7465206f6e63652e000000000000000000600082015250565b6130c881612e13565b81146130d357600080fd5b50565b6130df81612e51565b81146130ea57600080fd5b5056fea2646970667358221220f24af94f545a4919250be9a126854bf8a6e0a223fb7e099a37528058760c197c64736f6c63430008040033",
  "linkReferences": {},
  "deployedLinkReferences": {}
}